{"abi":[{"type":"constructor","inputs":[{"name":"_oracle","type":"address","internalType":"address"},{"name":"_treasury","type":"address","internalType":"address"}],"stateMutability":"nonpayable"},{"type":"function","name":"BPS_DENOMINATOR","inputs":[],"outputs":[{"name":"","type":"uint256","internalType":"uint256"}],"stateMutability":"view"},{"type":"function","name":"BURN_ADDRESS","inputs":[],"outputs":[{"name":"","type":"address","internalType":"address"}],"stateMutability":"view"},{"type":"function","name":"BURN_BPS","inputs":[],"outputs":[{"name":"","type":"uint256","internalType":"uint256"}],"stateMutability":"view"},{"type":"function","name":"JACKPOT_BPS","inputs":[],"outputs":[{"name":"","type":"uint256","internalType":"uint256"}],"stateMutability":"view"},{"type":"function","name":"TOP_BETTOR_BPS","inputs":[],"outputs":[{"name":"","type":"uint256","internalType":"uint256"}],"stateMutability":"view"},{"type":"function","name":"TREASURY_BPS","inputs":[],"outputs":[{"name":"","type":"uint256","internalType":"uint256"}],"stateMutability":"view"},{"type":"function","name":"WINNERS_BPS","inputs":[],"outputs":[{"name":"","type":"uint256","internalType":"uint256"}],"stateMutability":"view"},{"type":"function","name":"agentPools","inputs":[{"name":"","type":"bytes32","internalType":"bytes32"},{"name":"","type":"uint256","internalType":"uint256"}],"outputs":[{"name":"","type":"uint256","internalType":"uint256"}],"stateMutability":"view"},{"type":"function","name":"battles","inputs":[{"name":"","type":"bytes32","internalType":"bytes32"}],"outputs":[{"name":"exists","type":"bool","internalType":"bool"},{"name":"resolving","type":"bool","internalType":"bool"},{"name":"settled","type":"bool","internalType":"bool"},{"name":"winnerId","type":"uint256","internalType":"uint256"},{"name":"totalPool","type":"uint256","internalType":"uint256"},{"name":"winnersPool","type":"uint256","internalType":"uint256"}],"stateMutability":"view"},{"type":"function","name":"claimPrize","inputs":[{"name":"battleId","type":"bytes32","internalType":"bytes32"}],"outputs":[],"stateMutability":"nonpayable"},{"type":"function","name":"claimable","inputs":[{"name":"","type":"bytes32","internalType":"bytes32"},{"name":"","type":"address","internalType":"address"}],"outputs":[{"name":"","type":"uint256","internalType":"uint256"}],"stateMutability":"view"},{"type":"function","name":"claimed","inputs":[{"name":"","type":"bytes32","internalType":"bytes32"},{"name":"","type":"address","internalType":"address"}],"outputs":[{"name":"","type":"bool","internalType":"bool"}],"stateMutability":"view"},{"type":"function","name":"createBattle","inputs":[{"name":"battleId","type":"bytes32","internalType":"bytes32"}],"outputs":[],"stateMutability":"nonpayable"},{"type":"function","name":"getBattlePool","inputs":[{"name":"battleId","type":"bytes32","internalType":"bytes32"}],"outputs":[{"name":"","type":"uint256","internalType":"uint256"}],"stateMutability":"view"},{"type":"function","name":"getOdds","inputs":[{"name":"battleId","type":"bytes32","internalType":"bytes32"},{"name":"agentIds","type":"uint256[]","internalType":"uint256[]"}],"outputs":[{"name":"pools","type":"uint256[]","internalType":"uint256[]"}],"stateMutability":"view"},{"type":"function","name":"getUserBets","inputs":[{"name":"battleId","type":"bytes32","internalType":"bytes32"},{"name":"user","type":"address","internalType":"address"}],"outputs":[{"name":"","type":"tuple[]","internalType":"struct HungernadsBetting.Bet[]","components":[{"name":"agentId","type":"uint256","internalType":"uint256"},{"name":"amount","type":"uint256","internalType":"uint256"}]}],"stateMutability":"view"},{"type":"function","name":"jackpotPool","inputs":[],"outputs":[{"name":"","type":"uint256","internalType":"uint256"}],"stateMutability":"view"},{"type":"function","name":"oracle","inputs":[],"outputs":[{"name":"","type":"address","internalType":"address"}],"stateMutability":"view"},{"type":"function","name":"placeBet","inputs":[{"name":"battleId","type":"bytes32","internalType":"bytes32"},{"name":"agentId","type":"uint256","internalType":"uint256"}],"outputs":[],"stateMutability":"payable"},{"type":"function","name":"settleBattle","inputs":[{"name":"battleId","type":"bytes32","internalType":"bytes32"},{"name":"winnerId","type":"uint256","internalType":"uint256"}],"outputs":[],"stateMutability":"nonpayable"},{"type":"function","name":"sponsorAgent","inputs":[{"name":"battleId","type":"bytes32","internalType":"bytes32"},{"name":"agentId","type":"uint256","internalType":"uint256"},{"name":"message","type":"string","internalType":"string"}],"outputs":[],"stateMutability":"payable"},{"type":"function","name":"treasury","inputs":[],"outputs":[{"name":"","type":"address","internalType":"address"}],"stateMutability":"view"},{"type":"event","name":"BattleCreated","inputs":[{"name":"battleId","type":"bytes32","indexed":true,"internalType":"bytes32"}],"anonymous":false},{"type":"event","name":"BattleSettled","inputs":[{"name":"battleId","type":"bytes32","indexed":true,"internalType":"bytes32"},{"name":"winnerId","type":"uint256","indexed":false,"internalType":"uint256"},{"name":"totalPool","type":"uint256","indexed":false,"internalType":"uint256"}],"anonymous":false},{"type":"event","name":"BetPlaced","inputs":[{"name":"battleId","type":"bytes32","indexed":true,"internalType":"bytes32"},{"name":"user","type":"address","indexed":true,"internalType":"address"},{"name":"agentId","type":"uint256","indexed":false,"internalType":"uint256"},{"name":"amount","type":"uint256","indexed":false,"internalType":"uint256"}],"anonymous":false},{"type":"event","name":"JackpotAccumulated","inputs":[{"name":"battleId","type":"bytes32","indexed":true,"internalType":"bytes32"},{"name":"amount","type":"uint256","indexed":false,"internalType":"uint256"},{"name":"newJackpotPool","type":"uint256","indexed":false,"internalType":"uint256"}],"anonymous":false},{"type":"event","name":"PrizeDistributed","inputs":[{"name":"battleId","type":"bytes32","indexed":true,"internalType":"bytes32"},{"name":"user","type":"address","indexed":true,"internalType":"address"},{"name":"amount","type":"uint256","indexed":false,"internalType":"uint256"}],"anonymous":false},{"type":"event","name":"SponsorBurned","inputs":[{"name":"battleId","type":"bytes32","indexed":true,"internalType":"bytes32"},{"name":"agentId","type":"uint256","indexed":true,"internalType":"uint256"},{"name":"sponsor","type":"address","indexed":true,"internalType":"address"},{"name":"amount","type":"uint256","indexed":false,"internalType":"uint256"}],"anonymous":false},{"type":"event","name":"SponsorshipSent","inputs":[{"name":"battleId","type":"bytes32","indexed":true,"internalType":"bytes32"},{"name":"agentId","type":"uint256","indexed":true,"internalType":"uint256"},{"name":"user","type":"address","indexed":true,"internalType":"address"},{"name":"amount","type":"uint256","indexed":false,"internalType":"uint256"},{"name":"message","type":"string","indexed":false,"internalType":"string"}],"anonymous":false},{"type":"event","name":"TopBettorBonusAwarded","inputs":[{"name":"battleId","type":"bytes32","indexed":true,"internalType":"bytes32"},{"name":"topBettor","type":"address","indexed":true,"internalType":"address"},{"name":"bonus","type":"uint256","indexed":false,"internalType":"uint256"}],"anonymous":false},{"type":"error","name":"AlreadyClaimed","inputs":[]},{"type":"error","name":"BattleAlreadyExists","inputs":[]},{"type":"error","name":"BattleAlreadySettled","inputs":[]},{"type":"error","name":"BattleDoesNotExist","inputs":[]},{"type":"error","name":"BattleIsResolving","inputs":[]},{"type":"error","name":"InvalidWinner","inputs":[]},{"type":"error","name":"NothingToClaim","inputs":[]},{"type":"error","name":"OnlyOracle","inputs":[]},{"type":"error","name":"ReentrancyGuardReentrantCall","inputs":[]},{"type":"error","name":"TransferFailed","inputs":[]},{"type":"error","name":"ZeroAmount","inputs":[]}],"bytecode":{"object":"0x608060405234801561000f575f80fd5b506040516114a83803806114a883398101604081905261002e9161009d565b60017f9b779b17422d0df92223018b32b4d1fa46e071723d6817e2486d003becc55f00555f80546001600160a01b039384166001600160a01b031991821617909155600180549290931691161790556100ce565b80516001600160a01b0381168114610098575f80fd5b919050565b5f80604083850312156100ae575f80fd5b6100b783610082565b91506100c560208401610082565b90509250929050565b6113cd806100db5f395ff3fe608060405260043610610131575f3560e01c80639f86b663116100a8578063b0fc94401161006d578063b0fc9440146103aa578063b3db7fc5146103c9578063dfcae622146103f7578063e1a4521814610440578063f3118d8e14610455578063fccc281314610468575f80fd5b80639f86b66314610335578063a37a9fc014610193578063abdbd8061461034a578063ae1fec9014610376578063b05b32ae14610395575f80fd5b80636a37ea6c116100f95780636a37ea6c1461020b578063701945641461022a57806378547e6c1461023f5780637dc0d1d0146102cd5780637fd7b7c6146102eb578063937d4c5f14610321575f80fd5b8063415a9429146101355780634499f5b31461014a5780634c25d1971461019357806361d027b3146101a857806365bc7c95146101df575b5f80fd5b6101486101433660046110d8565b61047d565b005b348015610155575f80fd5b50610180610164366004611151565b600660209081525f928352604080842090915290825290205481565b6040519081526020015b60405180910390f35b34801561019e575f80fd5b506101806101f481565b3480156101b3575f80fd5b506001546101c7906001600160a01b031681565b6040516001600160a01b03909116815260200161018a565b3480156101ea575f80fd5b506101fe6101f936600461118a565b6105c0565b60405161018a9190611202565b348015610216575f80fd5b50610148610225366004611245565b610673565b348015610235575f80fd5b5061018061012c81565b34801561024a575f80fd5b50610298610259366004611265565b600360208190525f9182526040909120805460018201546002830154929093015460ff8083169461010084048216946201000090940490911692909186565b6040805196151587529415156020870152921515938501939093526060840152608083019190915260a082015260c00161018a565b3480156102d8575f80fd5b505f546101c7906001600160a01b031681565b3480156102f6575f80fd5b50610180610305366004611245565b600460209081525f928352604080842090915290825290205481565b34801561032c575f80fd5b5061018060c881565b348015610340575f80fd5b5061018061213481565b348015610355575f80fd5b50610369610364366004611151565b61096b565b60405161018a919061127c565b348015610381575f80fd5b50610148610390366004611265565b6109f9565b3480156103a0575f80fd5b5061018060025481565b3480156103b5575f80fd5b506101486103c4366004611265565b610a94565b3480156103d4575f80fd5b506101806103e3366004611265565b5f9081526003602052604090206002015490565b348015610402575f80fd5b50610430610411366004611151565b600760209081525f928352604080842090915290825290205460ff1681565b604051901515815260200161018a565b34801561044b575f80fd5b5061018061271081565b610148610463366004611245565b610c20565b348015610473575f80fd5b506101c761dead81565b5f848152600360205260409020805485919060ff166104af57604051639b1a599f60e01b815260040160405180910390fd5b8054610100900460ff16156104d757604051631783a9ef60e01b815260040160405180910390fd5b805462010000900460ff161561050057604051630389fbd960e11b815260040160405180910390fd5b345f0361052057604051631f2a200560e01b815260040160405180910390fd5b61052c61dead34610df1565b336001600160a01b031685877fe087e8124b762c9b2bfdccfd7587a35bba2df00459dc4d8dfb6bf2e439a949fc34888860405161056b939291906112ca565b60405180910390a4336001600160a01b031685877fc24bcc24847e064f572ea69edcbd53e779f95b309a725988bf0823d3c11f57a5346040516105b091815260200190565b60405180910390a4505050505050565b60608167ffffffffffffffff8111156105db576105db6112ff565b604051908082528060200260200182016040528015610604578160200160208202803683370190505b5090505f5b8281101561066b575f8581526004602052604081209085858481811061063157610631611313565b9050602002013581526020019081526020015f205482828151811061065857610658611313565b6020908102919091010152600101610609565b509392505050565b5f546001600160a01b0316331461069d576040516380fee10560e01b815260040160405180910390fd5b5f82815260036020526040902054829060ff166106cd57604051639b1a599f60e01b815260040160405180910390fd5b5f838152600360205260409020805462010000900460ff161561070357604051630389fbd960e11b815260040160405180910390fd5b8054610100900460ff161561072b57604051631783a9ef60e01b815260040160405180910390fd5b805461ff001916610100178155600181018390556002810154801561091a575f61271061075a6101f48461133b565b6107649190611352565b90505f6127106107766101f48561133b565b6107809190611352565b90505f61271061079261012c8661133b565b61079c9190611352565b90505f6127106107ad60c88761133b565b6107b79190611352565b90505f8183856107c7888a611371565b6107d19190611371565b6107db9190611371565b6107e59190611371565b60025490915080156107fe576107fb8183611384565b91505b600284905560408051858152602081018690528c917f7fc3b9fa90ace6db33f9d0c1c7602b675f82384a0381cb0cc6f3c74de1b36a77910160405180910390a2600388018290556108508b8b84610e66565b5f61085b8c8c610f35565b90506001600160a01b0381161580159061087457505f84115b156108f0575f8c81526006602090815260408083206001600160a01b0385168452909152812080548692906108aa908490611384565b90915550506040518481526001600160a01b038216908d907fe38d9b7b55d270dc1254aaf5a13f6f79f6c2233446ef53be4e0cae4ebf17c8449060200160405180910390a35b600154610906906001600160a01b031688610df1565b61091261dead87610df1565b505050505050505b815462ffff00191662010000178255604080518581526020810183905286917fc47d8c8e24e7afd580c4d99330abfb83338653f3eb45494b2b4daa7589c54a94910160405180910390a25050505050565b5f8281526005602090815260408083206001600160a01b03851684528252808320805482518185028101850190935280835260609492939192909184015b828210156109ec578382905f5260205f2090600202016040518060400160405290815f8201548152602001600182015481525050815260200190600101906109a9565b5050505090505b92915050565b5f546001600160a01b03163314610a23576040516380fee10560e01b815260040160405180910390fd5b5f8181526003602052604090205460ff1615610a52576040516320fd51ad60e11b815260040160405180910390fd5b5f81815260036020526040808220805460ff191660011790555182917f78de32f93b7fc7508a6618419edcccf5ffc79c48bc0668d4f9663638fee30cdb91a250565b610a9c610fd2565b5f81815260036020526040902054819060ff16610acc57604051639b1a599f60e01b815260040160405180910390fd5b5f828152600360205260409020805462010000900460ff16610b0157604051639b1a599f60e01b815260040160405180910390fd5b5f83815260076020908152604080832033845290915290205460ff1615610b3b57604051630c8d9eab60e31b815260040160405180910390fd5b5f83815260066020908152604080832033845290915281205490819003610b75576040516312d37ee560e31b815260040160405180910390fd5b5f84815260076020908152604080832033808552908352818420805460ff1916600117905587845260068352818420818552909252822091909155610bba9082610df1565b604051818152339085907f329f0475be6859750ba57515c5f7ee2d9d6a7f373b686174431f28d354305db69060200160405180910390a3505050610c1d60017f9b779b17422d0df92223018b32b4d1fa46e071723d6817e2486d003becc55f0055565b50565b5f828152600360205260409020805483919060ff16610c5257604051639b1a599f60e01b815260040160405180910390fd5b8054610100900460ff1615610c7a57604051631783a9ef60e01b815260040160405180910390fd5b805462010000900460ff1615610ca357604051630389fbd960e11b815260040160405180910390fd5b345f03610cc357604051631f2a200560e01b815260040160405180910390fd5b5f84815260036020526040812060028101805491923492610ce5908490611384565b90915550505f85815260046020908152604080832087845290915281208054349290610d12908490611384565b90915550610d239050853386611000565b5f03610d5f575f85815260086020908152604080832087845282528220805460018101825590835291200180546001600160a01b031916331790555b5f85815260056020908152604080832033808552908352818420825180840184528981523481860181815283546001808201865594895297879020925160029098029092019687559051959091019490945581518881529283019390935287917fc9621b1db612fa52c8213099eb7c450b407922963a8c63ee6bfe963404f45997910160405180910390a35050505050565b5f826001600160a01b0316826040515f6040518083038185875af1925050503d805f8114610e3a576040519150601f19603f3d011682016040523d82523d5f602084013e610e3f565b606091505b5050905080610e61576040516312171d8360e31b815260040160405180910390fd5b505050565b5f83815260046020908152604080832085845290915281205490819003610e8d5750505050565b5f8481526008602090815260408083208684529091528120905b8154811015610f2d575f828281548110610ec357610ec3611313565b5f9182526020822001546001600160a01b03169150610ee3888389611000565b90508015610f235784610ef6828861133b565b610f009190611352565b5f8981526006602090815260408083206001600160a01b03871684529091529020555b5050600101610ea7565b505050505050565b5f828152600860209081526040808320848452909152812081805b8254811015610fc9575f610f8a87858481548110610f7057610f70611313565b5f918252602090912001546001600160a01b031688611000565b905082811115610fc057809250838281548110610fa957610fa9611313565b5f918252602090912001546001600160a01b031694505b50600101610f50565b50505092915050565b610fda611094565b60027f9b779b17422d0df92223018b32b4d1fa46e071723d6817e2486d003becc55f0055565b5f8381526005602090815260408083206001600160a01b03861684529091528120815b815481101561108b578382828154811061103f5761103f611313565b905f5260205f2090600202015f0154036110835781818154811061106557611065611313565b905f5260205f20906002020160010154836110809190611384565b92505b600101611023565b50509392505050565b7f9b779b17422d0df92223018b32b4d1fa46e071723d6817e2486d003becc55f00546002036110d657604051633ee5aeb560e01b815260040160405180910390fd5b565b5f805f80606085870312156110eb575f80fd5b8435935060208501359250604085013567ffffffffffffffff80821115611110575f80fd5b818701915087601f830112611123575f80fd5b813581811115611131575f80fd5b886020828501011115611142575f80fd5b95989497505060200194505050565b5f8060408385031215611162575f80fd5b8235915060208301356001600160a01b038116811461117f575f80fd5b809150509250929050565b5f805f6040848603121561119c575f80fd5b83359250602084013567ffffffffffffffff808211156111ba575f80fd5b818601915086601f8301126111cd575f80fd5b8135818111156111db575f80fd5b8760208260051b85010111156111ef575f80fd5b6020830194508093505050509250925092565b602080825282518282018190525f9190848201906040850190845b818110156112395783518352928401929184019160010161121d565b50909695505050505050565b5f8060408385031215611256575f80fd5b50508035926020909101359150565b5f60208284031215611275575f80fd5b5035919050565b602080825282518282018190525f919060409081850190868401855b828110156112bd57815180518552860151868501529284019290850190600101611298565b5091979650505050505050565b83815260406020820152816040820152818360608301375f818301606090810191909152601f909201601f1916010192915050565b634e487b7160e01b5f52604160045260245ffd5b634e487b7160e01b5f52603260045260245ffd5b634e487b7160e01b5f52601160045260245ffd5b80820281158282048414176109f3576109f3611327565b5f8261136c57634e487b7160e01b5f52601260045260245ffd5b500490565b818103818111156109f3576109f3611327565b808201808211156109f3576109f361132756fea2646970667358221220ad84bb5ca0e79f30bbc86ff4ce8a099a28371747e8f4d9b6ea278f6375b7fc7a64736f6c63430008180033","linkReferences":{}},"methodIdentifiers":{"BPS_DENOMINATOR()":"e1a45218","BURN_ADDRESS()":"fccc2813","BURN_BPS()":"a37a9fc0","JACKPOT_BPS()":"70194564","TOP_BETTOR_BPS()":"937d4c5f","TREASURY_BPS()":"4c25d197","WINNERS_BPS()":"9f86b663","agentPools(bytes32,uint256)":"7fd7b7c6","battles(bytes32)":"78547e6c","claimPrize(bytes32)":"b0fc9440","claimable(bytes32,address)":"4499f5b3","claimed(bytes32,address)":"dfcae622","createBattle(bytes32)":"ae1fec90","getBattlePool(bytes32)":"b3db7fc5","getOdds(bytes32,uint256[])":"65bc7c95","getUserBets(bytes32,address)":"abdbd806","jackpotPool()":"b05b32ae","oracle()":"7dc0d1d0","placeBet(bytes32,uint256)":"f3118d8e","settleBattle(bytes32,uint256)":"6a37ea6c","sponsorAgent(bytes32,uint256,string)":"415a9429","treasury()":"61d027b3"},"id":26}