{"abi":[{"type":"constructor","inputs":[{"name":"_oracle","type":"address","internalType":"address"},{"name":"_treasury","type":"address","internalType":"address"}],"stateMutability":"nonpayable"},{"type":"function","name":"BPS_DENOMINATOR","inputs":[],"outputs":[{"name":"","type":"uint256","internalType":"uint256"}],"stateMutability":"view"},{"type":"function","name":"BURN_ADDRESS","inputs":[],"outputs":[{"name":"","type":"address","internalType":"address"}],"stateMutability":"view"},{"type":"function","name":"BURN_BPS","inputs":[],"outputs":[{"name":"","type":"uint256","internalType":"uint256"}],"stateMutability":"view"},{"type":"function","name":"TREASURY_BPS","inputs":[],"outputs":[{"name":"","type":"uint256","internalType":"uint256"}],"stateMutability":"view"},{"type":"function","name":"WINNERS_BPS","inputs":[],"outputs":[{"name":"","type":"uint256","internalType":"uint256"}],"stateMutability":"view"},{"type":"function","name":"agentPools","inputs":[{"name":"","type":"bytes32","internalType":"bytes32"},{"name":"","type":"uint256","internalType":"uint256"}],"outputs":[{"name":"","type":"uint256","internalType":"uint256"}],"stateMutability":"view"},{"type":"function","name":"battles","inputs":[{"name":"","type":"bytes32","internalType":"bytes32"}],"outputs":[{"name":"exists","type":"bool","internalType":"bool"},{"name":"resolving","type":"bool","internalType":"bool"},{"name":"settled","type":"bool","internalType":"bool"},{"name":"winnerId","type":"uint256","internalType":"uint256"},{"name":"totalPool","type":"uint256","internalType":"uint256"},{"name":"winnersPool","type":"uint256","internalType":"uint256"}],"stateMutability":"view"},{"type":"function","name":"claimPrize","inputs":[{"name":"battleId","type":"bytes32","internalType":"bytes32"}],"outputs":[],"stateMutability":"nonpayable"},{"type":"function","name":"claimable","inputs":[{"name":"","type":"bytes32","internalType":"bytes32"},{"name":"","type":"address","internalType":"address"}],"outputs":[{"name":"","type":"uint256","internalType":"uint256"}],"stateMutability":"view"},{"type":"function","name":"claimed","inputs":[{"name":"","type":"bytes32","internalType":"bytes32"},{"name":"","type":"address","internalType":"address"}],"outputs":[{"name":"","type":"bool","internalType":"bool"}],"stateMutability":"view"},{"type":"function","name":"createBattle","inputs":[{"name":"battleId","type":"bytes32","internalType":"bytes32"}],"outputs":[],"stateMutability":"nonpayable"},{"type":"function","name":"getBattlePool","inputs":[{"name":"battleId","type":"bytes32","internalType":"bytes32"}],"outputs":[{"name":"","type":"uint256","internalType":"uint256"}],"stateMutability":"view"},{"type":"function","name":"getOdds","inputs":[{"name":"battleId","type":"bytes32","internalType":"bytes32"},{"name":"agentIds","type":"uint256[]","internalType":"uint256[]"}],"outputs":[{"name":"pools","type":"uint256[]","internalType":"uint256[]"}],"stateMutability":"view"},{"type":"function","name":"getUserBets","inputs":[{"name":"battleId","type":"bytes32","internalType":"bytes32"},{"name":"user","type":"address","internalType":"address"}],"outputs":[{"name":"","type":"tuple[]","internalType":"struct HungernadsBetting.Bet[]","components":[{"name":"agentId","type":"uint256","internalType":"uint256"},{"name":"amount","type":"uint256","internalType":"uint256"}]}],"stateMutability":"view"},{"type":"function","name":"oracle","inputs":[],"outputs":[{"name":"","type":"address","internalType":"address"}],"stateMutability":"view"},{"type":"function","name":"placeBet","inputs":[{"name":"battleId","type":"bytes32","internalType":"bytes32"},{"name":"agentId","type":"uint256","internalType":"uint256"}],"outputs":[],"stateMutability":"payable"},{"type":"function","name":"settleBattle","inputs":[{"name":"battleId","type":"bytes32","internalType":"bytes32"},{"name":"winnerId","type":"uint256","internalType":"uint256"}],"outputs":[],"stateMutability":"nonpayable"},{"type":"function","name":"sponsorAgent","inputs":[{"name":"battleId","type":"bytes32","internalType":"bytes32"},{"name":"agentId","type":"uint256","internalType":"uint256"},{"name":"message","type":"string","internalType":"string"}],"outputs":[],"stateMutability":"payable"},{"type":"function","name":"treasury","inputs":[],"outputs":[{"name":"","type":"address","internalType":"address"}],"stateMutability":"view"},{"type":"event","name":"BattleCreated","inputs":[{"name":"battleId","type":"bytes32","indexed":true,"internalType":"bytes32"}],"anonymous":false},{"type":"event","name":"BattleSettled","inputs":[{"name":"battleId","type":"bytes32","indexed":true,"internalType":"bytes32"},{"name":"winnerId","type":"uint256","indexed":false,"internalType":"uint256"},{"name":"totalPool","type":"uint256","indexed":false,"internalType":"uint256"}],"anonymous":false},{"type":"event","name":"BetPlaced","inputs":[{"name":"battleId","type":"bytes32","indexed":true,"internalType":"bytes32"},{"name":"user","type":"address","indexed":true,"internalType":"address"},{"name":"agentId","type":"uint256","indexed":false,"internalType":"uint256"},{"name":"amount","type":"uint256","indexed":false,"internalType":"uint256"}],"anonymous":false},{"type":"event","name":"PrizeDistributed","inputs":[{"name":"battleId","type":"bytes32","indexed":true,"internalType":"bytes32"},{"name":"user","type":"address","indexed":true,"internalType":"address"},{"name":"amount","type":"uint256","indexed":false,"internalType":"uint256"}],"anonymous":false},{"type":"event","name":"SponsorshipSent","inputs":[{"name":"battleId","type":"bytes32","indexed":true,"internalType":"bytes32"},{"name":"agentId","type":"uint256","indexed":true,"internalType":"uint256"},{"name":"user","type":"address","indexed":true,"internalType":"address"},{"name":"amount","type":"uint256","indexed":false,"internalType":"uint256"},{"name":"message","type":"string","indexed":false,"internalType":"string"}],"anonymous":false},{"type":"error","name":"AlreadyClaimed","inputs":[]},{"type":"error","name":"BattleAlreadyExists","inputs":[]},{"type":"error","name":"BattleAlreadySettled","inputs":[]},{"type":"error","name":"BattleDoesNotExist","inputs":[]},{"type":"error","name":"BattleIsResolving","inputs":[]},{"type":"error","name":"InvalidWinner","inputs":[]},{"type":"error","name":"NothingToClaim","inputs":[]},{"type":"error","name":"OnlyOracle","inputs":[]},{"type":"error","name":"ReentrancyGuardReentrantCall","inputs":[]},{"type":"error","name":"TransferFailed","inputs":[]},{"type":"error","name":"ZeroAmount","inputs":[]}],"bytecode":{"object":"0x608060405234801561000f575f80fd5b5060405161124038038061124083398101604081905261002e9161009d565b60017f9b779b17422d0df92223018b32b4d1fa46e071723d6817e2486d003becc55f00555f80546001600160a01b039384166001600160a01b031991821617909155600180549290931691161790556100ce565b80516001600160a01b0381168114610098575f80fd5b919050565b5f80604083850312156100ae575f80fd5b6100b783610082565b91506100c560208401610082565b90509250929050565b611165806100db5f395ff3fe608060405260043610610110575f3560e01c80639f86b6631161009d578063b3db7fc511610062578063b3db7fc51461036a578063dfcae62214610399578063e1a45218146103e2578063f3118d8e146103f7578063fccc28131461040a575f80fd5b80639f86b663146102eb578063a37a9fc014610172578063abdbd80614610300578063ae1fec901461032c578063b0fc94401461034b575f80fd5b806365bc7c95116100e357806365bc7c95146101be5780636a37ea6c146101ea57806378547e6c146102095780637dc0d1d0146102975780637fd7b7c6146102b5575f80fd5b8063415a9429146101145780634499f5b3146101295780634c25d1971461017257806361d027b314610187575b5f80fd5b610127610122366004610e70565b61041f565b005b348015610134575f80fd5b5061015f610143366004610ee9565b600560209081525f928352604080842090915290825290205481565b6040519081526020015b60405180910390f35b34801561017d575f80fd5b5061015f6101f481565b348015610192575f80fd5b506001546101a6906001600160a01b031681565b6040516001600160a01b039091168152602001610169565b3480156101c9575f80fd5b506101dd6101d8366004610f22565b61053c565b6040516101699190610f9a565b3480156101f5575f80fd5b50610127610204366004610fdd565b6105ef565b348015610214575f80fd5b50610262610223366004610ffd565b600260208190525f9182526040909120805460018201549282015460039092015460ff8083169461010084048216946201000090940490911692909186565b6040805196151587529415156020870152921515938501939093526060840152608083019190915260a082015260c001610169565b3480156102a2575f80fd5b505f546101a6906001600160a01b031681565b3480156102c0575f80fd5b5061015f6102cf366004610fdd565b600360209081525f928352604080842090915290825290205481565b3480156102f6575f80fd5b5061015f61232881565b34801561030b575f80fd5b5061031f61031a366004610ee9565b61079f565b6040516101699190611014565b348015610337575f80fd5b50610127610346366004610ffd565b61082d565b348015610356575f80fd5b50610127610365366004610ffd565b6108c8565b348015610375575f80fd5b5061015f610384366004610ffd565b5f908152600260208190526040909120015490565b3480156103a4575f80fd5b506103d26103b3366004610ee9565b600660209081525f928352604080842090915290825290205460ff1681565b6040519015158152602001610169565b3480156103ed575f80fd5b5061015f61271081565b610127610405366004610fdd565b610a54565b348015610415575f80fd5b506101a661dead81565b5f848152600260205260409020805485919060ff1661045157604051639b1a599f60e01b815260040160405180910390fd5b8054610100900460ff161561047957604051631783a9ef60e01b815260040160405180910390fd5b805462010000900460ff16156104a257604051630389fbd960e11b815260040160405180910390fd5b345f036104c257604051631f2a200560e01b815260040160405180910390fd5b5f86815260026020819052604082209081018054919234926104e5908490611076565b92505081905550336001600160a01b031686887fe087e8124b762c9b2bfdccfd7587a35bba2df00459dc4d8dfb6bf2e439a949fc34898960405161052b93929190611089565b60405180910390a450505050505050565b60608167ffffffffffffffff811115610557576105576110be565b604051908082528060200260200182016040528015610580578160200160208202803683370190505b5090505f5b828110156105e7575f858152600360205260408120908585848181106105ad576105ad6110d2565b9050602002013581526020019081526020015f20548282815181106105d4576105d46110d2565b6020908102919091010152600101610585565b509392505050565b5f546001600160a01b03163314610619576040516380fee10560e01b815260040160405180910390fd5b5f82815260026020526040902054829060ff1661064957604051639b1a599f60e01b815260040160405180910390fd5b5f838152600260205260409020805462010000900460ff161561067f57604051630389fbd960e11b815260040160405180910390fd5b8054610100900460ff16156106a757604051631783a9ef60e01b815260040160405180910390fd5b805461ff001916610100178155600181018390556002810154801561074e575f6127106106d66101f4846110e6565b6106e091906110fd565b90505f6127106106f26101f4856110e6565b6106fc91906110fd565b90505f8161070a848661111c565b610714919061111c565b600386018190559050610728888883610c26565b60015461073e906001600160a01b031684610cf5565b61074a61dead83610cf5565b5050505b815462ffff00191662010000178255604080518581526020810183905286917fc47d8c8e24e7afd580c4d99330abfb83338653f3eb45494b2b4daa7589c54a94910160405180910390a25050505050565b5f8281526004602090815260408083206001600160a01b03851684528252808320805482518185028101850190935280835260609492939192909184015b82821015610820578382905f5260205f2090600202016040518060400160405290815f8201548152602001600182015481525050815260200190600101906107dd565b5050505090505b92915050565b5f546001600160a01b03163314610857576040516380fee10560e01b815260040160405180910390fd5b5f8181526002602052604090205460ff1615610886576040516320fd51ad60e11b815260040160405180910390fd5b5f81815260026020526040808220805460ff191660011790555182917f78de32f93b7fc7508a6618419edcccf5ffc79c48bc0668d4f9663638fee30cdb91a250565b6108d0610d6a565b5f81815260026020526040902054819060ff1661090057604051639b1a599f60e01b815260040160405180910390fd5b5f828152600260205260409020805462010000900460ff1661093557604051639b1a599f60e01b815260040160405180910390fd5b5f83815260066020908152604080832033845290915290205460ff161561096f57604051630c8d9eab60e31b815260040160405180910390fd5b5f838152600560209081526040808320338452909152812054908190036109a9576040516312d37ee560e31b815260040160405180910390fd5b5f84815260066020908152604080832033808552908352818420805460ff19166001179055878452600583528184208185529092528220919091556109ee9082610cf5565b604051818152339085907f329f0475be6859750ba57515c5f7ee2d9d6a7f373b686174431f28d354305db69060200160405180910390a3505050610a5160017f9b779b17422d0df92223018b32b4d1fa46e071723d6817e2486d003becc55f0055565b50565b5f828152600260205260409020805483919060ff16610a8657604051639b1a599f60e01b815260040160405180910390fd5b8054610100900460ff1615610aae57604051631783a9ef60e01b815260040160405180910390fd5b805462010000900460ff1615610ad757604051630389fbd960e11b815260040160405180910390fd5b345f03610af757604051631f2a200560e01b815260040160405180910390fd5b5f8481526002602081905260408220908101805491923492610b1a908490611076565b90915550505f85815260036020908152604080832087845290915281208054349290610b47908490611076565b90915550610b589050853386610d98565b5f03610b94575f85815260076020908152604080832087845282528220805460018101825590835291200180546001600160a01b031916331790555b5f85815260046020908152604080832033808552908352818420825180840184528981523481860181815283546001808201865594895297879020925160029098029092019687559051959091019490945581518881529283019390935287917fc9621b1db612fa52c8213099eb7c450b407922963a8c63ee6bfe963404f45997910160405180910390a35050505050565b5f83815260036020908152604080832085845290915281205490819003610c4d5750505050565b5f8481526007602090815260408083208684529091528120905b8154811015610ced575f828281548110610c8357610c836110d2565b5f9182526020822001546001600160a01b03169150610ca3888389610d98565b90508015610ce35784610cb682886110e6565b610cc091906110fd565b5f8981526005602090815260408083206001600160a01b03871684529091529020555b5050600101610c67565b505050505050565b5f826001600160a01b0316826040515f6040518083038185875af1925050503d805f8114610d3e576040519150601f19603f3d011682016040523d82523d5f602084013e610d43565b606091505b5050905080610d65576040516312171d8360e31b815260040160405180910390fd5b505050565b610d72610e2c565b60027f9b779b17422d0df92223018b32b4d1fa46e071723d6817e2486d003becc55f0055565b5f8381526004602090815260408083206001600160a01b03861684529091528120815b8154811015610e235783828281548110610dd757610dd76110d2565b905f5260205f2090600202015f015403610e1b57818181548110610dfd57610dfd6110d2565b905f5260205f2090600202016001015483610e189190611076565b92505b600101610dbb565b50509392505050565b7f9b779b17422d0df92223018b32b4d1fa46e071723d6817e2486d003becc55f0054600203610e6e57604051633ee5aeb560e01b815260040160405180910390fd5b565b5f805f8060608587031215610e83575f80fd5b8435935060208501359250604085013567ffffffffffffffff80821115610ea8575f80fd5b818701915087601f830112610ebb575f80fd5b813581811115610ec9575f80fd5b886020828501011115610eda575f80fd5b95989497505060200194505050565b5f8060408385031215610efa575f80fd5b8235915060208301356001600160a01b0381168114610f17575f80fd5b809150509250929050565b5f805f60408486031215610f34575f80fd5b83359250602084013567ffffffffffffffff80821115610f52575f80fd5b818601915086601f830112610f65575f80fd5b813581811115610f73575f80fd5b8760208260051b8501011115610f87575f80fd5b6020830194508093505050509250925092565b602080825282518282018190525f9190848201906040850190845b81811015610fd157835183529284019291840191600101610fb5565b50909695505050505050565b5f8060408385031215610fee575f80fd5b50508035926020909101359150565b5f6020828403121561100d575f80fd5b5035919050565b602080825282518282018190525f919060409081850190868401855b8281101561105557815180518552860151868501529284019290850190600101611030565b5091979650505050505050565b634e487b7160e01b5f52601160045260245ffd5b8082018082111561082757610827611062565b83815260406020820152816040820152818360608301375f818301606090810191909152601f909201601f1916010192915050565b634e487b7160e01b5f52604160045260245ffd5b634e487b7160e01b5f52603260045260245ffd5b808202811582820484141761082757610827611062565b5f8261111757634e487b7160e01b5f52601260045260245ffd5b500490565b818103818111156108275761082761106256fea26469706673582212206e1982fb882f226f080672458ba479c723721cc5034183ef4ced0e2720f07f6064736f6c63430008180033","linkReferences":{}},"methodIdentifiers":{"BPS_DENOMINATOR()":"e1a45218","BURN_ADDRESS()":"fccc2813","BURN_BPS()":"a37a9fc0","TREASURY_BPS()":"4c25d197","WINNERS_BPS()":"9f86b663","agentPools(bytes32,uint256)":"7fd7b7c6","battles(bytes32)":"78547e6c","claimPrize(bytes32)":"b0fc9440","claimable(bytes32,address)":"4499f5b3","claimed(bytes32,address)":"dfcae622","createBattle(bytes32)":"ae1fec90","getBattlePool(bytes32)":"b3db7fc5","getOdds(bytes32,uint256[])":"65bc7c95","getUserBets(bytes32,address)":"abdbd806","oracle()":"7dc0d1d0","placeBet(bytes32,uint256)":"f3118d8e","settleBattle(bytes32,uint256)":"6a37ea6c","sponsorAgent(bytes32,uint256,string)":"415a9429","treasury()":"61d027b3"},"id":28}