{"abi":[{"type":"constructor","inputs":[],"stateMutability":"nonpayable"},{"type":"function","name":"BPS_DENOMINATOR","inputs":[],"outputs":[{"name":"","type":"uint256","internalType":"uint256"}],"stateMutability":"view"},{"type":"function","name":"BURN_ADDRESS","inputs":[],"outputs":[{"name":"","type":"address","internalType":"address"}],"stateMutability":"view"},{"type":"function","name":"BURN_BPS","inputs":[],"outputs":[{"name":"","type":"uint256","internalType":"uint256"}],"stateMutability":"view"},{"type":"function","name":"JACKPOT_BPS","inputs":[],"outputs":[{"name":"","type":"uint256","internalType":"uint256"}],"stateMutability":"view"},{"type":"function","name":"TOP_BETTOR_BPS","inputs":[],"outputs":[{"name":"","type":"uint256","internalType":"uint256"}],"stateMutability":"view"},{"type":"function","name":"TREASURY_BPS","inputs":[],"outputs":[{"name":"","type":"uint256","internalType":"uint256"}],"stateMutability":"view"},{"type":"function","name":"UPGRADE_INTERFACE_VERSION","inputs":[],"outputs":[{"name":"","type":"string","internalType":"string"}],"stateMutability":"view"},{"type":"function","name":"WINNERS_BPS","inputs":[],"outputs":[{"name":"","type":"uint256","internalType":"uint256"}],"stateMutability":"view"},{"type":"function","name":"agentPools","inputs":[{"name":"","type":"bytes32","internalType":"bytes32"},{"name":"","type":"uint256","internalType":"uint256"}],"outputs":[{"name":"","type":"uint256","internalType":"uint256"}],"stateMutability":"view"},{"type":"function","name":"battles","inputs":[{"name":"","type":"bytes32","internalType":"bytes32"}],"outputs":[{"name":"exists","type":"bool","internalType":"bool"},{"name":"resolving","type":"bool","internalType":"bool"},{"name":"settled","type":"bool","internalType":"bool"},{"name":"winnerId","type":"uint256","internalType":"uint256"},{"name":"totalPool","type":"uint256","internalType":"uint256"},{"name":"winnersPool","type":"uint256","internalType":"uint256"}],"stateMutability":"view"},{"type":"function","name":"claimPrize","inputs":[{"name":"battleId","type":"bytes32","internalType":"bytes32"}],"outputs":[],"stateMutability":"nonpayable"},{"type":"function","name":"claimable","inputs":[{"name":"","type":"bytes32","internalType":"bytes32"},{"name":"","type":"address","internalType":"address"}],"outputs":[{"name":"","type":"uint256","internalType":"uint256"}],"stateMutability":"view"},{"type":"function","name":"claimed","inputs":[{"name":"","type":"bytes32","internalType":"bytes32"},{"name":"","type":"address","internalType":"address"}],"outputs":[{"name":"","type":"bool","internalType":"bool"}],"stateMutability":"view"},{"type":"function","name":"createBattle","inputs":[{"name":"battleId","type":"bytes32","internalType":"bytes32"}],"outputs":[],"stateMutability":"nonpayable"},{"type":"function","name":"getBattlePool","inputs":[{"name":"battleId","type":"bytes32","internalType":"bytes32"}],"outputs":[{"name":"","type":"uint256","internalType":"uint256"}],"stateMutability":"view"},{"type":"function","name":"getOdds","inputs":[{"name":"battleId","type":"bytes32","internalType":"bytes32"},{"name":"agentIds","type":"uint256[]","internalType":"uint256[]"}],"outputs":[{"name":"pools","type":"uint256[]","internalType":"uint256[]"}],"stateMutability":"view"},{"type":"function","name":"getUserBets","inputs":[{"name":"battleId","type":"bytes32","internalType":"bytes32"},{"name":"user","type":"address","internalType":"address"}],"outputs":[{"name":"","type":"tuple[]","internalType":"struct HungernadsBetting.Bet[]","components":[{"name":"agentId","type":"uint256","internalType":"uint256"},{"name":"amount","type":"uint256","internalType":"uint256"}]}],"stateMutability":"view"},{"type":"function","name":"initialize","inputs":[{"name":"_oracle","type":"address","internalType":"address"},{"name":"_treasury","type":"address","internalType":"address"}],"outputs":[],"stateMutability":"nonpayable"},{"type":"function","name":"jackpotPool","inputs":[],"outputs":[{"name":"","type":"uint256","internalType":"uint256"}],"stateMutability":"view"},{"type":"function","name":"oracle","inputs":[],"outputs":[{"name":"","type":"address","internalType":"address"}],"stateMutability":"view"},{"type":"function","name":"owner","inputs":[],"outputs":[{"name":"","type":"address","internalType":"address"}],"stateMutability":"view"},{"type":"function","name":"placeBet","inputs":[{"name":"battleId","type":"bytes32","internalType":"bytes32"},{"name":"agentId","type":"uint256","internalType":"uint256"}],"outputs":[],"stateMutability":"payable"},{"type":"function","name":"proxiableUUID","inputs":[],"outputs":[{"name":"","type":"bytes32","internalType":"bytes32"}],"stateMutability":"view"},{"type":"function","name":"renounceOwnership","inputs":[],"outputs":[],"stateMutability":"nonpayable"},{"type":"function","name":"setOracle","inputs":[{"name":"_oracle","type":"address","internalType":"address"}],"outputs":[],"stateMutability":"nonpayable"},{"type":"function","name":"setTreasury","inputs":[{"name":"_treasury","type":"address","internalType":"address"}],"outputs":[],"stateMutability":"nonpayable"},{"type":"function","name":"settleBattle","inputs":[{"name":"battleId","type":"bytes32","internalType":"bytes32"},{"name":"winnerId","type":"uint256","internalType":"uint256"}],"outputs":[],"stateMutability":"nonpayable"},{"type":"function","name":"sponsorAgent","inputs":[{"name":"battleId","type":"bytes32","internalType":"bytes32"},{"name":"agentId","type":"uint256","internalType":"uint256"},{"name":"message","type":"string","internalType":"string"}],"outputs":[],"stateMutability":"payable"},{"type":"function","name":"transferOwnership","inputs":[{"name":"newOwner","type":"address","internalType":"address"}],"outputs":[],"stateMutability":"nonpayable"},{"type":"function","name":"treasury","inputs":[],"outputs":[{"name":"","type":"address","internalType":"address"}],"stateMutability":"view"},{"type":"function","name":"upgradeToAndCall","inputs":[{"name":"newImplementation","type":"address","internalType":"address"},{"name":"data","type":"bytes","internalType":"bytes"}],"outputs":[],"stateMutability":"payable"},{"type":"event","name":"BattleCreated","inputs":[{"name":"battleId","type":"bytes32","indexed":true,"internalType":"bytes32"}],"anonymous":false},{"type":"event","name":"BattleSettled","inputs":[{"name":"battleId","type":"bytes32","indexed":true,"internalType":"bytes32"},{"name":"winnerId","type":"uint256","indexed":false,"internalType":"uint256"},{"name":"totalPool","type":"uint256","indexed":false,"internalType":"uint256"}],"anonymous":false},{"type":"event","name":"BetPlaced","inputs":[{"name":"battleId","type":"bytes32","indexed":true,"internalType":"bytes32"},{"name":"user","type":"address","indexed":true,"internalType":"address"},{"name":"agentId","type":"uint256","indexed":false,"internalType":"uint256"},{"name":"amount","type":"uint256","indexed":false,"internalType":"uint256"}],"anonymous":false},{"type":"event","name":"Initialized","inputs":[{"name":"version","type":"uint64","indexed":false,"internalType":"uint64"}],"anonymous":false},{"type":"event","name":"JackpotAccumulated","inputs":[{"name":"battleId","type":"bytes32","indexed":true,"internalType":"bytes32"},{"name":"amount","type":"uint256","indexed":false,"internalType":"uint256"},{"name":"newJackpotPool","type":"uint256","indexed":false,"internalType":"uint256"}],"anonymous":false},{"type":"event","name":"OwnershipTransferred","inputs":[{"name":"previousOwner","type":"address","indexed":true,"internalType":"address"},{"name":"newOwner","type":"address","indexed":true,"internalType":"address"}],"anonymous":false},{"type":"event","name":"PrizeDistributed","inputs":[{"name":"battleId","type":"bytes32","indexed":true,"internalType":"bytes32"},{"name":"user","type":"address","indexed":true,"internalType":"address"},{"name":"amount","type":"uint256","indexed":false,"internalType":"uint256"}],"anonymous":false},{"type":"event","name":"SponsorBurned","inputs":[{"name":"battleId","type":"bytes32","indexed":true,"internalType":"bytes32"},{"name":"agentId","type":"uint256","indexed":true,"internalType":"uint256"},{"name":"sponsor","type":"address","indexed":true,"internalType":"address"},{"name":"amount","type":"uint256","indexed":false,"internalType":"uint256"}],"anonymous":false},{"type":"event","name":"SponsorshipSent","inputs":[{"name":"battleId","type":"bytes32","indexed":true,"internalType":"bytes32"},{"name":"agentId","type":"uint256","indexed":true,"internalType":"uint256"},{"name":"user","type":"address","indexed":true,"internalType":"address"},{"name":"amount","type":"uint256","indexed":false,"internalType":"uint256"},{"name":"message","type":"string","indexed":false,"internalType":"string"}],"anonymous":false},{"type":"event","name":"TopBettorBonusAwarded","inputs":[{"name":"battleId","type":"bytes32","indexed":true,"internalType":"bytes32"},{"name":"topBettor","type":"address","indexed":true,"internalType":"address"},{"name":"bonus","type":"uint256","indexed":false,"internalType":"uint256"}],"anonymous":false},{"type":"event","name":"Upgraded","inputs":[{"name":"implementation","type":"address","indexed":true,"internalType":"address"}],"anonymous":false},{"type":"error","name":"AddressEmptyCode","inputs":[{"name":"target","type":"address","internalType":"address"}]},{"type":"error","name":"AlreadyClaimed","inputs":[]},{"type":"error","name":"BattleAlreadyExists","inputs":[]},{"type":"error","name":"BattleAlreadySettled","inputs":[]},{"type":"error","name":"BattleDoesNotExist","inputs":[]},{"type":"error","name":"BattleIsResolving","inputs":[]},{"type":"error","name":"ERC1967InvalidImplementation","inputs":[{"name":"implementation","type":"address","internalType":"address"}]},{"type":"error","name":"ERC1967NonPayable","inputs":[]},{"type":"error","name":"FailedCall","inputs":[]},{"type":"error","name":"InvalidInitialization","inputs":[]},{"type":"error","name":"InvalidWinner","inputs":[]},{"type":"error","name":"NotInitializing","inputs":[]},{"type":"error","name":"NothingToClaim","inputs":[]},{"type":"error","name":"OnlyOracle","inputs":[]},{"type":"error","name":"OwnableInvalidOwner","inputs":[{"name":"owner","type":"address","internalType":"address"}]},{"type":"error","name":"OwnableUnauthorizedAccount","inputs":[{"name":"account","type":"address","internalType":"address"}]},{"type":"error","name":"ReentrancyGuardReentrantCall","inputs":[]},{"type":"error","name":"TransferFailed","inputs":[]},{"type":"error","name":"UUPSUnauthorizedCallContext","inputs":[]},{"type":"error","name":"UUPSUnsupportedProxiableUUID","inputs":[{"name":"slot","type":"bytes32","internalType":"bytes32"}]},{"type":"error","name":"ZeroAddress","inputs":[]},{"type":"error","name":"ZeroAmount","inputs":[]}],"bytecode":{"object":"0x60a060405230608052348015610013575f80fd5b5060017f9b779b17422d0df92223018b32b4d1fa46e071723d6817e2486d003becc55f0055610040610045565b6100f7565b7ff0c57e16840df040f15088dc2f81fe391c3923bec73e23a9662efc9c229c6a00805468010000000000000000900460ff16156100955760405163f92ee8a960e01b815260040160405180910390fd5b80546001600160401b03908116146100f45780546001600160401b0319166001600160401b0390811782556040519081527fc7f505b2f371ae2175ee4913f4499e1f2633a7b5936321eed1cdaeb6115181d29060200160405180910390a15b50565b608051611e7a61011d5f395f818161131d0152818161134601526114850152611e7a5ff3fe6080604052600436106101d0575f3560e01c80638da5cb5b116100fd578063b0fc944011610092578063f0f4426011610062578063f0f44260146105e6578063f2fde38b14610605578063f3118d8e14610624578063fccc281314610637575f80fd5b8063b0fc94401461053b578063b3db7fc51461055a578063dfcae62214610588578063e1a45218146105d1575f80fd5b8063abdbd806116100cd578063abdbd8061461049e578063ad3cb1cc146104ca578063ae1fec9014610507578063b05b32ae14610526575f80fd5b80638da5cb5b14610439578063937d4c5f146104755780639f86b66314610489578063a37a9fc014610251575f80fd5b806365bc7c951161017357806378547e6c1161014357806378547e6c146103385780637adbf973146103c65780637dc0d1d0146103e55780637fd7b7c614610403575f80fd5b806365bc7c95146102c45780636a37ea6c146102f0578063701945641461030f578063715018a614610324575f80fd5b80634c25d197116101ae5780634c25d197146102515780634f1ef2861461026657806352d1902d1461027957806361d027b31461028d575f80fd5b8063415a9429146101d45780634499f5b3146101e9578063485cc95514610232575b5f80fd5b6101e76101e23660046119f2565b61064c565b005b3480156101f4575f80fd5b5061021f610203366004611a86565b600660209081525f928352604080842090915290825290205481565b6040519081526020015b60405180910390f35b34801561023d575f80fd5b506101e761024c366004611ab0565b61078f565b34801561025c575f80fd5b5061021f6101f481565b6101e7610274366004611aec565b610906565b348015610284575f80fd5b5061021f610925565b348015610298575f80fd5b506001546102ac906001600160a01b031681565b6040516001600160a01b039091168152602001610229565b3480156102cf575f80fd5b506102e36102de366004611ba8565b610940565b6040516102299190611c20565b3480156102fb575f80fd5b506101e761030a366004611c63565b6109f3565b34801561031a575f80fd5b5061021f61012c81565b34801561032f575f80fd5b506101e7610ceb565b348015610343575f80fd5b50610391610352366004611c83565b600360208190525f9182526040909120805460018201546002830154929093015460ff8083169461010084048216946201000090940490911692909186565b6040805196151587529415156020870152921515938501939093526060840152608083019190915260a082015260c001610229565b3480156103d1575f80fd5b506101e76103e0366004611c9a565b610cfe565b3480156103f0575f80fd5b505f546102ac906001600160a01b031681565b34801561040e575f80fd5b5061021f61041d366004611c63565b600460209081525f928352604080842090915290825290205481565b348015610444575f80fd5b507f9016d09d72d40fdae2fd8ceac6b6234c7706214fd39c1cd1e609a0528c199300546001600160a01b03166102ac565b348015610480575f80fd5b5061021f60c881565b348015610494575f80fd5b5061021f61213481565b3480156104a9575f80fd5b506104bd6104b8366004611a86565b610d4e565b6040516102299190611cba565b3480156104d5575f80fd5b506104fa604051806040016040528060058152602001640352e302e360dc1b81525081565b6040516102299190611d08565b348015610512575f80fd5b506101e7610521366004611c83565b610ddc565b348015610531575f80fd5b5061021f60025481565b348015610546575f80fd5b506101e7610555366004611c83565b610e77565b348015610565575f80fd5b5061021f610574366004611c83565b5f9081526003602052604090206002015490565b348015610593575f80fd5b506105c16105a2366004611a86565b600760209081525f928352604080842090915290825290205460ff1681565b6040519015158152602001610229565b3480156105dc575f80fd5b5061021f61271081565b3480156105f1575f80fd5b506101e7610600366004611c9a565b611003565b348015610610575f80fd5b506101e761061f366004611c9a565b611054565b6101e7610632366004611c63565b611093565b348015610642575f80fd5b506102ac61dead81565b5f848152600360205260409020805485919060ff1661067e57604051639b1a599f60e01b815260040160405180910390fd5b8054610100900460ff16156106a657604051631783a9ef60e01b815260040160405180910390fd5b805462010000900460ff16156106cf57604051630389fbd960e11b815260040160405180910390fd5b345f036106ef57604051631f2a200560e01b815260040160405180910390fd5b6106fb61dead34611264565b336001600160a01b031685877fe087e8124b762c9b2bfdccfd7587a35bba2df00459dc4d8dfb6bf2e439a949fc34888860405161073a93929190611d54565b60405180910390a4336001600160a01b031685877fc24bcc24847e064f572ea69edcbd53e779f95b309a725988bf0823d3c11f57a53460405161077f91815260200190565b60405180910390a4505050505050565b5f6107986112d9565b805490915060ff600160401b820416159067ffffffffffffffff165f811580156107bf5750825b90505f8267ffffffffffffffff1660011480156107db5750303b155b9050811580156107e9575080155b156108075760405163f92ee8a960e01b815260040160405180910390fd5b845467ffffffffffffffff19166001178555831561083157845460ff60401b1916600160401b1785555b6001600160a01b0387166108585760405163d92e233d60e01b815260040160405180910390fd5b6001600160a01b03861661087f5760405163d92e233d60e01b815260040160405180910390fd5b61088833611301565b5f80546001600160a01b03808a166001600160a01b031992831617909255600180549289169290911691909117905583156108fd57845460ff60401b19168555604051600181527fc7f505b2f371ae2175ee4913f4499e1f2633a7b5936321eed1cdaeb6115181d29060200160405180910390a15b50505050505050565b61090e611312565b610917826113b6565b61092182826113be565b5050565b5f61092e61147a565b505f80516020611e2583398151915290565b60608167ffffffffffffffff81111561095b5761095b611ad8565b604051908082528060200260200182016040528015610984578160200160208202803683370190505b5090505f5b828110156109eb575f858152600460205260408120908585848181106109b1576109b1611d89565b9050602002013581526020019081526020015f20548282815181106109d8576109d8611d89565b6020908102919091010152600101610989565b509392505050565b5f546001600160a01b03163314610a1d576040516380fee10560e01b815260040160405180910390fd5b5f82815260036020526040902054829060ff16610a4d57604051639b1a599f60e01b815260040160405180910390fd5b5f838152600360205260409020805462010000900460ff1615610a8357604051630389fbd960e11b815260040160405180910390fd5b8054610100900460ff1615610aab57604051631783a9ef60e01b815260040160405180910390fd5b805461ff0019166101001781556001810183905560028101548015610c9a575f612710610ada6101f484611db1565b610ae49190611dc8565b90505f612710610af66101f485611db1565b610b009190611dc8565b90505f612710610b1261012c86611db1565b610b1c9190611dc8565b90505f612710610b2d60c887611db1565b610b379190611dc8565b90505f818385610b47888a611de7565b610b519190611de7565b610b5b9190611de7565b610b659190611de7565b6002549091508015610b7e57610b7b8183611dfa565b91505b600284905560408051858152602081018690528c917f7fc3b9fa90ace6db33f9d0c1c7602b675f82384a0381cb0cc6f3c74de1b36a77910160405180910390a260038801829055610bd08b8b846114c3565b5f610bdb8c8c611592565b90506001600160a01b03811615801590610bf457505f84115b15610c70575f8c81526006602090815260408083206001600160a01b038516845290915281208054869290610c2a908490611dfa565b90915550506040518481526001600160a01b038216908d907fe38d9b7b55d270dc1254aaf5a13f6f79f6c2233446ef53be4e0cae4ebf17c8449060200160405180910390a35b600154610c86906001600160a01b031688611264565b610c9261dead87611264565b505050505050505b815462ffff00191662010000178255604080518581526020810183905286917fc47d8c8e24e7afd580c4d99330abfb83338653f3eb45494b2b4daa7589c54a94910160405180910390a25050505050565b610cf361162f565b610cfc5f61168a565b565b610d0661162f565b6001600160a01b038116610d2d5760405163d92e233d60e01b815260040160405180910390fd5b5f80546001600160a01b0319166001600160a01b0392909216919091179055565b5f8281526005602090815260408083206001600160a01b03851684528252808320805482518185028101850190935280835260609492939192909184015b82821015610dcf578382905f5260205f2090600202016040518060400160405290815f820154815260200160018201548152505081526020019060010190610d8c565b5050505090505b92915050565b5f546001600160a01b03163314610e06576040516380fee10560e01b815260040160405180910390fd5b5f8181526003602052604090205460ff1615610e35576040516320fd51ad60e11b815260040160405180910390fd5b5f81815260036020526040808220805460ff191660011790555182917f78de32f93b7fc7508a6618419edcccf5ffc79c48bc0668d4f9663638fee30cdb91a250565b610e7f6116fa565b5f81815260036020526040902054819060ff16610eaf57604051639b1a599f60e01b815260040160405180910390fd5b5f828152600360205260409020805462010000900460ff16610ee457604051639b1a599f60e01b815260040160405180910390fd5b5f83815260076020908152604080832033845290915290205460ff1615610f1e57604051630c8d9eab60e31b815260040160405180910390fd5b5f83815260066020908152604080832033845290915281205490819003610f58576040516312d37ee560e31b815260040160405180910390fd5b5f84815260076020908152604080832033808552908352818420805460ff1916600117905587845260068352818420818552909252822091909155610f9d9082611264565b604051818152339085907f329f0475be6859750ba57515c5f7ee2d9d6a7f373b686174431f28d354305db69060200160405180910390a350505061100060017f9b779b17422d0df92223018b32b4d1fa46e071723d6817e2486d003becc55f0055565b50565b61100b61162f565b6001600160a01b0381166110325760405163d92e233d60e01b815260040160405180910390fd5b600180546001600160a01b0319166001600160a01b0392909216919091179055565b61105c61162f565b6001600160a01b03811661108a57604051631e4fbdf760e01b81525f60048201526024015b60405180910390fd5b6110008161168a565b5f828152600360205260409020805483919060ff166110c557604051639b1a599f60e01b815260040160405180910390fd5b8054610100900460ff16156110ed57604051631783a9ef60e01b815260040160405180910390fd5b805462010000900460ff161561111657604051630389fbd960e11b815260040160405180910390fd5b345f0361113657604051631f2a200560e01b815260040160405180910390fd5b5f84815260036020526040812060028101805491923492611158908490611dfa565b90915550505f85815260046020908152604080832087845290915281208054349290611185908490611dfa565b909155506111969050853386611728565b5f036111d2575f85815260086020908152604080832087845282528220805460018101825590835291200180546001600160a01b031916331790555b5f85815260056020908152604080832033808552908352818420825180840184528981523481860181815283546001808201865594895297879020925160029098029092019687559051959091019490945581518881529283019390935287917fc9621b1db612fa52c8213099eb7c450b407922963a8c63ee6bfe963404f45997910160405180910390a35050505050565b5f826001600160a01b0316826040515f6040518083038185875af1925050503d805f81146112ad576040519150601f19603f3d011682016040523d82523d5f602084013e6112b2565b606091505b50509050806112d4576040516312171d8360e31b815260040160405180910390fd5b505050565b5f807ff0c57e16840df040f15088dc2f81fe391c3923bec73e23a9662efc9c229c6a00610dd6565b6113096117bc565b611000816117e1565b306001600160a01b037f000000000000000000000000000000000000000000000000000000000000000016148061139857507f00000000000000000000000000000000000000000000000000000000000000006001600160a01b031661138c5f80516020611e25833981519152546001600160a01b031690565b6001600160a01b031614155b15610cfc5760405163703e46dd60e11b815260040160405180910390fd5b61100061162f565b816001600160a01b03166352d1902d6040518163ffffffff1660e01b8152600401602060405180830381865afa925050508015611418575060408051601f3d908101601f1916820190925261141591810190611e0d565b60015b61144057604051634c9c8ce360e01b81526001600160a01b0383166004820152602401611081565b5f80516020611e25833981519152811461147057604051632a87526960e21b815260048101829052602401611081565b6112d483836117e9565b306001600160a01b037f00000000000000000000000000000000000000000000000000000000000000001614610cfc5760405163703e46dd60e11b815260040160405180910390fd5b5f838152600460209081526040808320858452909152812054908190036114ea5750505050565b5f8481526008602090815260408083208684529091528120905b815481101561158a575f82828154811061152057611520611d89565b5f9182526020822001546001600160a01b03169150611540888389611728565b9050801561158057846115538288611db1565b61155d9190611dc8565b5f8981526006602090815260408083206001600160a01b03871684529091529020555b5050600101611504565b505050505050565b5f828152600860209081526040808320848452909152812081805b8254811015611626575f6115e7878584815481106115cd576115cd611d89565b5f918252602090912001546001600160a01b031688611728565b90508281111561161d5780925083828154811061160657611606611d89565b5f918252602090912001546001600160a01b031694505b506001016115ad565b50505092915050565b336116617f9016d09d72d40fdae2fd8ceac6b6234c7706214fd39c1cd1e609a0528c199300546001600160a01b031690565b6001600160a01b031614610cfc5760405163118cdaa760e01b8152336004820152602401611081565b7f9016d09d72d40fdae2fd8ceac6b6234c7706214fd39c1cd1e609a0528c19930080546001600160a01b031981166001600160a01b03848116918217845560405192169182907f8be0079c531659141344cd1fd0a4f28419497f9722a3daafe3b4186f6b6457e0905f90a3505050565b61170261183e565b60027f9b779b17422d0df92223018b32b4d1fa46e071723d6817e2486d003becc55f0055565b5f8381526005602090815260408083206001600160a01b03861684529091528120815b81548110156117b3578382828154811061176757611767611d89565b905f5260205f2090600202015f0154036117ab5781818154811061178d5761178d611d89565b905f5260205f20906002020160010154836117a89190611dfa565b92505b60010161174b565b50509392505050565b6117c4611880565b610cfc57604051631afcd79f60e31b815260040160405180910390fd5b61105c6117bc565b6117f282611899565b6040516001600160a01b038316907fbc7cd75a20ee27fd9adebab32041f755214dbc6bffa90cc0225b39da2e5c2d3b905f90a2805115611836576112d482826118fc565b61092161199c565b7f9b779b17422d0df92223018b32b4d1fa46e071723d6817e2486d003becc55f0054600203610cfc57604051633ee5aeb560e01b815260040160405180910390fd5b5f6118896112d9565b54600160401b900460ff16919050565b806001600160a01b03163b5f036118ce57604051634c9c8ce360e01b81526001600160a01b0382166004820152602401611081565b5f80516020611e2583398151915280546001600160a01b0319166001600160a01b0392909216919091179055565b60605f61190984846119bb565b905080801561192a57505f3d118061192a57505f846001600160a01b03163b115b1561193f576119376119ce565b915050610dd6565b801561196957604051639996b31560e01b81526001600160a01b0385166004820152602401611081565b3d1561197c576119776119e7565b611995565b60405163d6bda27560e01b815260040160405180910390fd5b5092915050565b3415610cfc5760405163b398979f60e01b815260040160405180910390fd5b5f805f835160208501865af49392505050565b6040513d81523d5f602083013e3d602001810160405290565b6040513d5f823e3d81fd5b5f805f8060608587031215611a05575f80fd5b8435935060208501359250604085013567ffffffffffffffff80821115611a2a575f80fd5b818701915087601f830112611a3d575f80fd5b813581811115611a4b575f80fd5b886020828501011115611a5c575f80fd5b95989497505060200194505050565b80356001600160a01b0381168114611a81575f80fd5b919050565b5f8060408385031215611a97575f80fd5b82359150611aa760208401611a6b565b90509250929050565b5f8060408385031215611ac1575f80fd5b611aca83611a6b565b9150611aa760208401611a6b565b634e487b7160e01b5f52604160045260245ffd5b5f8060408385031215611afd575f80fd5b611b0683611a6b565b9150602083013567ffffffffffffffff80821115611b22575f80fd5b818501915085601f830112611b35575f80fd5b813581811115611b4757611b47611ad8565b604051601f8201601f19908116603f01168101908382118183101715611b6f57611b6f611ad8565b81604052828152886020848701011115611b87575f80fd5b826020860160208301375f6020848301015280955050505050509250929050565b5f805f60408486031215611bba575f80fd5b83359250602084013567ffffffffffffffff80821115611bd8575f80fd5b818601915086601f830112611beb575f80fd5b813581811115611bf9575f80fd5b8760208260051b8501011115611c0d575f80fd5b6020830194508093505050509250925092565b602080825282518282018190525f9190848201906040850190845b81811015611c5757835183529284019291840191600101611c3b565b50909695505050505050565b5f8060408385031215611c74575f80fd5b50508035926020909101359150565b5f60208284031215611c93575f80fd5b5035919050565b5f60208284031215611caa575f80fd5b611cb382611a6b565b9392505050565b602080825282518282018190525f919060409081850190868401855b82811015611cfb57815180518552860151868501529284019290850190600101611cd6565b5091979650505050505050565b5f602080835283518060208501525f5b81811015611d3457858101830151858201604001528201611d18565b505f604082860101526040601f19601f8301168501019250505092915050565b83815260406020820152816040820152818360608301375f818301606090810191909152601f909201601f1916010192915050565b634e487b7160e01b5f52603260045260245ffd5b634e487b7160e01b5f52601160045260245ffd5b8082028115828204841417610dd657610dd6611d9d565b5f82611de257634e487b7160e01b5f52601260045260245ffd5b500490565b81810381811115610dd657610dd6611d9d565b80820180821115610dd657610dd6611d9d565b5f60208284031215611e1d575f80fd5b505191905056fe360894a13ba1a3210667c828492db98dca3e2076cc3735a920a3ca505d382bbca2646970667358221220c5cefb769991dd3f4c570491cb1a160a97a6cee07c9e85556854e8a25162ca7f64736f6c63430008180033","linkReferences":{}},"methodIdentifiers":{"BPS_DENOMINATOR()":"e1a45218","BURN_ADDRESS()":"fccc2813","BURN_BPS()":"a37a9fc0","JACKPOT_BPS()":"70194564","TOP_BETTOR_BPS()":"937d4c5f","TREASURY_BPS()":"4c25d197","UPGRADE_INTERFACE_VERSION()":"ad3cb1cc","WINNERS_BPS()":"9f86b663","agentPools(bytes32,uint256)":"7fd7b7c6","battles(bytes32)":"78547e6c","claimPrize(bytes32)":"b0fc9440","claimable(bytes32,address)":"4499f5b3","claimed(bytes32,address)":"dfcae622","createBattle(bytes32)":"ae1fec90","getBattlePool(bytes32)":"b3db7fc5","getOdds(bytes32,uint256[])":"65bc7c95","getUserBets(bytes32,address)":"abdbd806","initialize(address,address)":"485cc955","jackpotPool()":"b05b32ae","oracle()":"7dc0d1d0","owner()":"8da5cb5b","placeBet(bytes32,uint256)":"f3118d8e","proxiableUUID()":"52d1902d","renounceOwnership()":"715018a6","setOracle(address)":"7adbf973","setTreasury(address)":"f0f44260","settleBattle(bytes32,uint256)":"6a37ea6c","sponsorAgent(bytes32,uint256,string)":"415a9429","transferOwnership(address)":"f2fde38b","treasury()":"61d027b3","upgradeToAndCall(address,bytes)":"4f1ef286"},"id":50}