{"abi":[{"type":"constructor","inputs":[{"name":"_oracle","type":"address","internalType":"address"}],"stateMutability":"nonpayable"},{"type":"receive","stateMutability":"payable"},{"type":"function","name":"BASE_PRICE","inputs":[],"outputs":[{"name":"","type":"uint256","internalType":"uint256"}],"stateMutability":"view"},{"type":"function","name":"BURN_ADDRESS","inputs":[],"outputs":[{"name":"","type":"address","internalType":"address"}],"stateMutability":"view"},{"type":"function","name":"GAMBLER","inputs":[],"outputs":[{"name":"","type":"uint8","internalType":"uint8"}],"stateMutability":"view"},{"type":"function","name":"MIN_VOTING_PERIOD","inputs":[],"outputs":[{"name":"","type":"uint256","internalType":"uint256"}],"stateMutability":"view"},{"type":"function","name":"NUM_CLASSES","inputs":[],"outputs":[{"name":"","type":"uint8","internalType":"uint8"}],"stateMutability":"view"},{"type":"function","name":"PARASITE","inputs":[],"outputs":[{"name":"","type":"uint8","internalType":"uint8"}],"stateMutability":"view"},{"type":"function","name":"PRICE_INCREMENT","inputs":[],"outputs":[{"name":"","type":"uint256","internalType":"uint256"}],"stateMutability":"view"},{"type":"function","name":"SURVIVOR","inputs":[],"outputs":[{"name":"","type":"uint8","internalType":"uint8"}],"stateMutability":"view"},{"type":"function","name":"TRADER","inputs":[],"outputs":[{"name":"","type":"uint8","internalType":"uint8"}],"stateMutability":"view"},{"type":"function","name":"WARRIOR","inputs":[],"outputs":[{"name":"","type":"uint8","internalType":"uint8"}],"stateMutability":"view"},{"type":"function","name":"buyTokens","inputs":[{"name":"classId","type":"uint8","internalType":"uint8"},{"name":"amount","type":"uint256","internalType":"uint256"}],"outputs":[],"stateMutability":"payable"},{"type":"function","name":"cancelProposal","inputs":[{"name":"proposalId","type":"uint256","internalType":"uint256"}],"outputs":[],"stateMutability":"nonpayable"},{"type":"function","name":"claimReward","inputs":[{"name":"epochId","type":"uint256","internalType":"uint256"}],"outputs":[],"stateMutability":"nonpayable"},{"type":"function","name":"classRewardEpochIds","inputs":[{"name":"","type":"uint8","internalType":"uint8"},{"name":"","type":"uint256","internalType":"uint256"}],"outputs":[{"name":"","type":"uint256","internalType":"uint256"}],"stateMutability":"view"},{"type":"function","name":"classRewardPools","inputs":[{"name":"","type":"uint8","internalType":"uint8"}],"outputs":[{"name":"","type":"uint256","internalType":"uint256"}],"stateMutability":"view"},{"type":"function","name":"classSponsorshipBurns","inputs":[{"name":"","type":"uint8","internalType":"uint8"}],"outputs":[{"name":"","type":"uint256","internalType":"uint256"}],"stateMutability":"view"},{"type":"function","name":"classStrategies","inputs":[{"name":"","type":"uint8","internalType":"uint8"}],"outputs":[{"name":"aggressionLevel","type":"uint8","internalType":"uint8"},{"name":"riskTolerance","type":"uint8","internalType":"uint8"},{"name":"defensePreference","type":"uint8","internalType":"uint8"}],"stateMutability":"view"},{"type":"function","name":"classTokens","inputs":[{"name":"","type":"uint256","internalType":"uint256"}],"outputs":[{"name":"","type":"address","internalType":"contract HungernadsClassToken"}],"stateMutability":"view"},{"type":"function","name":"classTotalEarnings","inputs":[{"name":"","type":"uint8","internalType":"uint8"}],"outputs":[{"name":"","type":"uint256","internalType":"uint256"}],"stateMutability":"view"},{"type":"function","name":"classWins","inputs":[{"name":"","type":"uint8","internalType":"uint8"}],"outputs":[{"name":"","type":"uint256","internalType":"uint256"}],"stateMutability":"view"},{"type":"function","name":"createProposal","inputs":[{"name":"classId","type":"uint8","internalType":"uint8"},{"name":"params","type":"tuple","internalType":"struct HungernadsClassTokenManager.StrategyParams","components":[{"name":"aggressionLevel","type":"uint8","internalType":"uint8"},{"name":"riskTolerance","type":"uint8","internalType":"uint8"},{"name":"defensePreference","type":"uint8","internalType":"uint8"}]},{"name":"votingDuration","type":"uint256","internalType":"uint256"}],"outputs":[{"name":"","type":"uint256","internalType":"uint256"}],"stateMutability":"nonpayable"},{"type":"function","name":"executeProposal","inputs":[{"name":"proposalId","type":"uint256","internalType":"uint256"}],"outputs":[],"stateMutability":"nonpayable"},{"type":"function","name":"getBuyCost","inputs":[{"name":"classId","type":"uint8","internalType":"uint8"},{"name":"amount","type":"uint256","internalType":"uint256"}],"outputs":[{"name":"","type":"uint256","internalType":"uint256"}],"stateMutability":"view"},{"type":"function","name":"getClaimableReward","inputs":[{"name":"epochId","type":"uint256","internalType":"uint256"},{"name":"user","type":"address","internalType":"address"}],"outputs":[{"name":"","type":"uint256","internalType":"uint256"}],"stateMutability":"view"},{"type":"function","name":"getClassRewardEpochIds","inputs":[{"name":"classId","type":"uint8","internalType":"uint8"}],"outputs":[{"name":"","type":"uint256[]","internalType":"uint256[]"}],"stateMutability":"view"},{"type":"function","name":"getClassStats","inputs":[{"name":"classId","type":"uint8","internalType":"uint8"}],"outputs":[{"name":"wins","type":"uint256","internalType":"uint256"},{"name":"totalEarnings","type":"uint256","internalType":"uint256"},{"name":"currentRewardPool","type":"uint256","internalType":"uint256"},{"name":"totalSponsorshipBurns","type":"uint256","internalType":"uint256"},{"name":"tokenSupply","type":"uint256","internalType":"uint256"}],"stateMutability":"view"},{"type":"function","name":"getClassStrategy","inputs":[{"name":"classId","type":"uint8","internalType":"uint8"}],"outputs":[{"name":"","type":"tuple","internalType":"struct HungernadsClassTokenManager.StrategyParams","components":[{"name":"aggressionLevel","type":"uint8","internalType":"uint8"},{"name":"riskTolerance","type":"uint8","internalType":"uint8"},{"name":"defensePreference","type":"uint8","internalType":"uint8"}]}],"stateMutability":"view"},{"type":"function","name":"getClassToken","inputs":[{"name":"classId","type":"uint8","internalType":"uint8"}],"outputs":[{"name":"","type":"address","internalType":"address"}],"stateMutability":"view"},{"type":"function","name":"getCurrentPrice","inputs":[{"name":"classId","type":"uint8","internalType":"uint8"}],"outputs":[{"name":"","type":"uint256","internalType":"uint256"}],"stateMutability":"view"},{"type":"function","name":"getProposal","inputs":[{"name":"proposalId","type":"uint256","internalType":"uint256"}],"outputs":[{"name":"","type":"tuple","internalType":"struct HungernadsClassTokenManager.Proposal","components":[{"name":"id","type":"uint256","internalType":"uint256"},{"name":"classId","type":"uint8","internalType":"uint8"},{"name":"proposer","type":"address","internalType":"address"},{"name":"params","type":"tuple","internalType":"struct HungernadsClassTokenManager.StrategyParams","components":[{"name":"aggressionLevel","type":"uint8","internalType":"uint8"},{"name":"riskTolerance","type":"uint8","internalType":"uint8"},{"name":"defensePreference","type":"uint8","internalType":"uint8"}]},{"name":"votesFor","type":"uint256","internalType":"uint256"},{"name":"votesAgainst","type":"uint256","internalType":"uint256"},{"name":"createdAt","type":"uint256","internalType":"uint256"},{"name":"votingEndsAt","type":"uint256","internalType":"uint256"},{"name":"executed","type":"bool","internalType":"bool"},{"name":"canceled","type":"bool","internalType":"bool"}]}],"stateMutability":"view"},{"type":"function","name":"getRewardEpoch","inputs":[{"name":"epochId","type":"uint256","internalType":"uint256"}],"outputs":[{"name":"","type":"tuple","internalType":"struct HungernadsClassTokenManager.RewardEpoch","components":[{"name":"epochId","type":"uint256","internalType":"uint256"},{"name":"classId","type":"uint8","internalType":"uint8"},{"name":"totalReward","type":"uint256","internalType":"uint256"},{"name":"totalSupplyAtSnapshot","type":"uint256","internalType":"uint256"},{"name":"claimedAmount","type":"uint256","internalType":"uint256"},{"name":"createdAt","type":"uint256","internalType":"uint256"}]}],"stateMutability":"view"},{"type":"function","name":"hasVoted","inputs":[{"name":"","type":"uint256","internalType":"uint256"},{"name":"","type":"address","internalType":"address"}],"outputs":[{"name":"","type":"bool","internalType":"bool"}],"stateMutability":"view"},{"type":"function","name":"initialize","inputs":[],"outputs":[],"stateMutability":"nonpayable"},{"type":"function","name":"initialized","inputs":[],"outputs":[{"name":"","type":"bool","internalType":"bool"}],"stateMutability":"view"},{"type":"function","name":"nextProposalId","inputs":[],"outputs":[{"name":"","type":"uint256","internalType":"uint256"}],"stateMutability":"view"},{"type":"function","name":"nextRewardEpochId","inputs":[],"outputs":[{"name":"","type":"uint256","internalType":"uint256"}],"stateMutability":"view"},{"type":"function","name":"oracle","inputs":[],"outputs":[{"name":"","type":"address","internalType":"address"}],"stateMutability":"view"},{"type":"function","name":"owner","inputs":[],"outputs":[{"name":"","type":"address","internalType":"address"}],"stateMutability":"view"},{"type":"function","name":"proposals","inputs":[{"name":"","type":"uint256","internalType":"uint256"}],"outputs":[{"name":"id","type":"uint256","internalType":"uint256"},{"name":"classId","type":"uint8","internalType":"uint8"},{"name":"proposer","type":"address","internalType":"address"},{"name":"params","type":"tuple","internalType":"struct HungernadsClassTokenManager.StrategyParams","components":[{"name":"aggressionLevel","type":"uint8","internalType":"uint8"},{"name":"riskTolerance","type":"uint8","internalType":"uint8"},{"name":"defensePreference","type":"uint8","internalType":"uint8"}]},{"name":"votesFor","type":"uint256","internalType":"uint256"},{"name":"votesAgainst","type":"uint256","internalType":"uint256"},{"name":"createdAt","type":"uint256","internalType":"uint256"},{"name":"votingEndsAt","type":"uint256","internalType":"uint256"},{"name":"executed","type":"bool","internalType":"bool"},{"name":"canceled","type":"bool","internalType":"bool"}],"stateMutability":"view"},{"type":"function","name":"recordClassWin","inputs":[{"name":"classId","type":"uint8","internalType":"uint8"},{"name":"battleId","type":"bytes32","internalType":"bytes32"}],"outputs":[],"stateMutability":"payable"},{"type":"function","name":"renounceOwnership","inputs":[],"outputs":[],"stateMutability":"nonpayable"},{"type":"function","name":"rewardClaimed","inputs":[{"name":"","type":"uint256","internalType":"uint256"},{"name":"","type":"address","internalType":"address"}],"outputs":[{"name":"","type":"bool","internalType":"bool"}],"stateMutability":"view"},{"type":"function","name":"rewardEpochs","inputs":[{"name":"","type":"uint256","internalType":"uint256"}],"outputs":[{"name":"epochId","type":"uint256","internalType":"uint256"},{"name":"classId","type":"uint8","internalType":"uint8"},{"name":"totalReward","type":"uint256","internalType":"uint256"},{"name":"totalSupplyAtSnapshot","type":"uint256","internalType":"uint256"},{"name":"claimedAmount","type":"uint256","internalType":"uint256"},{"name":"createdAt","type":"uint256","internalType":"uint256"}],"stateMutability":"view"},{"type":"function","name":"setOracle","inputs":[{"name":"_oracle","type":"address","internalType":"address"}],"outputs":[],"stateMutability":"nonpayable"},{"type":"function","name":"sponsorClass","inputs":[{"name":"classId","type":"uint8","internalType":"uint8"},{"name":"tokenAmount","type":"uint256","internalType":"uint256"},{"name":"message","type":"string","internalType":"string"}],"outputs":[],"stateMutability":"nonpayable"},{"type":"function","name":"transferOwnership","inputs":[{"name":"newOwner","type":"address","internalType":"address"}],"outputs":[],"stateMutability":"nonpayable"},{"type":"function","name":"vote","inputs":[{"name":"proposalId","type":"uint256","internalType":"uint256"},{"name":"support","type":"bool","internalType":"bool"}],"outputs":[],"stateMutability":"nonpayable"},{"type":"event","name":"BattleWinRecorded","inputs":[{"name":"classId","type":"uint8","indexed":true,"internalType":"uint8"},{"name":"battleId","type":"bytes32","indexed":true,"internalType":"bytes32"},{"name":"reward","type":"uint256","indexed":false,"internalType":"uint256"}],"anonymous":false},{"type":"event","name":"ClassRewardClaimed","inputs":[{"name":"classId","type":"uint8","indexed":true,"internalType":"uint8"},{"name":"epochId","type":"uint256","indexed":true,"internalType":"uint256"},{"name":"claimer","type":"address","indexed":true,"internalType":"address"},{"name":"amount","type":"uint256","indexed":false,"internalType":"uint256"}],"anonymous":false},{"type":"event","name":"ClassRewardFunded","inputs":[{"name":"classId","type":"uint8","indexed":true,"internalType":"uint8"},{"name":"amount","type":"uint256","indexed":false,"internalType":"uint256"},{"name":"newPoolTotal","type":"uint256","indexed":false,"internalType":"uint256"}],"anonymous":false},{"type":"event","name":"ClassSponsorship","inputs":[{"name":"classId","type":"uint8","indexed":true,"internalType":"uint8"},{"name":"sponsor","type":"address","indexed":true,"internalType":"address"},{"name":"tokensBurned","type":"uint256","indexed":false,"internalType":"uint256"},{"name":"message","type":"string","indexed":false,"internalType":"string"}],"anonymous":false},{"type":"event","name":"ClassTokenDeployed","inputs":[{"name":"classId","type":"uint8","indexed":true,"internalType":"uint8"},{"name":"tokenAddress","type":"address","indexed":true,"internalType":"address"},{"name":"symbol","type":"string","indexed":false,"internalType":"string"}],"anonymous":false},{"type":"event","name":"OracleUpdated","inputs":[{"name":"previousOracle","type":"address","indexed":true,"internalType":"address"},{"name":"newOracle","type":"address","indexed":true,"internalType":"address"}],"anonymous":false},{"type":"event","name":"OwnershipTransferred","inputs":[{"name":"previousOwner","type":"address","indexed":true,"internalType":"address"},{"name":"newOwner","type":"address","indexed":true,"internalType":"address"}],"anonymous":false},{"type":"event","name":"ProposalCanceled","inputs":[{"name":"proposalId","type":"uint256","indexed":true,"internalType":"uint256"}],"anonymous":false},{"type":"event","name":"ProposalCreated","inputs":[{"name":"proposalId","type":"uint256","indexed":true,"internalType":"uint256"},{"name":"classId","type":"uint8","indexed":true,"internalType":"uint8"},{"name":"proposer","type":"address","indexed":true,"internalType":"address"}],"anonymous":false},{"type":"event","name":"ProposalExecuted","inputs":[{"name":"proposalId","type":"uint256","indexed":true,"internalType":"uint256"},{"name":"classId","type":"uint8","indexed":true,"internalType":"uint8"}],"anonymous":false},{"type":"event","name":"ProposalVoted","inputs":[{"name":"proposalId","type":"uint256","indexed":true,"internalType":"uint256"},{"name":"voter","type":"address","indexed":true,"internalType":"address"},{"name":"support","type":"bool","indexed":false,"internalType":"bool"},{"name":"weight","type":"uint256","indexed":false,"internalType":"uint256"}],"anonymous":false},{"type":"event","name":"StrategyUpdated","inputs":[{"name":"classId","type":"uint8","indexed":true,"internalType":"uint8"},{"name":"aggression","type":"uint8","indexed":false,"internalType":"uint8"},{"name":"risk","type":"uint8","indexed":false,"internalType":"uint8"},{"name":"defense","type":"uint8","indexed":false,"internalType":"uint8"}],"anonymous":false},{"type":"event","name":"TokensPurchased","inputs":[{"name":"classId","type":"uint8","indexed":true,"internalType":"uint8"},{"name":"buyer","type":"address","indexed":true,"internalType":"address"},{"name":"amount","type":"uint256","indexed":false,"internalType":"uint256"},{"name":"cost","type":"uint256","indexed":false,"internalType":"uint256"}],"anonymous":false},{"type":"error","name":"AlreadyInitialized","inputs":[]},{"type":"error","name":"AlreadyVoted","inputs":[{"name":"proposalId","type":"uint256","internalType":"uint256"},{"name":"voter","type":"address","internalType":"address"}]},{"type":"error","name":"InsufficientPayment","inputs":[{"name":"required","type":"uint256","internalType":"uint256"},{"name":"sent","type":"uint256","internalType":"uint256"}]},{"type":"error","name":"InsufficientTokenBalance","inputs":[{"name":"required","type":"uint256","internalType":"uint256"},{"name":"balance","type":"uint256","internalType":"uint256"}]},{"type":"error","name":"InvalidClassId","inputs":[{"name":"classId","type":"uint8","internalType":"uint8"}]},{"type":"error","name":"InvalidStrategyParam","inputs":[{"name":"param","type":"string","internalType":"string"},{"name":"value","type":"uint8","internalType":"uint8"}]},{"type":"error","name":"NoRewardAvailable","inputs":[]},{"type":"error","name":"NotInitialized","inputs":[]},{"type":"error","name":"OnlyOracle","inputs":[]},{"type":"error","name":"OwnableInvalidOwner","inputs":[{"name":"owner","type":"address","internalType":"address"}]},{"type":"error","name":"OwnableUnauthorizedAccount","inputs":[{"name":"account","type":"address","internalType":"address"}]},{"type":"error","name":"ProposalAlreadyExecuted","inputs":[{"name":"proposalId","type":"uint256","internalType":"uint256"}]},{"type":"error","name":"ProposalCanceledError","inputs":[{"name":"proposalId","type":"uint256","internalType":"uint256"}]},{"type":"error","name":"ProposalFailed","inputs":[{"name":"proposalId","type":"uint256","internalType":"uint256"}]},{"type":"error","name":"ProposalNotFound","inputs":[{"name":"proposalId","type":"uint256","internalType":"uint256"}]},{"type":"error","name":"ReentrancyGuardReentrantCall","inputs":[]},{"type":"error","name":"RewardAlreadyClaimed","inputs":[{"name":"epochId","type":"uint256","internalType":"uint256"},{"name":"claimer","type":"address","internalType":"address"}]},{"type":"error","name":"RewardEpochNotFound","inputs":[{"name":"epochId","type":"uint256","internalType":"uint256"}]},{"type":"error","name":"TransferFailed","inputs":[]},{"type":"error","name":"VotingEnded","inputs":[{"name":"proposalId","type":"uint256","internalType":"uint256"}]},{"type":"error","name":"VotingNotEnded","inputs":[{"name":"proposalId","type":"uint256","internalType":"uint256"}]},{"type":"error","name":"ZeroAddress","inputs":[]},{"type":"error","name":"ZeroAmount","inputs":[]}],"bytecode":{"object":"0x608060405234801562000010575f80fd5b506040516200444b3803806200444b83398101604081905262000033916200014f565b33806200005957604051631e4fbdf760e01b81525f600482015260240160405180910390fd5b620000648162000100565b5060017f9b779b17422d0df92223018b32b4d1fa46e071723d6817e2486d003becc55f00556001600160a01b038116620000b15760405163d92e233d60e01b815260040160405180910390fd5b600180546001600160a01b0319166001600160a01b0383169081179091556040515f907f078c3b417dadf69374a59793b829c52001247130433427049317bde56607b1b7908290a3506200017e565b5f80546001600160a01b038381166001600160a01b0319831681178455604051919092169283917f8be0079c531659141344cd1fd0a4f28419497f9722a3daafe3b4186f6b6457e09190a35050565b5f6020828403121562000160575f80fd5b81516001600160a01b038116811462000177575f80fd5b9392505050565b6142bf806200018c5f395ff3fe608060405260043610620002ba575f3560e01c80638da5cb5b1162000172578063c9d27afe11620000ce578063f2fde38b1162000082578063f2fde38b1462000b7e578063f72527c11462000ba2578063f86325ed1462000bb8578063fb1348871462000bd4578063fccc28131462000bf8578063fe832b371462000c0f575f80fd5b8063c9d27afe1462000aa9578063d548ef931462000acd578063e0a8f6f51462000ae3578063e15e57d51462000b07578063ee60df5c1462000b2b578063eff8fe5a1462000b5a575f80fd5b8063ad7737c61162000126578063ad7737c61462000848578063ae169a5014620008bb578063b4fa57ee14620008df578063bc9c32a81462000903578063c7b83a6f1462000927578063c7f758a81462000956575f80fd5b80638da5cb5b146200071f578063940c333e146200073d5780639886053f14620007545780639fd9353a1462000787578063a795f409146200079e578063ab3b55e31462000824575f80fd5b806353fb6c5c11620002225780636d25d80211620001d65780636d25d8021462000628578063715018a6146200064257806371e833df14620006595780637adbf97314620006c35780637dc0d1d014620006e75780638129fc1c1462000708575f80fd5b806353fb6c5c14620005255780635ab3558114620005625780635ad44e2614620005785780636827b72314620005a7578063691fa77a14620005e45780636bd8492814620005f9575f80fd5b8063215809ca116200027a578063215809ca146200043f57806324edafbd146200045757806328dd0ad6146200046d5780632ab09d1414620004ba5780634385963214620004d15780634b6844c5146200050e575f80fd5b8063013cf08b14620002c65780630d61b5191462000391578063158ef93e14620003b7578063175c4ef814620003e35780631f884dd8146200040c575f80fd5b36620002c257005b5f80fd5b348015620002d2575f80fd5b5062000370620002e436600462002d45565b600e60209081525f918252604091829020805460018201548451606081018652600284015460ff8082168352610100808304821697840197909752620100009091048116968201969096526003840154600485015460058601546006870154600790970154959880861698958690046001600160a01b031697949693959294919391928282169204168a565b604051620003889a9998979695949392919062002d5d565b60405180910390f35b3480156200039d575f80fd5b50620003b5620003af36600462002d45565b62000c42565b005b348015620003c3575f80fd5b50600754620003d29060ff1681565b604051901515815260200162000388565b348015620003ef575f80fd5b50620003f9600181565b60405160ff909116815260200162000388565b34801562000418575f80fd5b50620004306200042a36600462002dfc565b62000e5a565b60405190815260200162000388565b3480156200044b575f80fd5b50620004306203f48081565b34801562000463575f80fd5b50620003f9600281565b34801562000479575f80fd5b50620004916200048b36600462002e27565b62000e86565b604080519586526020860194909452928401919091526060830152608082015260a00162000388565b348015620004c6575f80fd5b5062000430600d5481565b348015620004dd575f80fd5b50620003d2620004ef36600462002e61565b600f60209081525f928352604080842090915290825290205460ff1681565b3480156200051a575f80fd5b506200043060105481565b34801562000531575f80fd5b50620003d26200054336600462002e61565b601260209081525f928352604080842090915290825290205460ff1681565b3480156200056e575f80fd5b50620003f9600581565b34801562000584575f80fd5b50620004306200059636600462002e27565b600c6020525f908152604090205481565b348015620005b3575f80fd5b50620005cb620005c536600462002e27565b62000f9d565b6040516001600160a01b03909116815260200162000388565b348015620005f0575f80fd5b50620003f95f81565b34801562000605575f80fd5b50620004306200061736600462002e27565b600b6020525f908152604090205481565b34801562000634575f80fd5b506200043064174876e80081565b3480156200064e575f80fd5b50620003b562000ff5565b34801562000665575f80fd5b506200069e6200067736600462002e27565b60086020525f908152604090205460ff808216916101008104821691620100009091041683565b6040805160ff9485168152928416602084015292169181019190915260600162000388565b348015620006cf575f80fd5b50620003b5620006e136600462002e8e565b6200100c565b348015620006f3575f80fd5b50600154620005cb906001600160a01b031681565b34801562000714575f80fd5b50620003b56200108f565b3480156200072b575f80fd5b505f546001600160a01b0316620005cb565b620003b56200074e36600462002dfc565b620014f2565b34801562000760575f80fd5b50620007786200077236600462002e27565b620016c4565b60405162000388919062002eaa565b620003b56200079836600462002dfc565b62001756565b348015620007aa575f80fd5b50620007f4620007bc36600462002d45565b60116020525f9081526040902080546001820154600283015460038401546004850154600590950154939460ff909316939192909186565b6040805196875260ff9095166020870152938501929092526060840152608083015260a082015260c00162000388565b34801562000830575f80fd5b50620004306200084236600462002e61565b62001a1c565b34801562000854575f80fd5b506200086c6200086636600462002d45565b62001b82565b6040516200038891905f60c0820190508251825260ff602084015116602083015260408301516040830152606083015160608301526080830151608083015260a083015160a083015292915050565b348015620008c7575f80fd5b50620003b5620008d936600462002d45565b62001c14565b348015620008eb575f80fd5b50620003b5620008fd36600462002eef565b62001ec8565b3480156200090f575f80fd5b50620005cb6200092136600462002d45565b620020c6565b34801562000933575f80fd5b50620004306200094536600462002e27565b600a6020525f908152604090205481565b34801562000962575f80fd5b5062000a9a6200097436600462002d45565b60408051610140810182525f80825260208083018290528284018290528351606080820186528382529181018390529384018290528201929092526080810182905260a0810182905260c0810182905260e081018290526101008101829052610120810191909152505f908152600e602090815260409182902082516101408101845281548152600182015460ff808216838601526001600160a01b0361010092839004168387015285516060818101885260028601548084168352848104841697830197909752620100009096048216968101969096529382019490945260038201546080820152600482015460a0820152600582015460c0820152600682015460e08201526007909101548083161515848301529290920416151561012082015290565b60405162000388919062002f76565b34801562000ab5575f80fd5b50620003b562000ac736600462003042565b620020e6565b34801562000ad9575f80fd5b50620003f9600481565b34801562000aef575f80fd5b50620003b562000b0136600462002d45565b6200236e565b34801562000b13575f80fd5b506200043062000b2536600462003076565b62002478565b34801562000b37575f80fd5b506200043062000b4936600462002e27565b60096020525f908152604090205481565b34801562000b66575f80fd5b506200043062000b7836600462002e27565b6200288b565b34801562000b8a575f80fd5b50620003b562000b9c36600462002e8e565b620029b0565b34801562000bae575f80fd5b50620003f9600381565b34801562000bc4575f80fd5b506200043066038d7ea4c6800081565b34801562000be0575f80fd5b506200043062000bf236600462002dfc565b620029f0565b34801562000c04575f80fd5b50620005cb61dead81565b34801562000c1b575f80fd5b5062000c3362000c2d36600462002e27565b62002b65565b604051620003889190620030be565b60075460ff1662000c66576040516321c4e35760e21b815260040160405180910390fd5b5f818152600e60205260408120600581015490910362000ca15760405163428d06a960e01b8152600481018390526024015b60405180910390fd5b6007810154610100900460ff161562000cd157604051632f81b2ab60e11b81526004810183905260240162000c98565b600781015460ff161562000cfc57604051632776407360e11b81526004810183905260240162000c98565b806006015442101562000d2657604051637793fdb360e11b81526004810183905260240162000c98565b806004015481600301541162000d535760405163a9257f9d60e01b81526004810183905260240162000c98565b60078101805460ff199081166001908117909255908201805460ff9081165f908152600860205260408082206002870180548254978816908616908117835581546101009081900487160261ffff1990981617969096178082559554620100009081900485160262ff000019909616959095179094559154925192169184917f5b9614f21773d68c0b149bda804ff3d491c8bc8795f7ed236cc97804cd00538991a3600181015460028201546040805160ff8084168252610100840481166020830152620100009093048316918101919091529116907f439cc9bb658f2c8971fa9259555922d51e640262295e12f1f769a4fc2da3e30f9060600160405180910390a25050565b6013602052815f5260405f20818154811062000e74575f80fd5b905f5260205f20015f91509150505481565b5f8080808085600560ff82161062000eb75760405163fd99db8560e01b815260ff8216600482015260240162000c98565b60ff8088165f908152600c6020908152604080832054600a8352818420546009845282852054600b9094529190932054600754939a5090985090965094501662000f02575f62000f91565b60028760ff166005811062000f1b5762000f1b620030ed565b015f9054906101000a90046001600160a01b03166001600160a01b03166318160ddd6040518163ffffffff1660e01b8152600401602060405180830381865afa15801562000f6b573d5f803e3d5ffd5b505050506040513d601f19601f8201168201806040525081019062000f91919062003101565b91505091939590929450565b5f81600560ff82161062000fca5760405163fd99db8560e01b815260ff8216600482015260240162000c98565b60028360ff166005811062000fe35762000fe3620030ed565b01546001600160a01b03169392505050565b62000fff62002bf3565b6200100a5f62002c21565b565b6200101662002bf3565b6001600160a01b0381166200103e5760405163d92e233d60e01b815260040160405180910390fd5b600180546001600160a01b038381166001600160a01b0319831681179093556040519116919082907f078c3b417dadf69374a59793b829c52001247130433427049317bde56607b1b7905f90a35050565b6200109962002bf3565b60075460ff1615620010bd5760405162dc149f60e41b815260040160405180910390fd5b5f6040518060a0016040528060405180604001604052806012815260200171243ab733b2b93730b239902bb0b93934b7b960711b815250815260200160405180604001604052806011815260200170243ab733b2b93730b239902a3930b232b960791b815250815260200160405180604001604052806013815260200172243ab733b2b93730b2399029bab93b34bb37b960691b81525081526020016040518060400160405280601381526020017248756e6765726e61647320506172617369746560681b815250815260200160405180604001604052806012815260200171243ab733b2b93730b2399023b0b6b13632b960711b81525081525090505f6040518060a00160405280604051806040016040528060078152602001662ba0a92924a7a960c91b8152508152602001604051806040016040528060068152602001652a2920a222a960d11b81525081526020016040518060400160405280600881526020016729aaa92b24ab27a960c11b815250815260200160405180604001604052806008815260200167504152415349544560c01b81525081526020016040518060400160405280600781526020016623a0a6a12622a960c91b81525081525090505f6040518060a00160405280604051806040016040528060078152602001662ba0a92924a7a960c91b8152508152602001604051806040016040528060068152602001652a2920a222a960d11b81525081526020016040518060400160405280600881526020016729aaa92b24ab27a960c11b815250815260200160405180604001604052806008815260200167504152415349544560c01b81525081526020016040518060400160405280600781526020016623a0a6a12622a960c91b81525081525090505f5b600560ff82161015620014df575f848260ff16600581106200136e576200136e620030ed565b6020020151848360ff16600581106200138b576200138b620030ed565b602002015183858560ff1660058110620013a957620013a9620030ed565b602002015130604051620013bd9062002d37565b620013cd9594939291906200315e565b604051809103905ff080158015620013e7573d5f803e3d5ffd5b5090508060028360ff1660058110620014045762001404620030ed565b0180546001600160a01b039283166001600160a01b0319909116179055604080516060810182526032808252602080830182815283850192835260ff8881165f81815260089094529590922093518454915193518316620100000262ff0000199484166101000261ffff1990931691909316171791909116179055908216907f78ca8365aae9d9e6bbafc5a1b676d0da50c41bcb488a5ecce1d7aa41749f2d09868260058110620014b957620014b9620030ed565b6020020151604051620014cd9190620031c0565b60405180910390a35060010162001348565b50506007805460ff191660011790555050565b620014fc62002c70565b60075460ff1662001520576040516321c4e35760e21b815260040160405180910390fd5b81600560ff8216106200154c5760405163fd99db8560e01b815260ff8216600482015260240162000c98565b815f036200156d57604051631f2a200560e01b815260040160405180910390fd5b5f6200157a8484620029f0565b905080341015620015a85760405163b99e2ab760e01b81526004810182905234602482015260440162000c98565b60028460ff1660058110620015c157620015c1620030ed565b01546001600160a01b03166340c10f1933620015e686670de0b6b3a7640000620031e8565b6040516001600160e01b031960e085901b1681526001600160a01b03909216600483015260248201526044015f604051808303815f87803b1580156200162a575f80fd5b505af11580156200163d573d5f803e3d5ffd5b505050505f813462001650919062003202565b90508015620016655762001665338262002c8e565b6040805185815260208101849052339160ff8816917f969dca2e9b083509f977e73337c5ef9d1358dff0e6a744e5646de84aa6a5bd07910160405180910390a3505050620016c060015f805160206200426a83398151915255565b5050565b606081600560ff821610620016f25760405163fd99db8560e01b815260ff8216600482015260240162000c98565b60ff83165f90815260136020908152604091829020805483518184028101840190945280845290918301828280156200174957602002820191905f5260205f20905b81548152602001906001019080831162001734575b5050505050915050919050565b6001546001600160a01b0316331462001782576040516380fee10560e01b815260040160405180910390fd5b60075460ff16620017a6576040516321c4e35760e21b815260040160405180910390fd5b81600560ff821610620017d25760405163fd99db8560e01b815260ff8216600482015260240162000c98565b60ff83165f908152600c60205260408120805491620017f18362003218565b90915550503415620019d85760ff83165f90815260096020526040812080543492906200182090849062003233565b909155505060ff83165f908152600a6020526040812080543492906200184890849062003233565b9091555050601080545f91826200185f8362003218565b9190505590505f60028560ff16600581106200187f576200187f620030ed565b015f9054906101000a90046001600160a01b03166001600160a01b03166318160ddd6040518163ffffffff1660e01b8152600401602060405180830381865afa158015620018cf573d5f803e3d5ffd5b505050506040513d601f19601f82011682018060405250810190620018f5919062003101565b6040805160c08101825284815260ff888116602080840182815234858701818152606087018981525f608089018181524260a08b019081528e8352601188528b83209a518b5595516001808c01805460ff191692909b1691909117909955925160028a015590516003890155905160048801559151600590960195909555828152601382528581208054948501815581528181209093018890558183526009815291849020548451938452918301919091529293507f899521f5518fd2f85df6ac543f76ad0a4f0410659086f9472050707d33c5e251910160405180910390a250505b818360ff167f98fa0fd29d73e134f29bed56a65a4c4364307eeccbcf56fd42e03cc2265d1a7f3460405162001a0f91815260200190565b60405180910390a3505050565b5f8281526011602052604081206005810154820362001a3f575f91505062001b7c565b5f8481526012602090815260408083206001600160a01b038716845290915290205460ff161562001a74575f91505062001b7c565b60018101545f9060029060ff166005811062001a945762001a94620030ed565b01546040516370a0823160e01b81526001600160a01b038681166004830152909116906370a0823190602401602060405180830381865afa15801562001adc573d5f803e3d5ffd5b505050506040513d601f19601f8201168201806040525081019062001b02919062003101565b905080158062001b1457506003820154155b1562001b25575f9250505062001b7c565b5f826003015482846002015462001b3d9190620031e8565b62001b49919062003249565b90505f8360040154846002015462001b62919062003202565b905080821162001b73578162001b75565b805b9450505050505b92915050565b62001bb96040518060c001604052805f81526020015f60ff1681526020015f81526020015f81526020015f81526020015f81525090565b505f90815260116020908152604091829020825160c08101845281548152600182015460ff1692810192909252600281015492820192909252600382015460608201526004820154608082015260059091015460a082015290565b62001c1e62002c70565b60075460ff1662001c42576040516321c4e35760e21b815260040160405180910390fd5b5f818152601160205260408120600581015490910362001c7957604051634e2e7fc960e01b81526004810183905260240162000c98565b5f82815260126020908152604080832033845290915290205460ff161562001cbd5760405162189adf60ea1b81526004810183905233602482015260440162000c98565b600181015460ff165f6002826005811062001cdc5762001cdc620030ed565b01546040516370a0823160e01b81523360048201526001600160a01b0390911691505f9082906370a0823190602401602060405180830381865afa15801562001d27573d5f803e3d5ffd5b505050506040513d601f19601f8201168201806040525081019062001d4d919062003101565b905080158062001d5f57506003840154155b1562001d7e57604051636d363c4560e01b815260040160405180910390fd5b5f846003015482866002015462001d969190620031e8565b62001da2919062003249565b9050805f0362001dc557604051636d363c4560e01b815260040160405180910390fd5b5f8560040154866002015462001ddc919062003202565b90508082111562001deb578091505b5f8781526012602090815260408083203384529091528120805460ff1916600117905560048701805484929062001e2490849062003233565b909155505060ff85165f908152600960205260408120805484929062001e4c90849062003202565b9091555062001e5e9050338362002c8e565b336001600160a01b0316878660ff167f205ae2ca228bb4a564e4d82ec6dcf84567af47ed039c9f929ac9ddf4d1219b4d8560405162001e9f91815260200190565b60405180910390a450505050505062001ec560015f805160206200426a83398151915255565b50565b60075460ff1662001eec576040516321c4e35760e21b815260040160405180910390fd5b83600560ff82161062001f185760405163fd99db8560e01b815260ff8216600482015260240162000c98565b835f0362001f3957604051631f2a200560e01b815260040160405180910390fd5b5f60028660ff166005811062001f535762001f53620030ed565b01546040516370a0823160e01b81523360048201526001600160a01b0390911691505f9082906370a0823190602401602060405180830381865afa15801562001f9e573d5f803e3d5ffd5b505050506040513d601f19601f8201168201806040525081019062001fc4919062003101565b90508581101562001ff35760405163142e249f60e31b8152600481018790526024810182905260440162000c98565b60405163079cc67960e41b8152336004820152602481018790526001600160a01b038316906379cc6790906044015f604051808303815f87803b15801562002039575f80fd5b505af11580156200204c573d5f803e3d5ffd5b5050505060ff87165f908152600b6020526040812080548892906200207390849062003233565b9091555050604051339060ff8916907f91fb44cba9638511065e592ecf3eea48598d284950f53607061c364b09a1578090620020b5908a908a908a9062003269565b60405180910390a350505050505050565b60028160058110620020d6575f80fd5b01546001600160a01b0316905081565b60075460ff166200210a576040516321c4e35760e21b815260040160405180910390fd5b5f828152600e602052604081206005810154909103620021415760405163428d06a960e01b81526004810184905260240162000c98565b6007810154610100900460ff16156200217157604051632f81b2ab60e11b81526004810184905260240162000c98565b600781015460ff16156200219c57604051632776407360e11b81526004810184905260240162000c98565b80600601544210620021c5576040516381eb741560e01b81526004810184905260240162000c98565b5f838152600f6020908152604080832033845290915290205460ff16156200220a576040516304f9da6360e01b81526004810184905233602482015260440162000c98565b60018101545f9060029060ff16600581106200222a576200222a620030ed565b01546040516370a0823160e01b81523360048201526001600160a01b03909116906370a0823190602401602060405180830381865afa15801562002270573d5f803e3d5ffd5b505050506040513d601f19601f8201168201806040525081019062002296919062003101565b9050805f03620022c35760405163142e249f60e31b8152600160048201525f602482015260440162000c98565b5f848152600f602090815260408083203384529091529020805460ff1916600117905582156200230e5780826003015f82825462002302919062003233565b90915550620023299050565b80826004015f82825462002323919062003233565b90915550505b60408051841515815260208101839052339186917f78975aaf742630489badd22949b88ac50eaaea576339ee05440b671a33bfb6a9910160405180910390a350505050565b5f818152600e602052604081206005810154909103620023a55760405163428d06a960e01b81526004810183905260240162000c98565b600781015460ff1615620023d057604051632776407360e11b81526004810183905260240162000c98565b600181015461010090046001600160a01b0316331480620023fa57505f546001600160a01b031633145b620024395760405162461bcd60e51b815260206004820152600e60248201526d139bdd08185d5d1a1bdc9a5e995960921b604482015260640162000c98565b60078101805461ff00191661010017905560405182907f789cf55be980739dad1d0699b93b58e806b51c9d96619bfa8fe0a28abaa7b30c905f90a25050565b6007545f9060ff166200249e576040516321c4e35760e21b815260040160405180910390fd5b83600560ff821610620024ca5760405163fd99db8560e01b815260ff8216600482015260240162000c98565b6064620024db602086018662002e27565b60ff1611156200253c57620024f4602085018562002e27565b60408051630dc4045d60e21b81526004810191909152600f60448201526e1859d9dc995cdcda5bdb93195d995b608a1b606482015260ff909116602482015260840162000c98565b606462002550604086016020870162002e27565b60ff161115620025b2576200256c604085016020860162002e27565b60408051630dc4045d60e21b81526004810191909152600d60448201526c7269736b546f6c6572616e636560981b606482015260ff909116602482015260840162000c98565b6064620025c6606086016040870162002e27565b60ff1611156200262c57620025e2606085016040860162002e27565b60408051630dc4045d60e21b815260048101919091526011604482015270646566656e7365507265666572656e636560781b606482015260ff909116602482015260840162000c98565b5f60028660ff1660058110620026465762002646620030ed565b01546040516370a0823160e01b81523360048201526001600160a01b03909116906370a0823190602401602060405180830381865afa1580156200268c573d5f803e3d5ffd5b505050506040513d601f19601f82011682018060405250810190620026b2919062003101565b9050805f03620026df5760405163142e249f60e31b8152600160048201525f602482015260440162000c98565b6203f480841015620026f2576203f48093505b600d80545f9182620027048362003218565b9190505590506040518061014001604052808281526020018860ff168152602001336001600160a01b03168152602001878036038101906200274791906200329e565b81526020015f81526020015f815260200142815260200186426200276c919062003233565b81525f60208083018290526040928301829052848252600e81528282208451815584820151600182018054878701516001600160a01b03166101009081026001600160a81b031990921660ff94851617919091179091556060870151805160028501805496830151928901518516620100000262ff000019938616850261ffff199889169387169390931792909217929092161790556080870151600384015560a0870151600484015560c0870151600584015560e08701516006840155808701516007909301805461012090980151151590910292151561ff0019169690931695909517179055905133928a169184917f3263432a41f78a4701cc9465f62411ed717ade32290c084135a3dd6b29f4bf289190a49695505050505050565b6007545f9060ff16620028b1576040516321c4e35760e21b815260040160405180910390fd5b81600560ff821610620028dd5760405163fd99db8560e01b815260ff8216600482015260240162000c98565b5f670de0b6b3a764000060028560ff1660058110620029005762002900620030ed565b015f9054906101000a90046001600160a01b03166001600160a01b03166318160ddd6040518163ffffffff1660e01b8152600401602060405180830381865afa15801562002950573d5f803e3d5ffd5b505050506040513d601f19601f8201168201806040525081019062002976919062003101565b62002982919062003249565b90506200299564174876e80082620031e8565b620029a89066038d7ea4c6800062003233565b949350505050565b620029ba62002bf3565b6001600160a01b038116620029e557604051631e4fbdf760e01b81525f600482015260240162000c98565b62001ec58162002c21565b6007545f9060ff1662002a16576040516321c4e35760e21b815260040160405180910390fd5b82600560ff82161062002a425760405163fd99db8560e01b815260ff8216600482015260240162000c98565b5f670de0b6b3a764000060028660ff166005811062002a655762002a65620030ed565b015f9054906101000a90046001600160a01b03166001600160a01b03166318160ddd6040518163ffffffff1660e01b8152600401602060405180830381865afa15801562002ab5573d5f803e3d5ffd5b505050506040513d601f19601f8201168201806040525081019062002adb919062003101565b62002ae7919062003249565b90505f62002afd66038d7ea4c6800086620031e8565b90505f600262002b0f60018862003202565b62002b1b9088620031e8565b62002b27919062003249565b62002b338488620031e8565b62002b3f919062003233565b62002b509064174876e800620031e8565b905062001b75818362003233565b5092915050565b604080516060810182525f808252602082018190529181019190915281600560ff82161062002bad5760405163fd99db8560e01b815260ff8216600482015260240162000c98565b505060ff9081165f908152600860209081526040918290208251606081018452905480851682526101008104851692820192909252620100009091049092169082015290565b5f546001600160a01b031633146200100a5760405163118cdaa760e01b815233600482015260240162000c98565b5f80546001600160a01b038381166001600160a01b0319831681178455604051919092169283917f8be0079c531659141344cd1fd0a4f28419497f9722a3daafe3b4186f6b6457e09190a35050565b62002c7a62002d06565b60025f805160206200426a83398151915255565b5f826001600160a01b0316826040515f6040518083038185875af1925050503d805f811462002cd9576040519150601f19603f3d011682016040523d82523d5f602084013e62002cde565b606091505b505090508062002d01576040516312171d8360e31b815260040160405180910390fd5b505050565b5f805160206200426a833981519152546002036200100a57604051633ee5aeb560e01b815260040160405180910390fd5b610f4d806200331d83390190565b5f6020828403121562002d56575f80fd5b5035919050565b8a815260ff8a1660208201526001600160a01b0389166040820152610180810162002dab606083018a60ff815116825260ff602082015116602083015260ff60408201511660408301525050565b8760c08301528660e083015285610100830152846101208301528315156101408301528215156101608301529b9a5050505050505050505050565b803560ff8116811462002df7575f80fd5b919050565b5f806040838503121562002e0e575f80fd5b62002e198362002de6565b946020939093013593505050565b5f6020828403121562002e38575f80fd5b62002e438262002de6565b9392505050565b80356001600160a01b038116811462002df7575f80fd5b5f806040838503121562002e73575f80fd5b8235915062002e856020840162002e4a565b90509250929050565b5f6020828403121562002e9f575f80fd5b62002e438262002e4a565b602080825282518282018190525f9190848201906040850190845b8181101562002ee35783518352928401929184019160010162002ec5565b50909695505050505050565b5f805f806060858703121562002f03575f80fd5b62002f0e8562002de6565b935060208501359250604085013567ffffffffffffffff8082111562002f32575f80fd5b818701915087601f83011262002f46575f80fd5b81358181111562002f55575f80fd5b88602082850101111562002f67575f80fd5b95989497505060200194505050565b8151815260208083015161018083019162002f959084018260ff169052565b50604083015162002fb160408401826001600160a01b03169052565b50606083015162002fe5606084018260ff815116825260ff602082015116602083015260ff60408201511660408301525050565b50608083015160c083015260a083015160e083015260c0830151610100818185015260e0850151915061012082818601528186015192506200302c61014086018415159052565b850151801515610160860152915062002b5e9050565b5f806040838503121562003054575f80fd5b82359150602083013580151581146200306b575f80fd5b809150509250929050565b5f805f83850360a08112156200308a575f80fd5b620030958562002de6565b93506060601f1982011215620030a9575f80fd5b50602084019150608084013590509250925092565b6060810162001b7c828460ff815116825260ff602082015116602083015260ff60408201511660408301525050565b634e487b7160e01b5f52603260045260245ffd5b5f6020828403121562003112575f80fd5b5051919050565b5f81518084525f5b818110156200313f5760208185018101518683018201520162003121565b505f602082860101526020601f19601f83011685010191505092915050565b60a081525f6200317260a083018862003119565b828103602084015262003186818862003119565b905060ff861660408401528281036060840152620031a5818662003119565b91505060018060a01b03831660808301529695505050505050565b602081525f62002e43602083018462003119565b634e487b7160e01b5f52601160045260245ffd5b808202811582820484141762001b7c5762001b7c620031d4565b8181038181111562001b7c5762001b7c620031d4565b5f600182016200322c576200322c620031d4565b5060010190565b8082018082111562001b7c5762001b7c620031d4565b5f826200326457634e487b7160e01b5f52601260045260245ffd5b500490565b83815260406020820152816040820152818360608301375f818301606090810191909152601f909201601f1916010192915050565b5f60608284031215620032af575f80fd5b6040516060810181811067ffffffffffffffff82111715620032df57634e487b7160e01b5f52604160045260245ffd5b604052620032ed8362002de6565b8152620032fd6020840162002de6565b6020820152620033106040840162002de6565b6040820152939250505056fe60a060405234801562000010575f80fd5b5060405162000f4d38038062000f4d83398101604081905262000033916200020b565b33858560036200004483826200035c565b5060046200005382826200035c565b5050506001600160a01b0381166200008457604051631e4fbdf760e01b81525f600482015260240160405180910390fd5b6200008f81620000f9565b506001600160a01b038116620000b85760405163d92e233d60e01b815260040160405180910390fd5b60ff83166080526006620000cd83826200035c565b50600780546001600160a01b0319166001600160a01b0392909216919091179055506200042892505050565b600580546001600160a01b038381166001600160a01b0319831681179093556040519116919082907f8be0079c531659141344cd1fd0a4f28419497f9722a3daafe3b4186f6b6457e0905f90a35050565b634e487b7160e01b5f52604160045260245ffd5b5f82601f8301126200016e575f80fd5b81516001600160401b03808211156200018b576200018b6200014a565b604051601f8301601f19908116603f01168101908282118183101715620001b657620001b66200014a565b8160405283815260209250866020858801011115620001d3575f80fd5b5f91505b83821015620001f65785820183015181830184015290820190620001d7565b5f602085830101528094505050505092915050565b5f805f805f60a0868803121562000220575f80fd5b85516001600160401b038082111562000237575f80fd5b6200024589838a016200015e565b965060208801519150808211156200025b575f80fd5b6200026989838a016200015e565b95506040880151915060ff8216821462000281575f80fd5b60608801519194508082111562000296575f80fd5b50620002a5888289016200015e565b608088015190935090506001600160a01b0381168114620002c4575f80fd5b809150509295509295909350565b600181811c90821680620002e757607f821691505b6020821081036200030657634e487b7160e01b5f52602260045260245ffd5b50919050565b601f8211156200035757805f5260205f20601f840160051c81016020851015620003335750805b601f840160051c820191505b8181101562000354575f81556001016200033f565b50505b505050565b81516001600160401b038111156200037857620003786200014a565b6200039081620003898454620002d2565b846200030c565b602080601f831160018114620003c6575f8415620003ae5750858301515b5f19600386901b1c1916600185901b17855562000420565b5f85815260208120601f198616915b82811015620003f657888601518255948401946001909101908401620003d5565b50858210156200041457878501515f19600388901b60f8161c191681555b505060018460011b0185555b505050505050565b608051610b0c620004415f395f61027c0152610b0c5ff3fe608060405234801561000f575f80fd5b506004361061011b575f3560e01c806370a08231116100a9578063a9059cbb1161006e578063a9059cbb14610251578063d0ebdbe714610264578063d5ad684914610277578063dd62ed3e1461029e578063f2fde38b146102d6575f80fd5b806370a08231146101f5578063715018a61461021d57806379cc6790146102255780638da5cb5b1461023857806395d89b4114610249575f80fd5b806323b872dd116100ef57806323b872dd1461017a578063313ce5671461018d57806340c10f19146101a257806342966c68146101b7578063481c6a75146101ca575f80fd5b8062c51f8c1461011f57806306fdde031461013d578063095ea7b31461014557806318160ddd14610168575b5f80fd5b6101276102e9565b604051610134919061094f565b60405180910390f35b610127610375565b6101586101533660046109b6565b610405565b6040519015158152602001610134565b6002545b604051908152602001610134565b6101586101883660046109de565b61041e565b60125b60405160ff9091168152602001610134565b6101b56101b03660046109b6565b610441565b005b6101b56101c5366004610a17565b61047a565b6007546101dd906001600160a01b031681565b6040516001600160a01b039091168152602001610134565b61016c610203366004610a2e565b6001600160a01b03165f9081526020819052604090205490565b6101b5610487565b6101b56102333660046109b6565b61049a565b6005546001600160a01b03166101dd565b6101276104da565b61015861025f3660046109b6565b6104e9565b6101b5610272366004610a2e565b6104f6565b6101907f000000000000000000000000000000000000000000000000000000000000000081565b61016c6102ac366004610a4e565b6001600160a01b039182165f90815260016020908152604080832093909416825291909152205490565b6101b56102e4366004610a2e565b610547565b600680546102f690610a7f565b80601f016020809104026020016040519081016040528092919081815260200182805461032290610a7f565b801561036d5780601f106103445761010080835404028352916020019161036d565b820191905f5260205f20905b81548152906001019060200180831161035057829003601f168201915b505050505081565b60606003805461038490610a7f565b80601f01602080910402602001604051908101604052809291908181526020018280546103b090610a7f565b80156103fb5780601f106103d2576101008083540402835291602001916103fb565b820191905f5260205f20905b8154815290600101906020018083116103de57829003601f168201915b5050505050905090565b5f33610412818585610586565b60019150505b92915050565b5f3361042b858285610598565b610436858585610614565b506001949350505050565b6007546001600160a01b0316331461046c5760405163605919ad60e11b815260040160405180910390fd5b6104768282610671565b5050565b61048433826106a5565b50565b61048f6106d9565b6104985f610706565b565b6007546001600160a01b031633146104c55760405163605919ad60e11b815260040160405180910390fd5b6104d0823383610598565b61047682826106a5565b60606004805461038490610a7f565b5f33610412818585610614565b6104fe6106d9565b6001600160a01b0381166105255760405163d92e233d60e01b815260040160405180910390fd5b600780546001600160a01b0319166001600160a01b0392909216919091179055565b61054f6106d9565b6001600160a01b03811661057d57604051631e4fbdf760e01b81525f60048201526024015b60405180910390fd5b61048481610706565b6105938383836001610757565b505050565b6001600160a01b038381165f908152600160209081526040808320938616835292905220545f1981101561060e578181101561060057604051637dc7a0d960e11b81526001600160a01b03841660048201526024810182905260448101839052606401610574565b61060e84848484035f610757565b50505050565b6001600160a01b03831661063d57604051634b637e8f60e11b81525f6004820152602401610574565b6001600160a01b0382166106665760405163ec442f0560e01b81525f6004820152602401610574565b610593838383610829565b6001600160a01b03821661069a5760405163ec442f0560e01b81525f6004820152602401610574565b6104765f8383610829565b6001600160a01b0382166106ce57604051634b637e8f60e11b81525f6004820152602401610574565b610476825f83610829565b6005546001600160a01b031633146104985760405163118cdaa760e01b8152336004820152602401610574565b600580546001600160a01b038381166001600160a01b0319831681179093556040519116919082907f8be0079c531659141344cd1fd0a4f28419497f9722a3daafe3b4186f6b6457e0905f90a35050565b6001600160a01b0384166107805760405163e602df0560e01b81525f6004820152602401610574565b6001600160a01b0383166107a957604051634a1406b160e11b81525f6004820152602401610574565b6001600160a01b038085165f908152600160209081526040808320938716835292905220829055801561060e57826001600160a01b0316846001600160a01b03167f8c5be1e5ebec7d5bd14f71427d1e84f3dd0314c0f7b2291e5b200ac8c7c3b9258460405161081b91815260200190565b60405180910390a350505050565b6001600160a01b038316610853578060025f8282546108489190610ab7565b909155506108c39050565b6001600160a01b0383165f90815260208190526040902054818110156108a55760405163391434e360e21b81526001600160a01b03851660048201526024810182905260448101839052606401610574565b6001600160a01b0384165f9081526020819052604090209082900390555b6001600160a01b0382166108df576002805482900390556108fd565b6001600160a01b0382165f9081526020819052604090208054820190555b816001600160a01b0316836001600160a01b03167fddf252ad1be2c89b69c2b068fc378daa952ba7f163c4a11628f55a4df523b3ef8360405161094291815260200190565b60405180910390a3505050565b5f602080835283518060208501525f5b8181101561097b5785810183015185820160400152820161095f565b505f604082860101526040601f19601f8301168501019250505092915050565b80356001600160a01b03811681146109b1575f80fd5b919050565b5f80604083850312156109c7575f80fd5b6109d08361099b565b946020939093013593505050565b5f805f606084860312156109f0575f80fd5b6109f98461099b565b9250610a076020850161099b565b9150604084013590509250925092565b5f60208284031215610a27575f80fd5b5035919050565b5f60208284031215610a3e575f80fd5b610a478261099b565b9392505050565b5f8060408385031215610a5f575f80fd5b610a688361099b565b9150610a766020840161099b565b90509250929050565b600181811c90821680610a9357607f821691505b602082108103610ab157634e487b7160e01b5f52602260045260245ffd5b50919050565b8082018082111561041857634e487b7160e01b5f52601160045260245ffdfea26469706673582212202cfc4f3a1b9ee2140a0139848651f06125de08a26b08822995d96e873fa8adb464736f6c634300081800339b779b17422d0df92223018b32b4d1fa46e071723d6817e2486d003becc55f00a2646970667358221220be98468d628842c5f4ce99e0b284e587115f5e7bbfed4adcdf904a1819d3384064736f6c63430008180033","linkReferences":{}},"methodIdentifiers":{"BASE_PRICE()":"f86325ed","BURN_ADDRESS()":"fccc2813","GAMBLER()":"d548ef93","MIN_VOTING_PERIOD()":"215809ca","NUM_CLASSES()":"5ab35581","PARASITE()":"f72527c1","PRICE_INCREMENT()":"6d25d802","SURVIVOR()":"24edafbd","TRADER()":"175c4ef8","WARRIOR()":"691fa77a","buyTokens(uint8,uint256)":"940c333e","cancelProposal(uint256)":"e0a8f6f5","claimReward(uint256)":"ae169a50","classRewardEpochIds(uint8,uint256)":"1f884dd8","classRewardPools(uint8)":"ee60df5c","classSponsorshipBurns(uint8)":"6bd84928","classStrategies(uint8)":"71e833df","classTokens(uint256)":"bc9c32a8","classTotalEarnings(uint8)":"c7b83a6f","classWins(uint8)":"5ad44e26","createProposal(uint8,(uint8,uint8,uint8),uint256)":"e15e57d5","executeProposal(uint256)":"0d61b519","getBuyCost(uint8,uint256)":"fb134887","getClaimableReward(uint256,address)":"ab3b55e3","getClassRewardEpochIds(uint8)":"9886053f","getClassStats(uint8)":"28dd0ad6","getClassStrategy(uint8)":"fe832b37","getClassToken(uint8)":"6827b723","getCurrentPrice(uint8)":"eff8fe5a","getProposal(uint256)":"c7f758a8","getRewardEpoch(uint256)":"ad7737c6","hasVoted(uint256,address)":"43859632","initialize()":"8129fc1c","initialized()":"158ef93e","nextProposalId()":"2ab09d14","nextRewardEpochId()":"4b6844c5","oracle()":"7dc0d1d0","owner()":"8da5cb5b","proposals(uint256)":"013cf08b","recordClassWin(uint8,bytes32)":"9fd9353a","renounceOwnership()":"715018a6","rewardClaimed(uint256,address)":"53fb6c5c","rewardEpochs(uint256)":"a795f409","setOracle(address)":"7adbf973","sponsorClass(uint8,uint256,string)":"b4fa57ee","transferOwnership(address)":"f2fde38b","vote(uint256,bool)":"c9d27afe"},"id":52}