{"abi":[{"type":"constructor","inputs":[],"stateMutability":"nonpayable"},{"type":"function","name":"BURN_ADDRESS","inputs":[],"outputs":[{"name":"","type":"address","internalType":"address"}],"stateMutability":"view"},{"type":"function","name":"UPGRADE_INTERFACE_VERSION","inputs":[],"outputs":[{"name":"","type":"string","internalType":"string"}],"stateMutability":"view"},{"type":"function","name":"activateBattle","inputs":[{"name":"_battleId","type":"bytes32","internalType":"bytes32"}],"outputs":[],"stateMutability":"nonpayable"},{"type":"function","name":"agentStats","inputs":[{"name":"","type":"uint256","internalType":"uint256"}],"outputs":[{"name":"wins","type":"uint256","internalType":"uint256"},{"name":"losses","type":"uint256","internalType":"uint256"},{"name":"kills","type":"uint256","internalType":"uint256"},{"name":"totalBattles","type":"uint256","internalType":"uint256"},{"name":"totalEpochsSurvived","type":"uint256","internalType":"uint256"},{"name":"exists","type":"bool","internalType":"bool"}],"stateMutability":"view"},{"type":"function","name":"awardKillBonus","inputs":[{"name":"_recipient","type":"address","internalType":"address"},{"name":"_amount","type":"uint256","internalType":"uint256"}],"outputs":[],"stateMutability":"nonpayable"},{"type":"function","name":"awardSurvivalBonus","inputs":[{"name":"_recipient","type":"address","internalType":"address"},{"name":"_amount","type":"uint256","internalType":"uint256"}],"outputs":[],"stateMutability":"nonpayable"},{"type":"function","name":"battleIds","inputs":[{"name":"","type":"uint256","internalType":"uint256"}],"outputs":[{"name":"","type":"bytes32","internalType":"bytes32"}],"stateMutability":"view"},{"type":"function","name":"battleResults","inputs":[{"name":"","type":"bytes32","internalType":"bytes32"},{"name":"","type":"uint256","internalType":"uint256"}],"outputs":[{"name":"agentId","type":"uint256","internalType":"uint256"},{"name":"finalHp","type":"uint256","internalType":"uint256"},{"name":"kills","type":"uint256","internalType":"uint256"},{"name":"survivedEpochs","type":"uint256","internalType":"uint256"},{"name":"isWinner","type":"bool","internalType":"bool"}],"stateMutability":"view"},{"type":"function","name":"battles","inputs":[{"name":"","type":"bytes32","internalType":"bytes32"}],"outputs":[{"name":"battleId","type":"bytes32","internalType":"bytes32"},{"name":"state","type":"uint8","internalType":"enum HungernadsArena.BattleState"},{"name":"winnerId","type":"uint256","internalType":"uint256"},{"name":"createdAt","type":"uint256","internalType":"uint256"},{"name":"completedAt","type":"uint256","internalType":"uint256"},{"name":"entryFee","type":"uint256","internalType":"uint256"}],"stateMutability":"view"},{"type":"function","name":"burnHnads","inputs":[{"name":"_battleId","type":"bytes32","internalType":"bytes32"}],"outputs":[],"stateMutability":"nonpayable"},{"type":"function","name":"depositHnadsFee","inputs":[{"name":"_battleId","type":"bytes32","internalType":"bytes32"},{"name":"_amount","type":"uint256","internalType":"uint256"}],"outputs":[],"stateMutability":"nonpayable"},{"type":"function","name":"feePaid","inputs":[{"name":"","type":"bytes32","internalType":"bytes32"},{"name":"","type":"address","internalType":"address"}],"outputs":[{"name":"","type":"bool","internalType":"bool"}],"stateMutability":"view"},{"type":"function","name":"feesCollected","inputs":[{"name":"","type":"bytes32","internalType":"bytes32"}],"outputs":[{"name":"","type":"uint256","internalType":"uint256"}],"stateMutability":"view"},{"type":"function","name":"getAgentStats","inputs":[{"name":"_agentId","type":"uint256","internalType":"uint256"}],"outputs":[{"name":"","type":"tuple","internalType":"struct HungernadsArena.AgentStats","components":[{"name":"wins","type":"uint256","internalType":"uint256"},{"name":"losses","type":"uint256","internalType":"uint256"},{"name":"kills","type":"uint256","internalType":"uint256"},{"name":"totalBattles","type":"uint256","internalType":"uint256"},{"name":"totalEpochsSurvived","type":"uint256","internalType":"uint256"},{"name":"exists","type":"bool","internalType":"bool"}]}],"stateMutability":"view"},{"type":"function","name":"getBattle","inputs":[{"name":"_battleId","type":"bytes32","internalType":"bytes32"}],"outputs":[{"name":"","type":"tuple","internalType":"struct HungernadsArena.Battle","components":[{"name":"battleId","type":"bytes32","internalType":"bytes32"},{"name":"state","type":"uint8","internalType":"enum HungernadsArena.BattleState"},{"name":"agentIds","type":"uint256[]","internalType":"uint256[]"},{"name":"winnerId","type":"uint256","internalType":"uint256"},{"name":"createdAt","type":"uint256","internalType":"uint256"},{"name":"completedAt","type":"uint256","internalType":"uint256"},{"name":"entryFee","type":"uint256","internalType":"uint256"}]}],"stateMutability":"view"},{"type":"function","name":"getBattleAgents","inputs":[{"name":"_battleId","type":"bytes32","internalType":"bytes32"}],"outputs":[{"name":"","type":"uint256[]","internalType":"uint256[]"}],"stateMutability":"view"},{"type":"function","name":"getBattleCount","inputs":[],"outputs":[{"name":"","type":"uint256","internalType":"uint256"}],"stateMutability":"view"},{"type":"function","name":"getBattleIds","inputs":[{"name":"_offset","type":"uint256","internalType":"uint256"},{"name":"_limit","type":"uint256","internalType":"uint256"}],"outputs":[{"name":"","type":"bytes32[]","internalType":"bytes32[]"}],"stateMutability":"view"},{"type":"function","name":"getBattleResult","inputs":[{"name":"_battleId","type":"bytes32","internalType":"bytes32"},{"name":"_agentId","type":"uint256","internalType":"uint256"}],"outputs":[{"name":"","type":"tuple","internalType":"struct HungernadsArena.AgentResult","components":[{"name":"agentId","type":"uint256","internalType":"uint256"},{"name":"finalHp","type":"uint256","internalType":"uint256"},{"name":"kills","type":"uint256","internalType":"uint256"},{"name":"survivedEpochs","type":"uint256","internalType":"uint256"},{"name":"isWinner","type":"bool","internalType":"bool"}]}],"stateMutability":"view"},{"type":"function","name":"hnadsBurned","inputs":[{"name":"","type":"bytes32","internalType":"bytes32"}],"outputs":[{"name":"","type":"uint256","internalType":"uint256"}],"stateMutability":"view"},{"type":"function","name":"hnadsFeePaid","inputs":[{"name":"","type":"bytes32","internalType":"bytes32"},{"name":"","type":"address","internalType":"address"}],"outputs":[{"name":"","type":"bool","internalType":"bool"}],"stateMutability":"view"},{"type":"function","name":"hnadsFeesCollected","inputs":[{"name":"","type":"bytes32","internalType":"bytes32"}],"outputs":[{"name":"","type":"uint256","internalType":"uint256"}],"stateMutability":"view"},{"type":"function","name":"hnadsToken","inputs":[],"outputs":[{"name":"","type":"address","internalType":"contract IERC20"}],"stateMutability":"view"},{"type":"function","name":"hnadsTreasury","inputs":[{"name":"","type":"bytes32","internalType":"bytes32"}],"outputs":[{"name":"","type":"uint256","internalType":"uint256"}],"stateMutability":"view"},{"type":"function","name":"initialize","inputs":[{"name":"_oracle","type":"address","internalType":"address"}],"outputs":[],"stateMutability":"nonpayable"},{"type":"function","name":"oracle","inputs":[],"outputs":[{"name":"","type":"address","internalType":"address"}],"stateMutability":"view"},{"type":"function","name":"owner","inputs":[],"outputs":[{"name":"","type":"address","internalType":"address"}],"stateMutability":"view"},{"type":"function","name":"payEntryFee","inputs":[{"name":"_battleId","type":"bytes32","internalType":"bytes32"}],"outputs":[],"stateMutability":"payable"},{"type":"function","name":"proxiableUUID","inputs":[],"outputs":[{"name":"","type":"bytes32","internalType":"bytes32"}],"stateMutability":"view"},{"type":"function","name":"recordResult","inputs":[{"name":"_battleId","type":"bytes32","internalType":"bytes32"},{"name":"_winnerId","type":"uint256","internalType":"uint256"},{"name":"_results","type":"tuple[]","internalType":"struct HungernadsArena.AgentResult[]","components":[{"name":"agentId","type":"uint256","internalType":"uint256"},{"name":"finalHp","type":"uint256","internalType":"uint256"},{"name":"kills","type":"uint256","internalType":"uint256"},{"name":"survivedEpochs","type":"uint256","internalType":"uint256"},{"name":"isWinner","type":"bool","internalType":"bool"}]}],"outputs":[],"stateMutability":"nonpayable"},{"type":"function","name":"registerBattle","inputs":[{"name":"_battleId","type":"bytes32","internalType":"bytes32"},{"name":"_agentIds","type":"uint256[]","internalType":"uint256[]"},{"name":"_entryFee","type":"uint256","internalType":"uint256"}],"outputs":[],"stateMutability":"nonpayable"},{"type":"function","name":"renounceOwnership","inputs":[],"outputs":[],"stateMutability":"nonpayable"},{"type":"function","name":"setHnadsToken","inputs":[{"name":"_hnadsToken","type":"address","internalType":"address"}],"outputs":[],"stateMutability":"nonpayable"},{"type":"function","name":"setOracle","inputs":[{"name":"_oracle","type":"address","internalType":"address"}],"outputs":[],"stateMutability":"nonpayable"},{"type":"function","name":"setTreasury","inputs":[{"name":"_treasury","type":"address","internalType":"address"}],"outputs":[],"stateMutability":"nonpayable"},{"type":"function","name":"transferHnadsToTreasury","inputs":[{"name":"_battleId","type":"bytes32","internalType":"bytes32"}],"outputs":[],"stateMutability":"nonpayable"},{"type":"function","name":"transferOwnership","inputs":[{"name":"newOwner","type":"address","internalType":"address"}],"outputs":[],"stateMutability":"nonpayable"},{"type":"function","name":"treasury","inputs":[],"outputs":[{"name":"","type":"address","internalType":"address"}],"stateMutability":"view"},{"type":"function","name":"upgradeToAndCall","inputs":[{"name":"newImplementation","type":"address","internalType":"address"},{"name":"data","type":"bytes","internalType":"bytes"}],"outputs":[],"stateMutability":"payable"},{"type":"function","name":"withdrawFees","inputs":[{"name":"_battleId","type":"bytes32","internalType":"bytes32"}],"outputs":[],"stateMutability":"nonpayable"},{"type":"event","name":"AgentEliminated","inputs":[{"name":"battleId","type":"bytes32","indexed":true,"internalType":"bytes32"},{"name":"agentId","type":"uint256","indexed":true,"internalType":"uint256"},{"name":"finalHp","type":"uint256","indexed":false,"internalType":"uint256"},{"name":"kills","type":"uint256","indexed":false,"internalType":"uint256"}],"anonymous":false},{"type":"event","name":"AgentRegistered","inputs":[{"name":"agentId","type":"uint256","indexed":true,"internalType":"uint256"}],"anonymous":false},{"type":"event","name":"BattleActivated","inputs":[{"name":"battleId","type":"bytes32","indexed":true,"internalType":"bytes32"}],"anonymous":false},{"type":"event","name":"BattleCompleted","inputs":[{"name":"battleId","type":"bytes32","indexed":true,"internalType":"bytes32"},{"name":"winnerId","type":"uint256","indexed":true,"internalType":"uint256"}],"anonymous":false},{"type":"event","name":"BattleCreated","inputs":[{"name":"battleId","type":"bytes32","indexed":true,"internalType":"bytes32"},{"name":"agentIds","type":"uint256[]","indexed":false,"internalType":"uint256[]"}],"anonymous":false},{"type":"event","name":"EntryFeePaid","inputs":[{"name":"battleId","type":"bytes32","indexed":true,"internalType":"bytes32"},{"name":"player","type":"address","indexed":true,"internalType":"address"},{"name":"amount","type":"uint256","indexed":false,"internalType":"uint256"}],"anonymous":false},{"type":"event","name":"FeesWithdrawn","inputs":[{"name":"battleId","type":"bytes32","indexed":true,"internalType":"bytes32"},{"name":"to","type":"address","indexed":true,"internalType":"address"},{"name":"amount","type":"uint256","indexed":false,"internalType":"uint256"}],"anonymous":false},{"type":"event","name":"HnadsBurned","inputs":[{"name":"battleId","type":"bytes32","indexed":true,"internalType":"bytes32"},{"name":"amount","type":"uint256","indexed":false,"internalType":"uint256"}],"anonymous":false},{"type":"event","name":"HnadsFeeDeposited","inputs":[{"name":"battleId","type":"bytes32","indexed":true,"internalType":"bytes32"},{"name":"player","type":"address","indexed":true,"internalType":"address"},{"name":"amount","type":"uint256","indexed":false,"internalType":"uint256"}],"anonymous":false},{"type":"event","name":"HnadsTokenUpdated","inputs":[{"name":"previousToken","type":"address","indexed":true,"internalType":"address"},{"name":"newToken","type":"address","indexed":true,"internalType":"address"}],"anonymous":false},{"type":"event","name":"HnadsTreasuryTransferred","inputs":[{"name":"battleId","type":"bytes32","indexed":true,"internalType":"bytes32"},{"name":"amount","type":"uint256","indexed":false,"internalType":"uint256"}],"anonymous":false},{"type":"event","name":"Initialized","inputs":[{"name":"version","type":"uint64","indexed":false,"internalType":"uint64"}],"anonymous":false},{"type":"event","name":"OracleUpdated","inputs":[{"name":"previousOracle","type":"address","indexed":true,"internalType":"address"},{"name":"newOracle","type":"address","indexed":true,"internalType":"address"}],"anonymous":false},{"type":"event","name":"OwnershipTransferred","inputs":[{"name":"previousOwner","type":"address","indexed":true,"internalType":"address"},{"name":"newOwner","type":"address","indexed":true,"internalType":"address"}],"anonymous":false},{"type":"event","name":"TreasuryUpdated","inputs":[{"name":"previousTreasury","type":"address","indexed":true,"internalType":"address"},{"name":"newTreasury","type":"address","indexed":true,"internalType":"address"}],"anonymous":false},{"type":"event","name":"Upgraded","inputs":[{"name":"implementation","type":"address","indexed":true,"internalType":"address"}],"anonymous":false},{"type":"error","name":"AddressEmptyCode","inputs":[{"name":"target","type":"address","internalType":"address"}]},{"type":"error","name":"AlreadyPaid","inputs":[]},{"type":"error","name":"BattleAlreadyExists","inputs":[{"name":"battleId","type":"bytes32","internalType":"bytes32"}]},{"type":"error","name":"BattleNotCompleted","inputs":[]},{"type":"error","name":"BattleNotFound","inputs":[{"name":"battleId","type":"bytes32","internalType":"bytes32"}]},{"type":"error","name":"ERC1967InvalidImplementation","inputs":[{"name":"implementation","type":"address","internalType":"address"}]},{"type":"error","name":"ERC1967NonPayable","inputs":[]},{"type":"error","name":"FailedCall","inputs":[]},{"type":"error","name":"HnadsTokenNotSet","inputs":[]},{"type":"error","name":"HnadsTransferFailed","inputs":[]},{"type":"error","name":"IncorrectFeeAmount","inputs":[]},{"type":"error","name":"InsufficientHnadsBalance","inputs":[]},{"type":"error","name":"InvalidAgentCount","inputs":[]},{"type":"error","name":"InvalidBattleState","inputs":[{"name":"battleId","type":"bytes32","internalType":"bytes32"},{"name":"current","type":"uint8","internalType":"enum HungernadsArena.BattleState"},{"name":"expected","type":"uint8","internalType":"enum HungernadsArena.BattleState"}]},{"type":"error","name":"InvalidInitialization","inputs":[]},{"type":"error","name":"NoFeeRequired","inputs":[]},{"type":"error","name":"NoFeesToWithdraw","inputs":[]},{"type":"error","name":"NotInitializing","inputs":[]},{"type":"error","name":"OnlyOracle","inputs":[]},{"type":"error","name":"OwnableInvalidOwner","inputs":[{"name":"owner","type":"address","internalType":"address"}]},{"type":"error","name":"OwnableUnauthorizedAccount","inputs":[{"name":"account","type":"address","internalType":"address"}]},{"type":"error","name":"ResultAgentMismatch","inputs":[{"name":"battleId","type":"bytes32","internalType":"bytes32"}]},{"type":"error","name":"UUPSUnauthorizedCallContext","inputs":[]},{"type":"error","name":"UUPSUnsupportedProxiableUUID","inputs":[{"name":"slot","type":"bytes32","internalType":"bytes32"}]},{"type":"error","name":"ZeroAddress","inputs":[]}],"bytecode":{"object":"0x60a06040523060805234801562000014575f80fd5b506200001f62000025565b620000d9565b7ff0c57e16840df040f15088dc2f81fe391c3923bec73e23a9662efc9c229c6a00805468010000000000000000900460ff1615620000765760405163f92ee8a960e01b815260040160405180910390fd5b80546001600160401b0390811614620000d65780546001600160401b0319166001600160401b0390811782556040519081527fc7f505b2f371ae2175ee4913f4499e1f2633a7b5936321eed1cdaeb6115181d29060200160405180910390a15b50565b608051612a3a620001005f395f8181611f9c01528181611fc501526121040152612a3a5ff3fe608060405260043610610233575f3560e01c80637dc0d1d011610129578063e6b65a22116100a8578063f2fde38b1161006d578063f2fde38b14610872578063f470d5ec14610891578063f7c38891146108a5578063fccc2813146108de578063fe933691146108f3575f80fd5b8063e6b65a22146107d7578063e93b5cdd146107ea578063ebb7119414610815578063f0f4426014610834578063f167fa2e14610853575f80fd5b8063ad141341116100ee578063ad14134114610706578063ad3cb1cc14610725578063c4d66de814610762578063d39a2abd14610781578063e1a41570146107ac575f80fd5b80637dc0d1d01461066b5780638da5cb5b146106895780639932b3041461069d5780639978bf6d146106bc578063a13477d2146106e7575f80fd5b80634f1ef286116101b557806371337eaf1161017a57806371337eaf146105a7578063715018a6146105d3578063780645b91461025857806378547e6c146105e75780637adbf9731461064c575f80fd5b80634f1ef286146104b0578063513f3f27146104c357806352d1902d146104e257806361d027b314610504578063680916331461053b575f80fd5b8063355d1184116101fb578063355d118414610303578063402add081461038057806341935b06146104035780634225483d1461046557806343cc221314610484575f80fd5b8063075d6a351461023757806315dcf083146102585780631a6f5ff5146102775780632c56a7be14610296578063353738ca146102b5575b5f80fd5b348015610242575f80fd5b5061025661025136600461243c565b610912565b005b348015610263575f80fd5b5061025661027236600461246e565b610adb565b348015610282575f80fd5b50610256610291366004612496565b610bf5565b3480156102a1575f80fd5b506102566102b03660046124b6565b610c75565b3480156102c0575f80fd5b506102ee6102cf3660046124d6565b600560209081525f928352604080842090915290825290205460ff1681565b60405190151581526020015b60405180910390f35b34801561030e575f80fd5b5061035661031d3660046124b6565b600260208181525f9384526040808520909152918352912080546001820154928201546003830154600490930154919392909160ff1685565b6040805195865260208601949094529284019190915260608301521515608082015260a0016102fa565b34801561038b575f80fd5b506103d461039a36600461243c565b600360208190525f918252604090912080546001820154600283015493830154600484015460059094015492949193919290919060ff1686565b6040805196875260208701959095529385019290925260608401526080830152151560a082015260c0016102fa565b34801561040e575f80fd5b5061042261041d3660046124b6565b610e5d565b6040516102fa91905f60a0820190508251825260208301516020830152604083015160408301526060830151606083015260808301511515608083015292915050565b348015610470575f80fd5b5061025661047f366004612500565b610ee8565b34801561048f575f80fd5b506104a361049e36600461243c565b6111b4565b6040516102fa91906125b2565b6102566104be36600461265d565b6112c4565b3480156104ce575f80fd5b506102566104dd36600461243c565b6112df565b3480156104ed575f80fd5b506104f66113d2565b6040519081526020016102fa565b34801561050f575f80fd5b50600854610523906001600160a01b031681565b6040516001600160a01b0390911681526020016102fa565b348015610546575f80fd5b5061055a61055536600461243c565b6113ed565b6040516102fa91905f60c082019050825182526020830151602083015260408301516040830152606083015160608301526080830151608083015260a0830151151560a083015292915050565b3480156105b2575f80fd5b506105c66105c136600461243c565b61147e565b6040516102fa9190612719565b3480156105de575f80fd5b506102566114e0565b3480156105f2575f80fd5b5061063a61060136600461243c565b600160208190525f918252604090912080549181015460038201546004830154600584015460069094015460ff90931693919290919086565b6040516102fa9695949392919061275c565b348015610657575f80fd5b50610256610666366004612496565b6114f3565b348015610676575f80fd5b505f54610523906001600160a01b031681565b348015610694575f80fd5b50610523611571565b3480156106a8575f80fd5b506102566106b7366004612793565b61159f565b3480156106c7575f80fd5b506104f66106d636600461243c565b600a6020525f908152604090205481565b3480156106f2575f80fd5b506104f661070136600461243c565b611818565b348015610711575f80fd5b50600754610523906001600160a01b031681565b348015610730575f80fd5b50610755604051806040016040528060058152602001640352e302e360dc1b81525081565b6040516102fa919061280f565b34801561076d575f80fd5b5061025661077c366004612496565b611837565b34801561078c575f80fd5b506104f661079b36600461243c565b60066020525f908152604090205481565b3480156107b7575f80fd5b506104f66107c636600461243c565b600c6020525f908152604090205481565b6102566107e536600461243c565b61199e565b3480156107f5575f80fd5b506104f661080436600461243c565b600b6020525f908152604090205481565b348015610820575f80fd5b5061025661082f36600461243c565b611ae5565b34801561083f575f80fd5b5061025661084e366004612496565b611c2b565b34801561085e575f80fd5b5061025661086d36600461243c565b611cab565b34801561087d575f80fd5b5061025661088c366004612496565b611e39565b34801561089c575f80fd5b506004546104f6565b3480156108b0575f80fd5b506102ee6108bf3660046124d6565b600960209081525f928352604080842090915290825290205460ff1681565b3480156108e9575f80fd5b5061052361dead81565b3480156108fe575f80fd5b506105c661090d3660046124b6565b611e73565b5f546001600160a01b0316331461093c576040516380fee10560e01b815260040160405180910390fd5b5f8181526001602052604090206003600182015460ff1660038111156109645761096461257e565b1461098257604051635b6d970760e11b815260040160405180910390fd5b6008546001600160a01b03166109ab5760405163d92e233d60e01b815260040160405180910390fd5b5f828152600a6020526040812054908190036109c657505050565b5f6109d260028361286f565b9050805f036109e15750505050565b60075460085460405163a9059cbb60e01b81526001600160a01b039182166004820152602481018490525f92919091169063a9059cbb906044016020604051808303815f875af1158015610a37573d5f803e3d5ffd5b505050506040513d601f19601f82011682018060405250810190610a5b919061289b565b905080610a7b5760405163aa27f2d960e01b815260040160405180910390fd5b5f858152600c602052604081208054849290610a989084906128b6565b909155505060405182815285907f6fa55325f7a0b3ba3d523b9711f305ff3bd148ce69fea16a69cfa3a2d2847db7906020015b60405180910390a2505050505b50565b5f546001600160a01b03163314610b05576040516380fee10560e01b815260040160405180910390fd5b6007546001600160a01b0316610b2e57604051631e53c1c760e01b815260040160405180910390fd5b6001600160a01b038216610b555760405163d92e233d60e01b815260040160405180910390fd5b8015610bf15760075460405163a9059cbb60e01b81526001600160a01b038481166004830152602482018490525f92169063a9059cbb906044016020604051808303815f875af1158015610bab573d5f803e3d5ffd5b505050506040513d601f19601f82011682018060405250810190610bcf919061289b565b905080610bef5760405163aa27f2d960e01b815260040160405180910390fd5b505b5050565b610bfd611f5f565b6001600160a01b038116610c245760405163d92e233d60e01b815260040160405180910390fd5b600780546001600160a01b038381166001600160a01b0319831681179093556040519116919082907f172678ae5581192f99caeec0909b7eef0b8d527e0f21cced883f12e17ec272b4905f90a35050565b5f82815260016020526040812090600182015460ff166003811115610c9c57610c9c61257e565b03610cc257604051631ad8171960e11b8152600481018490526024015b60405180910390fd5b6007546001600160a01b0316610ceb57604051631e53c1c760e01b815260040160405180910390fd5b815f03610d0b57604051631fbbed9560e01b815260040160405180910390fd5b5f83815260096020908152604080832033845290915290205460ff1615610d4557604051630d70a0e360e41b815260040160405180910390fd5b6007546040516323b872dd60e01b8152336004820152306024820152604481018490525f916001600160a01b0316906323b872dd906064016020604051808303815f875af1158015610d99573d5f803e3d5ffd5b505050506040513d601f19601f82011682018060405250810190610dbd919061289b565b905080610ddd5760405163aa27f2d960e01b815260040160405180910390fd5b5f8481526009602090815260408083203384528252808320805460ff19166001179055868352600a90915281208054859290610e1a9084906128b6565b9091555050604051838152339085907f81a0465a6f4791a2d9ef647aad5ee35bbb03d2f902fb5a4707043a53e86dcaca906020015b60405180910390a350505050565b610e8c6040518060a001604052805f81526020015f81526020015f81526020015f81526020015f151581525090565b505f828152600260208181526040808420858552825292839020835160a081018552815481526001820154928101929092529182015492810192909252600381015460608301526004015460ff16151560808201525b92915050565b5f546001600160a01b03163314610f12576040516380fee10560e01b815260040160405180910390fd5b5f8481526001602081905260408220015460ff166003811115610f3757610f3761257e565b14610f5857604051633c80e6e760e11b815260048101859052602401610cb9565b6002821015610f7a57604051631cd8dc2160e31b815260040160405180910390fd5b6040805160e0810190915284815260208101600181526020018484808060200260200160405190810160405280939291908181526020018383602002808284375f9201829052509385525050506020808301829052426040808501919091526060840183905260809093018590528782526001808252929091208351815590830151818301805492939192909160ff19909116908360038111156110205761102061257e565b0217905550604082015180516110409160028401916020909101906123df565b5060608201516003820155608082015160048083019190915560a0830151600583015560c09092015160069091015580546001810182555f9182527f8a35acfbc15ff81a39ae7d344fd709f28e8600b4aa8c65c6b64bfe7fe36bd19b018590555b828110156111735760035f8585848181106110be576110be6128c9565b602090810292909201358352508101919091526040015f206005015460ff1661116b57600160035f8686858181106110f8576110f86128c9565b9050602002013581526020019081526020015f206005015f6101000a81548160ff021916908315150217905550838382818110611137576111376128c9565b905060200201357f7889fb3af617fa63644484c3243b8aa95edf844fcdff4c9160adf5de94d7225560405160405180910390a25b6001016110a1565b50837f869a13f1013d86015acc1955a0e1087ad5135eb7fa3f07bc54bc8aa17df0aad484846040516111a69291906128dd565b60405180910390a250505050565b6111f06040805160e081019091525f80825260208201908152602001606081526020015f81526020015f81526020015f81526020015f81525090565b5f82815260016020818152604092839020835160e0810190945280548452918201549083019060ff16600381111561122a5761122a61257e565b600381111561123b5761123b61257e565b81526020016002820180548060200260200160405190810160405280929190818152602001828054801561128c57602002820191905f5260205f20905b815481526020019060010190808311611278575b505050505081526020016003820154815260200160048201548152602001600582015481526020016006820154815250509050919050565b6112cc611f91565b6112d582612035565b610bf1828261203d565b5f546001600160a01b03163314611309576040516380fee10560e01b815260040160405180910390fd5b5f81815260016020526040812090600182015460ff1660038111156113305761133061257e565b0361135157604051631ad8171960e11b815260048101839052602401610cb9565b60018082015460ff16600381111561136b5761136b61257e565b1461139557600180820154604051631f6fdc1960e21b8152610cb992859260ff1691600401612914565b60018101805460ff1916600217905560405182907fd1ddc3dd6519e56d82f5c020bbd2401678c00812f6851cded6681cd68d762024905f90a25050565b5f6113db6120f9565b505f805160206129e583398151915290565b6114226040518060c001604052805f81526020015f81526020015f81526020015f81526020015f81526020015f151581525090565b505f90815260036020818152604092839020835160c081018552815481526001820154928101929092526002810154938201939093529082015460608201526004820154608082015260059091015460ff16151560a082015290565b5f818152600160209081526040918290206002018054835181840281018401909452808452606093928301828280156114d457602002820191905f5260205f20905b8154815260200190600101908083116114c0575b50505050509050919050565b6114e8611f5f565b6114f15f612142565b565b6114fb611f5f565b6001600160a01b0381166115225760405163d92e233d60e01b815260040160405180910390fd5b5f80546001600160a01b038381166001600160a01b0319831681178455604051919092169283917f078c3b417dadf69374a59793b829c52001247130433427049317bde56607b1b79190a35050565b7f9016d09d72d40fdae2fd8ceac6b6234c7706214fd39c1cd1e609a0528c199300546001600160a01b031690565b5f546001600160a01b031633146115c9576040516380fee10560e01b815260040160405180910390fd5b5f84815260016020526040812090600182015460ff1660038111156115f0576115f061257e565b0361161157604051631ad8171960e11b815260048101869052602401610cb9565b6002600182015460ff16600381111561162c5761162c61257e565b1461165a576001810154604051631f6fdc1960e21b8152610cb991879160ff90911690600290600401612914565b6002810154821461168157604051639835811560e01b815260048101869052602401610cb9565b60018101805460ff1916600390811790915581018490554260058201555f5b828110156117e457368484838181106116bb576116bb6128c9565b5f8a815260026020908152604080832060a0909402959095018035835292905292909220919250829190506116f0828261293d565b505080355f90815260036020819052604082209081018054919261171383612987565b91905055508160400135816002015f82825461172f91906128b6565b925050819055508160600135816004015f82825461174d91906128b6565b90915550611763905060a083016080840161299f565b1561177f578054815f61177583612987565b91905055506117da565b600181018054905f61179083612987565b909155505060408051602080850135825282850135908201528335918a917fbbc2b3774fbc5d04c2f937d8a07a25372bad7d0af324f1770cf7a3239083aa4e910160405180910390a35b50506001016116a0565b50604051849086907f3369448929aa7c2137b2d7398f1b4187901539e64814e7c27a133fb4d6e41400905f90a35050505050565b60048181548110611827575f80fd5b5f91825260209091200154905081565b5f6118406121b2565b805490915060ff600160401b820416159067ffffffffffffffff165f811580156118675750825b90505f8267ffffffffffffffff1660011480156118835750303b155b905081158015611891575080155b156118af5760405163f92ee8a960e01b815260040160405180910390fd5b845467ffffffffffffffff1916600117855583156118d957845460ff60401b1916600160401b1785555b6001600160a01b0386166119005760405163d92e233d60e01b815260040160405180910390fd5b611909336121da565b5f80546001600160a01b0319166001600160a01b03881690811782556040519091907f078c3b417dadf69374a59793b829c52001247130433427049317bde56607b1b7908290a3831561199657845460ff60401b19168555604051600181527fc7f505b2f371ae2175ee4913f4499e1f2633a7b5936321eed1cdaeb6115181d29060200160405180910390a15b505050505050565b5f81815260016020526040812090600182015460ff1660038111156119c5576119c561257e565b036119e657604051631ad8171960e11b815260048101839052602401610cb9565b80600601545f03611a0a57604051630603415960e11b815260040160405180910390fd5b80600601543414611a2e57604051631fbbed9560e01b815260040160405180910390fd5b5f82815260056020908152604080832033845290915290205460ff1615611a6857604051630d70a0e360e41b815260040160405180910390fd5b5f8281526005602090815260408083203384528252808320805460ff19166001179055848352600690915281208054349290611aa59084906128b6565b9091555050604051348152339083907fcd2088ffeb057e96f56fe608a2f8588c7c8dddddd6a60000d39f7b3b2527246b9060200160405180910390a35050565b611aed611f5f565b5f8181526001602052604090206003600182015460ff166003811115611b1557611b1561257e565b14611b3357604051635b6d970760e11b815260040160405180910390fd5b5f8281526006602052604081205490819003611b6257604051630d00db4d60e31b815260040160405180910390fd5b5f838152600660205260408120819055611b7a611571565b6001600160a01b0316826040515f6040518083038185875af1925050503d805f8114611bc1576040519150601f19603f3d011682016040523d82523d5f602084013e611bc6565b606091505b5050905080611be85760405163d92e233d60e01b815260040160405180910390fd5b611bf0611571565b6001600160a01b0316847f7dae2ebbcfe5496fc999131fbc530cc1579c5bfe5097a2986d5fa4b5e06e92b584604051610e4f91815260200190565b611c33611f5f565b6001600160a01b038116611c5a5760405163d92e233d60e01b815260040160405180910390fd5b600880546001600160a01b038381166001600160a01b0319831681179093556040519116919082907f4ab5be82436d353e61ca18726e984e561f5c1cc7c6d38b29d2553c790434705a905f90a35050565b5f546001600160a01b03163314611cd5576040516380fee10560e01b815260040160405180910390fd5b5f8181526001602052604090206003600182015460ff166003811115611cfd57611cfd61257e565b14611d1b57604051635b6d970760e11b815260040160405180910390fd5b5f828152600a602052604081205490819003611d3657505050565b5f611d4260028361286f565b9050805f03611d515750505050565b60075460405163a9059cbb60e01b815261dead6004820152602481018390525f916001600160a01b03169063a9059cbb906044016020604051808303815f875af1158015611da1573d5f803e3d5ffd5b505050506040513d601f19601f82011682018060405250810190611dc5919061289b565b905080611de55760405163aa27f2d960e01b815260040160405180910390fd5b5f858152600b602052604081208054849290611e029084906128b6565b909155505060405182815285907f9b1a616010972142a3cfa90fdc812e73dd40034c6fe3de0f1df0993caddd938890602001610acb565b611e41611f5f565b6001600160a01b038116611e6a57604051631e4fbdf760e01b81525f6004820152602401610cb9565b610ad881612142565b600454606090808410611e95575050604080515f815260208101909152610ee2565b5f611ea084866128b6565b905081811115611ead5750805b5f611eb886836129ba565b90505f8167ffffffffffffffff811115611ed457611ed4612649565b604051908082528060200260200182016040528015611efd578160200160208202803683370190505b5090505f5b82811015611f54576004611f16828a6128b6565b81548110611f2657611f266128c9565b905f5260205f200154828281518110611f4157611f416128c9565b6020908102919091010152600101611f02565b509695505050505050565b33611f68611571565b6001600160a01b0316146114f15760405163118cdaa760e01b8152336004820152602401610cb9565b306001600160a01b037f000000000000000000000000000000000000000000000000000000000000000016148061201757507f00000000000000000000000000000000000000000000000000000000000000006001600160a01b031661200b5f805160206129e5833981519152546001600160a01b031690565b6001600160a01b031614155b156114f15760405163703e46dd60e11b815260040160405180910390fd5b610ad8611f5f565b816001600160a01b03166352d1902d6040518163ffffffff1660e01b8152600401602060405180830381865afa925050508015612097575060408051601f3d908101601f19168201909252612094918101906129cd565b60015b6120bf57604051634c9c8ce360e01b81526001600160a01b0383166004820152602401610cb9565b5f805160206129e583398151915281146120ef57604051632a87526960e21b815260048101829052602401610cb9565b610bef83836121eb565b306001600160a01b037f000000000000000000000000000000000000000000000000000000000000000016146114f15760405163703e46dd60e11b815260040160405180910390fd5b7f9016d09d72d40fdae2fd8ceac6b6234c7706214fd39c1cd1e609a0528c19930080546001600160a01b031981166001600160a01b03848116918217845560405192169182907f8be0079c531659141344cd1fd0a4f28419497f9722a3daafe3b4186f6b6457e0905f90a3505050565b5f807ff0c57e16840df040f15088dc2f81fe391c3923bec73e23a9662efc9c229c6a00610ee2565b6121e2612240565b610ad881612265565b6121f48261226d565b6040516001600160a01b038316907fbc7cd75a20ee27fd9adebab32041f755214dbc6bffa90cc0225b39da2e5c2d3b905f90a280511561223857610bef82826122d0565b610bf1612370565b61224861238f565b6114f157604051631afcd79f60e31b815260040160405180910390fd5b611e41612240565b806001600160a01b03163b5f036122a257604051634c9c8ce360e01b81526001600160a01b0382166004820152602401610cb9565b5f805160206129e583398151915280546001600160a01b0319166001600160a01b0392909216919091179055565b60605f6122dd84846123a8565b90508080156122fe57505f3d11806122fe57505f846001600160a01b03163b115b156123135761230b6123bb565b915050610ee2565b801561233d57604051639996b31560e01b81526001600160a01b0385166004820152602401610cb9565b3d156123505761234b6123d4565b612369565b60405163d6bda27560e01b815260040160405180910390fd5b5092915050565b34156114f15760405163b398979f60e01b815260040160405180910390fd5b5f6123986121b2565b54600160401b900460ff16919050565b5f805f835160208501865af49392505050565b6040513d81523d5f602083013e3d602001810160405290565b6040513d5f823e3d81fd5b828054828255905f5260205f20908101928215612418579160200282015b828111156124185782518255916020019190600101906123fd565b50612424929150612428565b5090565b5b80821115612424575f8155600101612429565b5f6020828403121561244c575f80fd5b5035919050565b80356001600160a01b0381168114612469575f80fd5b919050565b5f806040838503121561247f575f80fd5b61248883612453565b946020939093013593505050565b5f602082840312156124a6575f80fd5b6124af82612453565b9392505050565b5f80604083850312156124c7575f80fd5b50508035926020909101359150565b5f80604083850312156124e7575f80fd5b823591506124f760208401612453565b90509250929050565b5f805f8060608587031215612513575f80fd5b84359350602085013567ffffffffffffffff80821115612531575f80fd5b818701915087601f830112612544575f80fd5b813581811115612552575f80fd5b8860208260051b8501011115612566575f80fd5b95986020929092019750949560400135945092505050565b634e487b7160e01b5f52602160045260245ffd5b600481106125ae57634e487b7160e01b5f52602160045260245ffd5b9052565b5f60208083526101008301845182850152818501516125d46040860182612592565b50604085015160e060608601528051918290528201905f906101208601905b8083101561261357835182529284019260019290920191908401906125f3565b5060608701516080870152608087015160a087015260a087015160c087015260c087015160e08701528094505050505092915050565b634e487b7160e01b5f52604160045260245ffd5b5f806040838503121561266e575f80fd5b61267783612453565b9150602083013567ffffffffffffffff80821115612693575f80fd5b818501915085601f8301126126a6575f80fd5b8135818111156126b8576126b8612649565b604051601f8201601f19908116603f011681019083821181831017156126e0576126e0612649565b816040528281528860208487010111156126f8575f80fd5b826020860160208301375f6020848301015280955050505050509250929050565b602080825282518282018190525f9190848201906040850190845b8181101561275057835183529284019291840191600101612734565b50909695505050505050565b86815260c081016127706020830188612592565b8560408301528460608301528360808301528260a0830152979650505050505050565b5f805f80606085870312156127a6575f80fd5b8435935060208501359250604085013567ffffffffffffffff808211156127cb575f80fd5b818701915087601f8301126127de575f80fd5b8135818111156127ec575f80fd5b88602060a083028501011115612800575f80fd5b95989497505060200194505050565b5f602080835283518060208501525f5b8181101561283b5785810183015185820160400152820161281f565b505f604082860101526040601f19601f8301168501019250505092915050565b634e487b7160e01b5f52601160045260245ffd5b5f8261288957634e487b7160e01b5f52601260045260245ffd5b500490565b8015158114610ad8575f80fd5b5f602082840312156128ab575f80fd5b81516124af8161288e565b80820180821115610ee257610ee261285b565b634e487b7160e01b5f52603260045260245ffd5b602080825281018290525f6001600160fb1b038311156128fb575f80fd5b8260051b80856040850137919091016040019392505050565b838152606081016129286020830185612592565b6129356040830184612592565b949350505050565b813581556020820135600182015560408201356002820155606082013560038201556004810160808301356129718161288e565b815490151560ff1660ff19919091161790555050565b5f600182016129985761299861285b565b5060010190565b5f602082840312156129af575f80fd5b81356124af8161288e565b81810381811115610ee257610ee261285b565b5f602082840312156129dd575f80fd5b505191905056fe360894a13ba1a3210667c828492db98dca3e2076cc3735a920a3ca505d382bbca26469706673582212205883cad02099ab3da43679fa0c4c23767cf7556213d03324586e71dc03f8f74f64736f6c63430008180033","linkReferences":{}},"methodIdentifiers":{"BURN_ADDRESS()":"fccc2813","UPGRADE_INTERFACE_VERSION()":"ad3cb1cc","activateBattle(bytes32)":"513f3f27","agentStats(uint256)":"402add08","awardKillBonus(address,uint256)":"15dcf083","awardSurvivalBonus(address,uint256)":"780645b9","battleIds(uint256)":"a13477d2","battleResults(bytes32,uint256)":"355d1184","battles(bytes32)":"78547e6c","burnHnads(bytes32)":"f167fa2e","depositHnadsFee(bytes32,uint256)":"2c56a7be","feePaid(bytes32,address)":"353738ca","feesCollected(bytes32)":"d39a2abd","getAgentStats(uint256)":"68091633","getBattle(bytes32)":"43cc2213","getBattleAgents(bytes32)":"71337eaf","getBattleCount()":"f470d5ec","getBattleIds(uint256,uint256)":"fe933691","getBattleResult(bytes32,uint256)":"41935b06","hnadsBurned(bytes32)":"e93b5cdd","hnadsFeePaid(bytes32,address)":"f7c38891","hnadsFeesCollected(bytes32)":"9978bf6d","hnadsToken()":"ad141341","hnadsTreasury(bytes32)":"e1a41570","initialize(address)":"c4d66de8","oracle()":"7dc0d1d0","owner()":"8da5cb5b","payEntryFee(bytes32)":"e6b65a22","proxiableUUID()":"52d1902d","recordResult(bytes32,uint256,(uint256,uint256,uint256,uint256,bool)[])":"9932b304","registerBattle(bytes32,uint256[],uint256)":"4225483d","renounceOwnership()":"715018a6","setHnadsToken(address)":"1a6f5ff5","setOracle(address)":"7adbf973","setTreasury(address)":"f0f44260","transferHnadsToTreasury(bytes32)":"075d6a35","transferOwnership(address)":"f2fde38b","treasury()":"61d027b3","upgradeToAndCall(address,bytes)":"4f1ef286","withdrawFees(bytes32)":"ebb71194"},"id":49}