{"abi":[{"type":"constructor","inputs":[{"name":"_oracle","type":"address","internalType":"address"}],"stateMutability":"nonpayable"},{"type":"function","name":"activateBattle","inputs":[{"name":"_battleId","type":"bytes32","internalType":"bytes32"}],"outputs":[],"stateMutability":"nonpayable"},{"type":"function","name":"agentStats","inputs":[{"name":"","type":"uint256","internalType":"uint256"}],"outputs":[{"name":"wins","type":"uint256","internalType":"uint256"},{"name":"losses","type":"uint256","internalType":"uint256"},{"name":"kills","type":"uint256","internalType":"uint256"},{"name":"totalBattles","type":"uint256","internalType":"uint256"},{"name":"totalEpochsSurvived","type":"uint256","internalType":"uint256"},{"name":"exists","type":"bool","internalType":"bool"}],"stateMutability":"view"},{"type":"function","name":"battleIds","inputs":[{"name":"","type":"uint256","internalType":"uint256"}],"outputs":[{"name":"","type":"bytes32","internalType":"bytes32"}],"stateMutability":"view"},{"type":"function","name":"battleResults","inputs":[{"name":"","type":"bytes32","internalType":"bytes32"},{"name":"","type":"uint256","internalType":"uint256"}],"outputs":[{"name":"agentId","type":"uint256","internalType":"uint256"},{"name":"finalHp","type":"uint256","internalType":"uint256"},{"name":"kills","type":"uint256","internalType":"uint256"},{"name":"survivedEpochs","type":"uint256","internalType":"uint256"},{"name":"isWinner","type":"bool","internalType":"bool"}],"stateMutability":"view"},{"type":"function","name":"battles","inputs":[{"name":"","type":"bytes32","internalType":"bytes32"}],"outputs":[{"name":"battleId","type":"bytes32","internalType":"bytes32"},{"name":"state","type":"uint8","internalType":"enum HungernadsArena.BattleState"},{"name":"winnerId","type":"uint256","internalType":"uint256"},{"name":"createdAt","type":"uint256","internalType":"uint256"},{"name":"completedAt","type":"uint256","internalType":"uint256"}],"stateMutability":"view"},{"type":"function","name":"getAgentStats","inputs":[{"name":"_agentId","type":"uint256","internalType":"uint256"}],"outputs":[{"name":"","type":"tuple","internalType":"struct HungernadsArena.AgentStats","components":[{"name":"wins","type":"uint256","internalType":"uint256"},{"name":"losses","type":"uint256","internalType":"uint256"},{"name":"kills","type":"uint256","internalType":"uint256"},{"name":"totalBattles","type":"uint256","internalType":"uint256"},{"name":"totalEpochsSurvived","type":"uint256","internalType":"uint256"},{"name":"exists","type":"bool","internalType":"bool"}]}],"stateMutability":"view"},{"type":"function","name":"getBattle","inputs":[{"name":"_battleId","type":"bytes32","internalType":"bytes32"}],"outputs":[{"name":"","type":"tuple","internalType":"struct HungernadsArena.Battle","components":[{"name":"battleId","type":"bytes32","internalType":"bytes32"},{"name":"state","type":"uint8","internalType":"enum HungernadsArena.BattleState"},{"name":"agentIds","type":"uint256[]","internalType":"uint256[]"},{"name":"winnerId","type":"uint256","internalType":"uint256"},{"name":"createdAt","type":"uint256","internalType":"uint256"},{"name":"completedAt","type":"uint256","internalType":"uint256"}]}],"stateMutability":"view"},{"type":"function","name":"getBattleAgents","inputs":[{"name":"_battleId","type":"bytes32","internalType":"bytes32"}],"outputs":[{"name":"","type":"uint256[]","internalType":"uint256[]"}],"stateMutability":"view"},{"type":"function","name":"getBattleCount","inputs":[],"outputs":[{"name":"","type":"uint256","internalType":"uint256"}],"stateMutability":"view"},{"type":"function","name":"getBattleIds","inputs":[{"name":"_offset","type":"uint256","internalType":"uint256"},{"name":"_limit","type":"uint256","internalType":"uint256"}],"outputs":[{"name":"","type":"bytes32[]","internalType":"bytes32[]"}],"stateMutability":"view"},{"type":"function","name":"getBattleResult","inputs":[{"name":"_battleId","type":"bytes32","internalType":"bytes32"},{"name":"_agentId","type":"uint256","internalType":"uint256"}],"outputs":[{"name":"","type":"tuple","internalType":"struct HungernadsArena.AgentResult","components":[{"name":"agentId","type":"uint256","internalType":"uint256"},{"name":"finalHp","type":"uint256","internalType":"uint256"},{"name":"kills","type":"uint256","internalType":"uint256"},{"name":"survivedEpochs","type":"uint256","internalType":"uint256"},{"name":"isWinner","type":"bool","internalType":"bool"}]}],"stateMutability":"view"},{"type":"function","name":"oracle","inputs":[],"outputs":[{"name":"","type":"address","internalType":"address"}],"stateMutability":"view"},{"type":"function","name":"owner","inputs":[],"outputs":[{"name":"","type":"address","internalType":"address"}],"stateMutability":"view"},{"type":"function","name":"recordResult","inputs":[{"name":"_battleId","type":"bytes32","internalType":"bytes32"},{"name":"_winnerId","type":"uint256","internalType":"uint256"},{"name":"_results","type":"tuple[]","internalType":"struct HungernadsArena.AgentResult[]","components":[{"name":"agentId","type":"uint256","internalType":"uint256"},{"name":"finalHp","type":"uint256","internalType":"uint256"},{"name":"kills","type":"uint256","internalType":"uint256"},{"name":"survivedEpochs","type":"uint256","internalType":"uint256"},{"name":"isWinner","type":"bool","internalType":"bool"}]}],"outputs":[],"stateMutability":"nonpayable"},{"type":"function","name":"registerBattle","inputs":[{"name":"_battleId","type":"bytes32","internalType":"bytes32"},{"name":"_agentIds","type":"uint256[]","internalType":"uint256[]"}],"outputs":[],"stateMutability":"nonpayable"},{"type":"function","name":"renounceOwnership","inputs":[],"outputs":[],"stateMutability":"nonpayable"},{"type":"function","name":"setOracle","inputs":[{"name":"_oracle","type":"address","internalType":"address"}],"outputs":[],"stateMutability":"nonpayable"},{"type":"function","name":"transferOwnership","inputs":[{"name":"newOwner","type":"address","internalType":"address"}],"outputs":[],"stateMutability":"nonpayable"},{"type":"event","name":"AgentEliminated","inputs":[{"name":"battleId","type":"bytes32","indexed":true,"internalType":"bytes32"},{"name":"agentId","type":"uint256","indexed":true,"internalType":"uint256"},{"name":"finalHp","type":"uint256","indexed":false,"internalType":"uint256"},{"name":"kills","type":"uint256","indexed":false,"internalType":"uint256"}],"anonymous":false},{"type":"event","name":"AgentRegistered","inputs":[{"name":"agentId","type":"uint256","indexed":true,"internalType":"uint256"}],"anonymous":false},{"type":"event","name":"BattleActivated","inputs":[{"name":"battleId","type":"bytes32","indexed":true,"internalType":"bytes32"}],"anonymous":false},{"type":"event","name":"BattleCompleted","inputs":[{"name":"battleId","type":"bytes32","indexed":true,"internalType":"bytes32"},{"name":"winnerId","type":"uint256","indexed":true,"internalType":"uint256"}],"anonymous":false},{"type":"event","name":"BattleCreated","inputs":[{"name":"battleId","type":"bytes32","indexed":true,"internalType":"bytes32"},{"name":"agentIds","type":"uint256[]","indexed":false,"internalType":"uint256[]"}],"anonymous":false},{"type":"event","name":"OracleUpdated","inputs":[{"name":"previousOracle","type":"address","indexed":true,"internalType":"address"},{"name":"newOracle","type":"address","indexed":true,"internalType":"address"}],"anonymous":false},{"type":"event","name":"OwnershipTransferred","inputs":[{"name":"previousOwner","type":"address","indexed":true,"internalType":"address"},{"name":"newOwner","type":"address","indexed":true,"internalType":"address"}],"anonymous":false},{"type":"error","name":"BattleAlreadyExists","inputs":[{"name":"battleId","type":"bytes32","internalType":"bytes32"}]},{"type":"error","name":"BattleNotFound","inputs":[{"name":"battleId","type":"bytes32","internalType":"bytes32"}]},{"type":"error","name":"InvalidAgentCount","inputs":[]},{"type":"error","name":"InvalidBattleState","inputs":[{"name":"battleId","type":"bytes32","internalType":"bytes32"},{"name":"current","type":"uint8","internalType":"enum HungernadsArena.BattleState"},{"name":"expected","type":"uint8","internalType":"enum HungernadsArena.BattleState"}]},{"type":"error","name":"OnlyOracle","inputs":[]},{"type":"error","name":"OwnableInvalidOwner","inputs":[{"name":"owner","type":"address","internalType":"address"}]},{"type":"error","name":"OwnableUnauthorizedAccount","inputs":[{"name":"account","type":"address","internalType":"address"}]},{"type":"error","name":"ResultAgentMismatch","inputs":[{"name":"battleId","type":"bytes32","internalType":"bytes32"}]},{"type":"error","name":"ZeroAddress","inputs":[]}],"bytecode":{"object":"0x608060405234801561000f575f80fd5b506040516114e93803806114e983398101604081905261002e91610121565b338061005357604051631e4fbdf760e01b81525f600482015260240160405180910390fd5b61005c816100d2565b506001600160a01b0381166100845760405163d92e233d60e01b815260040160405180910390fd5b600180546001600160a01b0319166001600160a01b0383169081179091556040515f907f078c3b417dadf69374a59793b829c52001247130433427049317bde56607b1b7908290a35061014e565b5f80546001600160a01b038381166001600160a01b0319831681178455604051919092169283917f8be0079c531659141344cd1fd0a4f28419497f9722a3daafe3b4186f6b6457e09190a35050565b5f60208284031215610131575f80fd5b81516001600160a01b0381168114610147575f80fd5b9392505050565b61138e8061015b5f395ff3fe608060405234801561000f575f80fd5b5060043610610111575f3560e01c80637adbf9731161009e578063a13477d21161006e578063a13477d2146103c5578063db53cdf3146103e6578063f2fde38b146103f9578063f470d5ec1461040c578063fe93369114610414575f80fd5b80637adbf973146103645780637dc0d1d0146103775780638da5cb5b146103a25780639932b304146103b2575f80fd5b8063513f3f27116100e4578063513f3f2714610276578063680916331461028b57806371337eaf146102eb578063715018a61461030b57806378547e6c14610313575f80fd5b8063355d118414610115578063402add081461018c57806341935b061461020057806343cc221314610256575b5f80fd5b61015d610123366004610f81565b600360208181525f938452604080852090915291835291208054600182015460028301549383015460049093015491939092909160ff1685565b6040805195865260208601949094529284019190915260608301521515608082015260a0015b60405180910390f35b6101d161019a366004610fa1565b600460208190525f918252604090912080546001820154600283015460038401549484015460059094015492949193909260ff1686565b6040805196875260208701959095529385019290925260608401526080830152151560a082015260c001610183565b61021361020e366004610f81565b610427565b60405161018391905f60a0820190508251825260208301516020830152604083015160408301526060830151606083015260808301511515608083015292915050565b610269610264366004610fa1565b6104b4565b6040516101839190610fec565b610289610284366004610fa1565b6105b6565b005b61029e610299366004610fa1565b6106af565b60405161018391905f60c082019050825182526020830151602083015260408301516040830152606083015160608301526080830151608083015260a0830151151560a083015292915050565b6102fe6102f9366004610fa1565b610740565b6040516101839190611078565b6102896107a2565b610353610321366004610fa1565b60026020525f908152604090208054600182015460038301546004840154600590940154929360ff9092169290919085565b6040516101839594939291906110bb565b6102896103723660046110eb565b6107b5565b60015461038a906001600160a01b031681565b6040516001600160a01b039091168152602001610183565b5f546001600160a01b031661038a565b6102896103c0366004611118565b610835565b6103d86103d3366004610fa1565b610aae565b604051908152602001610183565b6102896103f4366004611194565b610acd565b6102896104073660046110eb565b610d80565b6005546103d8565b6102fe610422366004610f81565b610dbd565b6104566040518060a001604052805f81526020015f81526020015f81526020015f81526020015f151581525090565b505f828152600360208181526040808420858552825292839020835160a0810185528154815260018201549281019290925260028101549382019390935290820154606082015260049091015460ff16151560808201525b92915050565b6104ea6040805160c081019091525f80825260208201908152602001606081526020015f81526020015f81526020015f81525090565b5f82815260026020908152604091829020825160c08101909352805483526001810154909183019060ff16600381111561052657610526610fb8565b600381111561053757610537610fb8565b81526020016002820180548060200260200160405190810160405280929190818152602001828054801561058857602002820191905f5260205f20905b815481526020019060010190808311610574575b5050505050815260200160038201548152602001600482015481526020016005820154815250509050919050565b6001546001600160a01b031633146105e1576040516380fee10560e01b815260040160405180910390fd5b5f81815260026020526040812090600182015460ff16600381111561060857610608610fb8565b0361062e57604051631ad8171960e11b8152600481018390526024015b60405180910390fd5b60018082015460ff16600381111561064857610648610fb8565b1461067257600180820154604051631f6fdc1960e21b815261062592859260ff169160040161120c565b60018101805460ff1916600217905560405182907fd1ddc3dd6519e56d82f5c020bbd2401678c00812f6851cded6681cd68d762024905f90a25050565b6106e46040518060c001604052805f81526020015f81526020015f81526020015f81526020015f81526020015f151581525090565b505f90815260046020818152604092839020835160c081018552815481526001820154928101929092526002810154938201939093526003830154606082015290820154608082015260059091015460ff16151560a082015290565b5f8181526002602081815260409283902090910180548351818402810184019094528084526060939283018282801561079657602002820191905f5260205f20905b815481526020019060010190808311610782575b50505050509050919050565b6107aa610ea9565b6107b35f610ed5565b565b6107bd610ea9565b6001600160a01b0381166107e45760405163d92e233d60e01b815260040160405180910390fd5b600180546001600160a01b038381166001600160a01b0319831681179093556040519116919082907f078c3b417dadf69374a59793b829c52001247130433427049317bde56607b1b7905f90a35050565b6001546001600160a01b03163314610860576040516380fee10560e01b815260040160405180910390fd5b5f84815260026020526040812090600182015460ff16600381111561088757610887610fb8565b036108a857604051631ad8171960e11b815260048101869052602401610625565b6002600182015460ff1660038111156108c3576108c3610fb8565b146108f1576001810154604051631f6fdc1960e21b815261062591879160ff9091169060029060040161120c565b6002810154821461091857604051639835811560e01b815260048101869052602401610625565b60018101805460ff1916600390811790915581018490554260058201555f5b82811015610a7a573684848381811061095257610952611235565b5f8a815260036020908152604080832060a0909402959095018035835292905292909220919250829190506109878282611256565b505080355f90815260046020526040812060038101805491926109a9836112b4565b91905055508160400135816002015f8282546109c591906112cc565b925050819055508160600135816004015f8282546109e391906112cc565b909155506109f9905060a08301608084016112df565b15610a15578054815f610a0b836112b4565b9190505550610a70565b600181018054905f610a26836112b4565b909155505060408051602080850135825282850135908201528335918a917fbbc2b3774fbc5d04c2f937d8a07a25372bad7d0af324f1770cf7a3239083aa4e910160405180910390a35b5050600101610937565b50604051849086907f3369448929aa7c2137b2d7398f1b4187901539e64814e7c27a133fb4d6e41400905f90a35050505050565b60058181548110610abd575f80fd5b5f91825260209091200154905081565b6001546001600160a01b03163314610af8576040516380fee10560e01b815260040160405180910390fd5b5f8381526002602052604081206001015460ff166003811115610b1d57610b1d610fb8565b14610b3e57604051633c80e6e760e11b815260048101849052602401610625565b6002811015610b6057604051631cd8dc2160e31b815260040160405180910390fd5b6040805160c0810190915283815260208101600181526020018383808060200260200160405190810160405280939291908181526020018383602002808284375f920182905250938552505050602080830182905242604080850191909152606090930182905286825260028152919020825181559082015160018083018054909160ff1990911690836003811115610bfb57610bfb610fb8565b021790555060408201518051610c1b916002840191602090910190610f24565b50606082015160038201556080820151600482015560a09091015160059182015580546001810182555f9182527f036b6384b5eca791c62761152d0c79bb0604c104a5fb6f4eb0703f3154bb3db0018490555b81811015610d405760045f848484818110610c8b57610c8b611235565b602090810292909201358352508101919091526040015f206005015460ff16610d3857600160045f858585818110610cc557610cc5611235565b9050602002013581526020019081526020015f206005015f6101000a81548160ff021916908315150217905550828282818110610d0457610d04611235565b905060200201357f7889fb3af617fa63644484c3243b8aa95edf844fcdff4c9160adf5de94d7225560405160405180910390a25b600101610c6e565b50827f869a13f1013d86015acc1955a0e1087ad5135eb7fa3f07bc54bc8aa17df0aad48383604051610d739291906112fa565b60405180910390a2505050565b610d88610ea9565b6001600160a01b038116610db157604051631e4fbdf760e01b81525f6004820152602401610625565b610dba81610ed5565b50565b600554606090808410610ddf575050604080515f8152602081019091526104ae565b5f610dea84866112cc565b905081811115610df75750805b5f610e028683611345565b90505f8167ffffffffffffffff811115610e1e57610e1e611331565b604051908082528060200260200182016040528015610e47578160200160208202803683370190505b5090505f5b82811015610e9e576005610e60828a6112cc565b81548110610e7057610e70611235565b905f5260205f200154828281518110610e8b57610e8b611235565b6020908102919091010152600101610e4c565b509695505050505050565b5f546001600160a01b031633146107b35760405163118cdaa760e01b8152336004820152602401610625565b5f80546001600160a01b038381166001600160a01b0319831681178455604051919092169283917f8be0079c531659141344cd1fd0a4f28419497f9722a3daafe3b4186f6b6457e09190a35050565b828054828255905f5260205f20908101928215610f5d579160200282015b82811115610f5d578251825591602001919060010190610f42565b50610f69929150610f6d565b5090565b5b80821115610f69575f8155600101610f6e565b5f8060408385031215610f92575f80fd5b50508035926020909101359150565b5f60208284031215610fb1575f80fd5b5035919050565b634e487b7160e01b5f52602160045260245ffd5b60048110610fe857634e487b7160e01b5f52602160045260245ffd5b9052565b5f602080835260e083018451828501528185015161100d6040860182610fcc565b50604085015160c060608601528051918290528201905f906101008601905b8083101561104c578351825292840192600192909201919084019061102c565b5060608701516080870152608087015160a087015260a087015160c08701528094505050505092915050565b602080825282518282018190525f9190848201906040850190845b818110156110af57835183529284019291840191600101611093565b50909695505050505050565b85815260a081016110cf6020830187610fcc565b8460408301528360608301528260808301529695505050505050565b5f602082840312156110fb575f80fd5b81356001600160a01b0381168114611111575f80fd5b9392505050565b5f805f806060858703121561112b575f80fd5b8435935060208501359250604085013567ffffffffffffffff80821115611150575f80fd5b818701915087601f830112611163575f80fd5b813581811115611171575f80fd5b88602060a083028501011115611185575f80fd5b95989497505060200194505050565b5f805f604084860312156111a6575f80fd5b83359250602084013567ffffffffffffffff808211156111c4575f80fd5b818601915086601f8301126111d7575f80fd5b8135818111156111e5575f80fd5b8760208260051b85010111156111f9575f80fd5b6020830194508093505050509250925092565b838152606081016112206020830185610fcc565b61122d6040830184610fcc565b949350505050565b634e487b7160e01b5f52603260045260245ffd5b8015158114610dba575f80fd5b8135815560208201356001820155604082013560028201556060820135600382015560048101608083013561128a81611249565b815490151560ff1660ff19919091161790555050565b634e487b7160e01b5f52601160045260245ffd5b5f600182016112c5576112c56112a0565b5060010190565b808201808211156104ae576104ae6112a0565b5f602082840312156112ef575f80fd5b813561111181611249565b602080825281018290525f6001600160fb1b03831115611318575f80fd5b8260051b80856040850137919091016040019392505050565b634e487b7160e01b5f52604160045260245ffd5b818103818111156104ae576104ae6112a056fea26469706673582212206eb0c1ab4f953f65a1d7bd18f18aabc49e753c88a1b65c0256cb294d9f4fb10f64736f6c63430008180033","linkReferences":{}},"methodIdentifiers":{"activateBattle(bytes32)":"513f3f27","agentStats(uint256)":"402add08","battleIds(uint256)":"a13477d2","battleResults(bytes32,uint256)":"355d1184","battles(bytes32)":"78547e6c","getAgentStats(uint256)":"68091633","getBattle(bytes32)":"43cc2213","getBattleAgents(bytes32)":"71337eaf","getBattleCount()":"f470d5ec","getBattleIds(uint256,uint256)":"fe933691","getBattleResult(bytes32,uint256)":"41935b06","oracle()":"7dc0d1d0","owner()":"8da5cb5b","recordResult(bytes32,uint256,(uint256,uint256,uint256,uint256,bool)[])":"9932b304","registerBattle(bytes32,uint256[])":"db53cdf3","renounceOwnership()":"715018a6","setOracle(address)":"7adbf973","transferOwnership(address)":"f2fde38b"},"id":27}