{"abi":[{"type":"constructor","inputs":[{"name":"_name","type":"string","internalType":"string"},{"name":"_symbol","type":"string","internalType":"string"},{"name":"_classId","type":"uint8","internalType":"uint8"},{"name":"_className","type":"string","internalType":"string"},{"name":"_manager","type":"address","internalType":"address"}],"stateMutability":"nonpayable"},{"type":"function","name":"allowance","inputs":[{"name":"owner","type":"address","internalType":"address"},{"name":"spender","type":"address","internalType":"address"}],"outputs":[{"name":"","type":"uint256","internalType":"uint256"}],"stateMutability":"view"},{"type":"function","name":"approve","inputs":[{"name":"spender","type":"address","internalType":"address"},{"name":"value","type":"uint256","internalType":"uint256"}],"outputs":[{"name":"","type":"bool","internalType":"bool"}],"stateMutability":"nonpayable"},{"type":"function","name":"balanceOf","inputs":[{"name":"account","type":"address","internalType":"address"}],"outputs":[{"name":"","type":"uint256","internalType":"uint256"}],"stateMutability":"view"},{"type":"function","name":"burn","inputs":[{"name":"amount","type":"uint256","internalType":"uint256"}],"outputs":[],"stateMutability":"nonpayable"},{"type":"function","name":"burnFrom","inputs":[{"name":"from","type":"address","internalType":"address"},{"name":"amount","type":"uint256","internalType":"uint256"}],"outputs":[],"stateMutability":"nonpayable"},{"type":"function","name":"classId","inputs":[],"outputs":[{"name":"","type":"uint8","internalType":"uint8"}],"stateMutability":"view"},{"type":"function","name":"className","inputs":[],"outputs":[{"name":"","type":"string","internalType":"string"}],"stateMutability":"view"},{"type":"function","name":"decimals","inputs":[],"outputs":[{"name":"","type":"uint8","internalType":"uint8"}],"stateMutability":"view"},{"type":"function","name":"manager","inputs":[],"outputs":[{"name":"","type":"address","internalType":"address"}],"stateMutability":"view"},{"type":"function","name":"mint","inputs":[{"name":"to","type":"address","internalType":"address"},{"name":"amount","type":"uint256","internalType":"uint256"}],"outputs":[],"stateMutability":"nonpayable"},{"type":"function","name":"name","inputs":[],"outputs":[{"name":"","type":"string","internalType":"string"}],"stateMutability":"view"},{"type":"function","name":"owner","inputs":[],"outputs":[{"name":"","type":"address","internalType":"address"}],"stateMutability":"view"},{"type":"function","name":"renounceOwnership","inputs":[],"outputs":[],"stateMutability":"nonpayable"},{"type":"function","name":"setManager","inputs":[{"name":"_manager","type":"address","internalType":"address"}],"outputs":[],"stateMutability":"nonpayable"},{"type":"function","name":"symbol","inputs":[],"outputs":[{"name":"","type":"string","internalType":"string"}],"stateMutability":"view"},{"type":"function","name":"totalSupply","inputs":[],"outputs":[{"name":"","type":"uint256","internalType":"uint256"}],"stateMutability":"view"},{"type":"function","name":"transfer","inputs":[{"name":"to","type":"address","internalType":"address"},{"name":"value","type":"uint256","internalType":"uint256"}],"outputs":[{"name":"","type":"bool","internalType":"bool"}],"stateMutability":"nonpayable"},{"type":"function","name":"transferFrom","inputs":[{"name":"from","type":"address","internalType":"address"},{"name":"to","type":"address","internalType":"address"},{"name":"value","type":"uint256","internalType":"uint256"}],"outputs":[{"name":"","type":"bool","internalType":"bool"}],"stateMutability":"nonpayable"},{"type":"function","name":"transferOwnership","inputs":[{"name":"newOwner","type":"address","internalType":"address"}],"outputs":[],"stateMutability":"nonpayable"},{"type":"event","name":"Approval","inputs":[{"name":"owner","type":"address","indexed":true,"internalType":"address"},{"name":"spender","type":"address","indexed":true,"internalType":"address"},{"name":"value","type":"uint256","indexed":false,"internalType":"uint256"}],"anonymous":false},{"type":"event","name":"OwnershipTransferred","inputs":[{"name":"previousOwner","type":"address","indexed":true,"internalType":"address"},{"name":"newOwner","type":"address","indexed":true,"internalType":"address"}],"anonymous":false},{"type":"event","name":"Transfer","inputs":[{"name":"from","type":"address","indexed":true,"internalType":"address"},{"name":"to","type":"address","indexed":true,"internalType":"address"},{"name":"value","type":"uint256","indexed":false,"internalType":"uint256"}],"anonymous":false},{"type":"error","name":"ERC20InsufficientAllowance","inputs":[{"name":"spender","type":"address","internalType":"address"},{"name":"allowance","type":"uint256","internalType":"uint256"},{"name":"needed","type":"uint256","internalType":"uint256"}]},{"type":"error","name":"ERC20InsufficientBalance","inputs":[{"name":"sender","type":"address","internalType":"address"},{"name":"balance","type":"uint256","internalType":"uint256"},{"name":"needed","type":"uint256","internalType":"uint256"}]},{"type":"error","name":"ERC20InvalidApprover","inputs":[{"name":"approver","type":"address","internalType":"address"}]},{"type":"error","name":"ERC20InvalidReceiver","inputs":[{"name":"receiver","type":"address","internalType":"address"}]},{"type":"error","name":"ERC20InvalidSender","inputs":[{"name":"sender","type":"address","internalType":"address"}]},{"type":"error","name":"ERC20InvalidSpender","inputs":[{"name":"spender","type":"address","internalType":"address"}]},{"type":"error","name":"OnlyManager","inputs":[]},{"type":"error","name":"OwnableInvalidOwner","inputs":[{"name":"owner","type":"address","internalType":"address"}]},{"type":"error","name":"OwnableUnauthorizedAccount","inputs":[{"name":"account","type":"address","internalType":"address"}]},{"type":"error","name":"ZeroAddress","inputs":[]}],"bytecode":{"object":"0x60a060405234801562000010575f80fd5b5060405162000f4d38038062000f4d83398101604081905262000033916200020b565b33858560036200004483826200035c565b5060046200005382826200035c565b5050506001600160a01b0381166200008457604051631e4fbdf760e01b81525f600482015260240160405180910390fd5b6200008f81620000f9565b506001600160a01b038116620000b85760405163d92e233d60e01b815260040160405180910390fd5b60ff83166080526006620000cd83826200035c565b50600780546001600160a01b0319166001600160a01b0392909216919091179055506200042892505050565b600580546001600160a01b038381166001600160a01b0319831681179093556040519116919082907f8be0079c531659141344cd1fd0a4f28419497f9722a3daafe3b4186f6b6457e0905f90a35050565b634e487b7160e01b5f52604160045260245ffd5b5f82601f8301126200016e575f80fd5b81516001600160401b03808211156200018b576200018b6200014a565b604051601f8301601f19908116603f01168101908282118183101715620001b657620001b66200014a565b8160405283815260209250866020858801011115620001d3575f80fd5b5f91505b83821015620001f65785820183015181830184015290820190620001d7565b5f602085830101528094505050505092915050565b5f805f805f60a0868803121562000220575f80fd5b85516001600160401b038082111562000237575f80fd5b6200024589838a016200015e565b965060208801519150808211156200025b575f80fd5b6200026989838a016200015e565b95506040880151915060ff8216821462000281575f80fd5b60608801519194508082111562000296575f80fd5b50620002a5888289016200015e565b608088015190935090506001600160a01b0381168114620002c4575f80fd5b809150509295509295909350565b600181811c90821680620002e757607f821691505b6020821081036200030657634e487b7160e01b5f52602260045260245ffd5b50919050565b601f8211156200035757805f5260205f20601f840160051c81016020851015620003335750805b601f840160051c820191505b8181101562000354575f81556001016200033f565b50505b505050565b81516001600160401b038111156200037857620003786200014a565b6200039081620003898454620002d2565b846200030c565b602080601f831160018114620003c6575f8415620003ae5750858301515b5f19600386901b1c1916600185901b17855562000420565b5f85815260208120601f198616915b82811015620003f657888601518255948401946001909101908401620003d5565b50858210156200041457878501515f19600388901b60f8161c191681555b505060018460011b0185555b505050505050565b608051610b0c620004415f395f61027c0152610b0c5ff3fe608060405234801561000f575f80fd5b506004361061011b575f3560e01c806370a08231116100a9578063a9059cbb1161006e578063a9059cbb14610251578063d0ebdbe714610264578063d5ad684914610277578063dd62ed3e1461029e578063f2fde38b146102d6575f80fd5b806370a08231146101f5578063715018a61461021d57806379cc6790146102255780638da5cb5b1461023857806395d89b4114610249575f80fd5b806323b872dd116100ef57806323b872dd1461017a578063313ce5671461018d57806340c10f19146101a257806342966c68146101b7578063481c6a75146101ca575f80fd5b8062c51f8c1461011f57806306fdde031461013d578063095ea7b31461014557806318160ddd14610168575b5f80fd5b6101276102e9565b604051610134919061094f565b60405180910390f35b610127610375565b6101586101533660046109b6565b610405565b6040519015158152602001610134565b6002545b604051908152602001610134565b6101586101883660046109de565b61041e565b60125b60405160ff9091168152602001610134565b6101b56101b03660046109b6565b610441565b005b6101b56101c5366004610a17565b61047a565b6007546101dd906001600160a01b031681565b6040516001600160a01b039091168152602001610134565b61016c610203366004610a2e565b6001600160a01b03165f9081526020819052604090205490565b6101b5610487565b6101b56102333660046109b6565b61049a565b6005546001600160a01b03166101dd565b6101276104da565b61015861025f3660046109b6565b6104e9565b6101b5610272366004610a2e565b6104f6565b6101907f000000000000000000000000000000000000000000000000000000000000000081565b61016c6102ac366004610a4e565b6001600160a01b039182165f90815260016020908152604080832093909416825291909152205490565b6101b56102e4366004610a2e565b610547565b600680546102f690610a7f565b80601f016020809104026020016040519081016040528092919081815260200182805461032290610a7f565b801561036d5780601f106103445761010080835404028352916020019161036d565b820191905f5260205f20905b81548152906001019060200180831161035057829003601f168201915b505050505081565b60606003805461038490610a7f565b80601f01602080910402602001604051908101604052809291908181526020018280546103b090610a7f565b80156103fb5780601f106103d2576101008083540402835291602001916103fb565b820191905f5260205f20905b8154815290600101906020018083116103de57829003601f168201915b5050505050905090565b5f33610412818585610586565b60019150505b92915050565b5f3361042b858285610598565b610436858585610614565b506001949350505050565b6007546001600160a01b0316331461046c5760405163605919ad60e11b815260040160405180910390fd5b6104768282610671565b5050565b61048433826106a5565b50565b61048f6106d9565b6104985f610706565b565b6007546001600160a01b031633146104c55760405163605919ad60e11b815260040160405180910390fd5b6104d0823383610598565b61047682826106a5565b60606004805461038490610a7f565b5f33610412818585610614565b6104fe6106d9565b6001600160a01b0381166105255760405163d92e233d60e01b815260040160405180910390fd5b600780546001600160a01b0319166001600160a01b0392909216919091179055565b61054f6106d9565b6001600160a01b03811661057d57604051631e4fbdf760e01b81525f60048201526024015b60405180910390fd5b61048481610706565b6105938383836001610757565b505050565b6001600160a01b038381165f908152600160209081526040808320938616835292905220545f1981101561060e578181101561060057604051637dc7a0d960e11b81526001600160a01b03841660048201526024810182905260448101839052606401610574565b61060e84848484035f610757565b50505050565b6001600160a01b03831661063d57604051634b637e8f60e11b81525f6004820152602401610574565b6001600160a01b0382166106665760405163ec442f0560e01b81525f6004820152602401610574565b610593838383610829565b6001600160a01b03821661069a5760405163ec442f0560e01b81525f6004820152602401610574565b6104765f8383610829565b6001600160a01b0382166106ce57604051634b637e8f60e11b81525f6004820152602401610574565b610476825f83610829565b6005546001600160a01b031633146104985760405163118cdaa760e01b8152336004820152602401610574565b600580546001600160a01b038381166001600160a01b0319831681179093556040519116919082907f8be0079c531659141344cd1fd0a4f28419497f9722a3daafe3b4186f6b6457e0905f90a35050565b6001600160a01b0384166107805760405163e602df0560e01b81525f6004820152602401610574565b6001600160a01b0383166107a957604051634a1406b160e11b81525f6004820152602401610574565b6001600160a01b038085165f908152600160209081526040808320938716835292905220829055801561060e57826001600160a01b0316846001600160a01b03167f8c5be1e5ebec7d5bd14f71427d1e84f3dd0314c0f7b2291e5b200ac8c7c3b9258460405161081b91815260200190565b60405180910390a350505050565b6001600160a01b038316610853578060025f8282546108489190610ab7565b909155506108c39050565b6001600160a01b0383165f90815260208190526040902054818110156108a55760405163391434e360e21b81526001600160a01b03851660048201526024810182905260448101839052606401610574565b6001600160a01b0384165f9081526020819052604090209082900390555b6001600160a01b0382166108df576002805482900390556108fd565b6001600160a01b0382165f9081526020819052604090208054820190555b816001600160a01b0316836001600160a01b03167fddf252ad1be2c89b69c2b068fc378daa952ba7f163c4a11628f55a4df523b3ef8360405161094291815260200190565b60405180910390a3505050565b5f602080835283518060208501525f5b8181101561097b5785810183015185820160400152820161095f565b505f604082860101526040601f19601f8301168501019250505092915050565b80356001600160a01b03811681146109b1575f80fd5b919050565b5f80604083850312156109c7575f80fd5b6109d08361099b565b946020939093013593505050565b5f805f606084860312156109f0575f80fd5b6109f98461099b565b9250610a076020850161099b565b9150604084013590509250925092565b5f60208284031215610a27575f80fd5b5035919050565b5f60208284031215610a3e575f80fd5b610a478261099b565b9392505050565b5f8060408385031215610a5f575f80fd5b610a688361099b565b9150610a766020840161099b565b90509250929050565b600181811c90821680610a9357607f821691505b602082108103610ab157634e487b7160e01b5f52602260045260245ffd5b50919050565b8082018082111561041857634e487b7160e01b5f52601160045260245ffdfea26469706673582212202cfc4f3a1b9ee2140a0139848651f06125de08a26b08822995d96e873fa8adb464736f6c63430008180033","linkReferences":{}},"methodIdentifiers":{"allowance(address,address)":"dd62ed3e","approve(address,uint256)":"095ea7b3","balanceOf(address)":"70a08231","burn(uint256)":"42966c68","burnFrom(address,uint256)":"79cc6790","classId()":"d5ad6849","className()":"00c51f8c","decimals()":"313ce567","manager()":"481c6a75","mint(address,uint256)":"40c10f19","name()":"06fdde03","owner()":"8da5cb5b","renounceOwnership()":"715018a6","setManager(address)":"d0ebdbe7","symbol()":"95d89b41","totalSupply()":"18160ddd","transfer(address,uint256)":"a9059cbb","transferFrom(address,address,uint256)":"23b872dd","transferOwnership(address)":"f2fde38b"},"id":51}